{
  "contractName": "Discounter",
  "abi": [
    {
      "inputs": [
        {
          "internalType": "address",
          "name": "buyer",
          "type": "address"
        },
        {
          "internalType": "uint256",
          "name": "numberTickets",
          "type": "uint256"
        }
      ],
      "name": "getNumberOfFreeTickets",
      "outputs": [
        {
          "internalType": "uint256",
          "name": "",
          "type": "uint256"
        }
      ],
      "stateMutability": "pure",
      "type": "function"
    }
  ],
  "bytecode": "0x608060405234801561001057600080fd5b5060e68061001f6000396000f3fe6080604052348015600f57600080fd5b506004361060285760003560e01c80638ff5e23c14602d575b600080fd5b603c6038366004607c565b604e565b60405190815260200160405180910390f35b60006001600160a01b0383161580159060675750600382115b156072575060016076565b5060005b92915050565b60008060408385031215608d578182fd5b82356001600160a01b038116811460a2578283fd5b94602093909301359350505056fea264697066735822122078c63c0811d34cd43f0f965de3a963b110e75ce5b10afb285e4b83978a99270a64736f6c63430008040033",
  "immutableReferences": {},
  "source": "// SPDX-License-Identifier: MIT\npragma solidity 0.8.4;\n\nimport \"./interfaces/IDiscounter.sol\";\n\n//This is a Mock discounter for tests\ncontract Discounter is IDiscounter {\n    function getNumberOfFreeTickets(address buyer, uint256 numberTickets) external override pure returns (uint256) {\n        if(buyer != address(0) && numberTickets > 3) {\n            return 1;\n        }\n        return 0;\n    }\n}",
  "sourcePath": "/Users/aranjak/Code-BC/lottery-contracts/contracts/Discounter.sol",
  "compiler": {
    "name": "solc",
    "version": "0.8.4+commit.c7e474f2.Emscripten.clang"
  },
  "schemaVersion": "3.4.0",
  "updatedAt": "2021-10-07T14:36:22.079Z",
  "devdoc": {
    "kind": "dev",
    "methods": {},
    "version": 1
  },
  "userdoc": {
    "kind": "user",
    "methods": {},
    "version": 1
  }
}