{
  "contractName": "RandomNumberGenerator",
  "abi": [
    {
      "inputs": [
        {
          "internalType": "address",
          "name": "_vrfCoordinator",
          "type": "address"
        },
        {
          "internalType": "address",
          "name": "_linkToken",
          "type": "address"
        }
      ],
      "stateMutability": "nonpayable",
      "type": "constructor"
    },
    {
      "anonymous": false,
      "inputs": [
        {
          "indexed": true,
          "internalType": "address",
          "name": "previousOwner",
          "type": "address"
        },
        {
          "indexed": true,
          "internalType": "address",
          "name": "newOwner",
          "type": "address"
        }
      ],
      "name": "OwnershipTransferred",
      "type": "event"
    },
    {
      "inputs": [],
      "name": "fee",
      "outputs": [
        {
          "internalType": "uint256",
          "name": "",
          "type": "uint256"
        }
      ],
      "stateMutability": "view",
      "type": "function",
      "constant": true
    },
    {
      "inputs": [],
      "name": "keyHash",
      "outputs": [
        {
          "internalType": "bytes32",
          "name": "",
          "type": "bytes32"
        }
      ],
      "stateMutability": "view",
      "type": "function",
      "constant": true
    },
    {
      "inputs": [],
      "name": "latestLotteryId",
      "outputs": [
        {
          "internalType": "uint256",
          "name": "",
          "type": "uint256"
        }
      ],
      "stateMutability": "view",
      "type": "function",
      "constant": true
    },
    {
      "inputs": [],
      "name": "latestRequestId",
      "outputs": [
        {
          "internalType": "bytes32",
          "name": "",
          "type": "bytes32"
        }
      ],
      "stateMutability": "view",
      "type": "function",
      "constant": true
    },
    {
      "inputs": [],
      "name": "lottery",
      "outputs": [
        {
          "internalType": "address",
          "name": "",
          "type": "address"
        }
      ],
      "stateMutability": "view",
      "type": "function",
      "constant": true
    },
    {
      "inputs": [],
      "name": "owner",
      "outputs": [
        {
          "internalType": "address",
          "name": "",
          "type": "address"
        }
      ],
      "stateMutability": "view",
      "type": "function",
      "constant": true
    },
    {
      "inputs": [],
      "name": "randomResult",
      "outputs": [
        {
          "internalType": "uint32",
          "name": "",
          "type": "uint32"
        }
      ],
      "stateMutability": "view",
      "type": "function",
      "constant": true
    },
    {
      "inputs": [
        {
          "internalType": "bytes32",
          "name": "requestId",
          "type": "bytes32"
        },
        {
          "internalType": "uint256",
          "name": "randomness",
          "type": "uint256"
        }
      ],
      "name": "rawFulfillRandomness",
      "outputs": [],
      "stateMutability": "nonpayable",
      "type": "function"
    },
    {
      "inputs": [],
      "name": "renounceOwnership",
      "outputs": [],
      "stateMutability": "nonpayable",
      "type": "function"
    },
    {
      "inputs": [
        {
          "internalType": "address",
          "name": "newOwner",
          "type": "address"
        }
      ],
      "name": "transferOwnership",
      "outputs": [],
      "stateMutability": "nonpayable",
      "type": "function"
    },
    {
      "inputs": [],
      "name": "getRandomNumber",
      "outputs": [],
      "stateMutability": "nonpayable",
      "type": "function"
    },
    {
      "inputs": [
        {
          "internalType": "uint256",
          "name": "_fee",
          "type": "uint256"
        }
      ],
      "name": "setFee",
      "outputs": [],
      "stateMutability": "nonpayable",
      "type": "function"
    },
    {
      "inputs": [
        {
          "internalType": "bytes32",
          "name": "_keyHash",
          "type": "bytes32"
        }
      ],
      "name": "setKeyHash",
      "outputs": [],
      "stateMutability": "nonpayable",
      "type": "function"
    },
    {
      "inputs": [
        {
          "internalType": "address",
          "name": "_lottery",
          "type": "address"
        }
      ],
      "name": "setLotteryAddress",
      "outputs": [],
      "stateMutability": "nonpayable",
      "type": "function"
    },
    {
      "inputs": [
        {
          "internalType": "address",
          "name": "_tokenAddress",
          "type": "address"
        },
        {
          "internalType": "uint256",
          "name": "_tokenAmount",
          "type": "uint256"
        }
      ],
      "name": "withdrawTokens",
      "outputs": [],
      "stateMutability": "nonpayable",
      "type": "function"
    },
    {
      "inputs": [],
      "name": "viewLatestLotteryId",
      "outputs": [
        {
          "internalType": "uint256",
          "name": "",
          "type": "uint256"
        }
      ],
      "stateMutability": "view",
      "type": "function",
      "constant": true
    },
    {
      "inputs": [],
      "name": "viewRandomResult",
      "outputs": [
        {
          "internalType": "uint32",
          "name": "",
          "type": "uint32"
        }
      ],
      "stateMutability": "view",
      "type": "function",
      "constant": true
    }
  ],
  "bytecode": "0x60c060405234801561001057600080fd5b50604051610eff380380610eff83398101604081905261002f916100cd565b6001600160601b0319606083811b821660a05282901b166080526100586100533390565b61005f565b50506100ff565b600180546001600160a01b038381166001600160a01b0319831681179093556040519116919082907f8be0079c531659141344cd1fd0a4f28419497f9722a3daafe3b4186f6b6457e090600090a35050565b80516001600160a01b03811681146100c857600080fd5b919050565b600080604083850312156100df578182fd5b6100e8836100b1565b91506100f6602084016100b1565b90509250929050565b60805160601c60a05160601c610dc76101386000396000818161034501526107eb01526000818161049b01526107bc0152610dc76000f3fe608060405234801561001057600080fd5b506004361061010b5760003560e01c806394985ddd116100a2578063dbdff2c111610071578063dbdff2c114610209578063ddca3f4314610211578063eed8e1ee1461021a578063f2fde38b14610223578063fbe5d9171461023657600080fd5b806394985ddd146101c257806398544710146101d5578063a1c4f55a146101e8578063ba13a572146101f657600080fd5b806361728f39116100de57806361728f391461017957806369fe0e2d14610182578063715018a6146101955780638da5cb5b1461019d57600080fd5b806306b091f9146101105780631aa46f59146101255780632a332b2a1461014157806342619f6614610154575b600080fd5b61012361011e366004610bc3565b61023e565b005b61012e60045481565b6040519081526020015b60405180910390f35b61012361014f366004610ba9565b610289565b6005546101649063ffffffff1681565b60405163ffffffff9091168152602001610138565b61012e60035481565b610123610190366004610c0c565b6102d5565b610123610304565b6001546001600160a01b03165b6040516001600160a01b039091168152602001610138565b6101236101d0366004610c24565b61033a565b6101236101e3366004610c0c565b6103bc565b60055463ffffffff16610164565b6002546101aa906001600160a01b031681565b6101236103eb565b61012e60065481565b61012e60075481565b610123610231366004610ba9565b610577565b60075461012e565b6001546001600160a01b031633146102715760405162461bcd60e51b815260040161026890610ce8565b60405180910390fd5b6102856001600160a01b0383163383610612565b5050565b6001546001600160a01b031633146102b35760405162461bcd60e51b815260040161026890610ce8565b600280546001600160a01b0319166001600160a01b0392909216919091179055565b6001546001600160a01b031633146102ff5760405162461bcd60e51b815260040161026890610ce8565b600655565b6001546001600160a01b0316331461032e5760405162461bcd60e51b815260040161026890610ce8565b6103386000610669565b565b336001600160a01b037f000000000000000000000000000000000000000000000000000000000000000016146103b25760405162461bcd60e51b815260206004820152601f60248201527f4f6e6c7920565246436f6f7264696e61746f722063616e2066756c66696c6c006044820152606401610268565b61028582826106bb565b6001546001600160a01b031633146103e65760405162461bcd60e51b815260040161026890610ce8565b600355565b6002546001600160a01b031633146104345760405162461bcd60e51b815260206004820152600c60248201526b4f6e6c79204c6f747465727960a01b6044820152606401610268565b6003546104835760405162461bcd60e51b815260206004820152601860248201527f4d75737420686176652076616c6964206b6579206861736800000000000000006044820152606401610268565b6006546040516370a0823160e01b81523060048201527f00000000000000000000000000000000000000000000000000000000000000006001600160a01b0316906370a082319060240160206040518083038186803b1580156104e557600080fd5b505afa1580156104f9573d6000803e3d6000fd5b505050506040513d601f19601f8201168201806040525081019061051d9190610c45565b10156105645760405162461bcd60e51b81526020600482015260166024820152754e6f7420656e6f756768204c494e4b20746f6b656e7360501b6044820152606401610268565b6105726003546006546107b8565b600455565b6001546001600160a01b031633146105a15760405162461bcd60e51b815260040161026890610ce8565b6001600160a01b0381166106065760405162461bcd60e51b815260206004820152602660248201527f4f776e61626c653a206e6577206f776e657220697320746865207a65726f206160448201526564647265737360d01b6064820152608401610268565b61060f81610669565b50565b604080516001600160a01b038416602482015260448082018490528251808303909101815260649091019091526020810180516001600160e01b031663a9059cbb60e01b179052610664908490610941565b505050565b600180546001600160a01b038381166001600160a01b0319831681179093556040519116919082907f8be0079c531659141344cd1fd0a4f28419497f9722a3daafe3b4186f6b6457e090600090a35050565b81600454146106fe5760405162461bcd60e51b815260206004820152600f60248201526e15dc9bdb99c81c995c5d595cdd1259608a1b6044820152606401610268565b61070b620f424082610d71565b61071890620f4240610d1d565b6005805463ffffffff191663ffffffff9290921691909117905560025460408051630405030b60e51b815290516001600160a01b03909216916380a06160916004808201926020929091908290030181600087803b15801561077957600080fd5b505af115801561078d573d6000803e3d6000fd5b505050506040513d601f19601f820116820180604052508101906107b19190610c45565b6007555050565b60007f00000000000000000000000000000000000000000000000000000000000000006001600160a01b0316634000aea07f000000000000000000000000000000000000000000000000000000000000000084866000604051602001610828929190918252602082015260400190565b6040516020818303038152906040526040518463ffffffff1660e01b815260040161085593929190610ca5565b602060405180830381600087803b15801561086f57600080fd5b505af1158015610883573d6000803e3d6000fd5b505050506040513d601f19601f820116820180604052508101906108a79190610bec565b5060008381526020818152604080832054815180840188905280830185905230606082015260808082018390528351808303909101815260a090910190925281519183019190912086845292909152610901906001610d1d565b6000858152602081815260409182902092909255805180830187905280820184905281518082038301815260609091019091528051910120949350505050565b6000610996826040518060400160405280602081526020017f5361666545524332303a206c6f772d6c6576656c2063616c6c206661696c6564815250856001600160a01b0316610a139092919063ffffffff16565b80519091501561066457808060200190518101906109b49190610bec565b6106645760405162461bcd60e51b815260206004820152602a60248201527f5361666545524332303a204552433230206f7065726174696f6e20646964206e6044820152691bdd081cdd58d8d9595960b21b6064820152608401610268565b6060610a228484600085610a2c565b90505b9392505050565b606082471015610a8d5760405162461bcd60e51b815260206004820152602660248201527f416464726573733a20696e73756666696369656e742062616c616e636520666f6044820152651c8818d85b1b60d21b6064820152608401610268565b843b610adb5760405162461bcd60e51b815260206004820152601d60248201527f416464726573733a2063616c6c20746f206e6f6e2d636f6e74726163740000006044820152606401610268565b600080866001600160a01b03168587604051610af79190610c89565b60006040518083038185875af1925050503d8060008114610b34576040519150601f19603f3d011682016040523d82523d6000602084013e610b39565b606091505b5091509150610b49828286610b54565b979650505050505050565b60608315610b63575081610a25565b825115610b735782518084602001fd5b8160405162461bcd60e51b81526004016102689190610cd5565b80356001600160a01b0381168114610ba457600080fd5b919050565b600060208284031215610bba578081fd5b610a2582610b8d565b60008060408385031215610bd5578081fd5b610bde83610b8d565b946020939093013593505050565b600060208284031215610bfd578081fd5b81518015158114610a25578182fd5b600060208284031215610c1d578081fd5b5035919050565b60008060408385031215610c36578182fd5b50508035926020909101359150565b600060208284031215610c56578081fd5b5051919050565b60008151808452610c75816020860160208601610d41565b601f01601f19169290920160200192915050565b60008251610c9b818460208701610d41565b9190910192915050565b60018060a01b0384168152826020820152606060408201526000610ccc6060830184610c5d565b95945050505050565b602081526000610a256020830184610c5d565b6020808252818101527f4f776e61626c653a2063616c6c6572206973206e6f7420746865206f776e6572604082015260600190565b60008219821115610d3c57634e487b7160e01b81526011600452602481fd5b500190565b60005b83811015610d5c578181015183820152602001610d44565b83811115610d6b576000848401525b50505050565b600082610d8c57634e487b7160e01b81526012600452602481fd5b50069056fea2646970667358221220418b5bf6b9a5c15276144d335991ff1f829344c667df7e7117aa6e6cff00c36064736f6c63430008040033",
  "immutableReferences": {
    "2353": [
      {
        "length": 32,
        "start": 1179
      },
      {
        "length": 32,
        "start": 1980
      }
    ],
    "2355": [
      {
        "length": 32,
        "start": 837
      },
      {
        "length": 32,
        "start": 2027
      }
    ]
  },
  "source": "// SPDX-License-Identifier: MIT\npragma solidity 0.8.4;\n\nimport \"@chainlink/contracts/src/v0.8/VRFConsumerBase.sol\";\nimport \"@openzeppelin/contracts/access/Ownable.sol\";\nimport \"@openzeppelin/contracts/token/ERC20/utils/SafeERC20.sol\";\nimport \"./interfaces/IRandomNumberGenerator.sol\";\nimport \"./interfaces/ILottery.sol\";\n\ncontract RandomNumberGenerator is VRFConsumerBase, IRandomNumberGenerator, Ownable {\n    using SafeERC20 for IERC20;\n\n    address public lottery;\n    bytes32 public keyHash;\n    bytes32 public latestRequestId;\n    uint32 public randomResult;\n    uint256 public fee;\n    uint256 public latestLotteryId;\n\n    /**\n     * @notice Constructor\n     * @dev RandomNumberGenerator must be deployed before the lottery.\n     * Once the lottery contract is deployed, setLotteryAddress must be called.\n     * https://docs.chain.link/docs/vrf-contracts/\n     * @param _vrfCoordinator: address of the VRF coordinator\n     * @param _linkToken: address of the LINK token\n     */\n    constructor(address _vrfCoordinator, address _linkToken) VRFConsumerBase(_vrfCoordinator, _linkToken) {\n        //\n    }\n\n    /**\n     * @notice Request randomnes\n     */\n    function getRandomNumber() external override {\n        require(msg.sender == lottery, \"Only Lottery\");\n        require(keyHash != bytes32(0), \"Must have valid key hash\");\n        require(LINK.balanceOf(address(this)) >= fee, \"Not enough LINK tokens\");\n\n        latestRequestId = requestRandomness(keyHash, fee);\n    }\n\n    /**\n     * @notice Change the fee\n     * @param _fee: new fee (in LINK)\n     */\n    function setFee(uint256 _fee) external onlyOwner {\n        fee = _fee;\n    }\n\n    /**\n     * @notice Change the keyHash\n     * @param _keyHash: new keyHash\n     */\n    function setKeyHash(bytes32 _keyHash) external onlyOwner {\n        keyHash = _keyHash;\n    }\n\n    /**\n     * @notice Set the address for the Lottery\n     * @param _lottery: address of the Lottery\n     */\n    function setLotteryAddress(address _lottery) external onlyOwner {\n        lottery = _lottery;\n    }\n\n    /**\n     * @notice It allows the admin to withdraw tokens sent to the contract\n     * @param _tokenAddress: the address of the token to withdraw\n     * @param _tokenAmount: the number of token amount to withdraw\n     * @dev Only callable by owner.\n     */\n    function withdrawTokens(address _tokenAddress, uint256 _tokenAmount) external onlyOwner {\n        IERC20(_tokenAddress).safeTransfer(address(msg.sender), _tokenAmount);\n    }\n\n    /**\n     * @notice View latestLotteryId\n     */\n    function viewLatestLotteryId() external view override returns (uint256) {\n        return latestLotteryId;\n    }\n\n    /**\n     * @notice View random result\n     */\n    function viewRandomResult() external view override returns (uint32) {\n        return randomResult;\n    }\n\n    /**\n     * @notice Callback function used by ChainLink's VRF Coordinator\n     */\n    function fulfillRandomness(bytes32 requestId, uint256 randomness) internal override {\n        require(latestRequestId == requestId, \"Wrong requestId\");\n        randomResult = uint32(1000000 + (randomness % 1000000));\n        latestLotteryId = ILottery(lottery).viewCurrentLotteryId();\n    }\n}",
  "sourcePath": "/Users/aranjak/Code-BC/lottery-contracts/contracts/RandomNumberGenerator.sol",
  "compiler": {
    "name": "solc",
    "version": "0.8.4+commit.c7e474f2.Emscripten.clang"
  },
  "schemaVersion": "3.4.0",
  "updatedAt": "2021-09-22T11:05:30.699Z",
  "networkType": "ethereum",
  "devdoc": {
    "kind": "dev",
    "methods": {
      "constructor": {
        "details": "RandomNumberGenerator must be deployed before the lottery. Once the lottery contract is deployed, setLotteryAddress must be called. https://docs.chain.link/docs/vrf-contracts/",
        "params": {
          "_linkToken": ": address of the LINK token",
          "_vrfCoordinator": ": address of the VRF coordinator"
        }
      },
      "owner()": {
        "details": "Returns the address of the current owner."
      },
      "renounceOwnership()": {
        "details": "Leaves the contract without owner. It will not be possible to call `onlyOwner` functions anymore. Can only be called by the current owner. NOTE: Renouncing ownership will leave the contract without an owner, thereby removing any functionality that is only available to the owner."
      },
      "setFee(uint256)": {
        "params": {
          "_fee": ": new fee (in LINK)"
        }
      },
      "setKeyHash(bytes32)": {
        "params": {
          "_keyHash": ": new keyHash"
        }
      },
      "setLotteryAddress(address)": {
        "params": {
          "_lottery": ": address of the Lottery"
        }
      },
      "transferOwnership(address)": {
        "details": "Transfers ownership of the contract to a new account (`newOwner`). Can only be called by the current owner."
      },
      "withdrawTokens(address,uint256)": {
        "details": "Only callable by owner.",
        "params": {
          "_tokenAddress": ": the address of the token to withdraw",
          "_tokenAmount": ": the number of token amount to withdraw"
        }
      }
    },
    "version": 1
  },
  "userdoc": {
    "kind": "user",
    "methods": {
      "constructor": {
        "notice": "Constructor"
      },
      "getRandomNumber()": {
        "notice": "Request randomnes"
      },
      "setFee(uint256)": {
        "notice": "Change the fee"
      },
      "setKeyHash(bytes32)": {
        "notice": "Change the keyHash"
      },
      "setLotteryAddress(address)": {
        "notice": "Set the address for the Lottery"
      },
      "viewLatestLotteryId()": {
        "notice": "View latestLotteryId"
      },
      "viewRandomResult()": {
        "notice": "View random result"
      },
      "withdrawTokens(address,uint256)": {
        "notice": "It allows the admin to withdraw tokens sent to the contract"
      }
    },
    "version": 1
  }
}