{
  "contractName": "RandomNumberGenerator",
  "abi": [
    {
      "inputs": [
        {
          "internalType": "address",
          "name": "_vrfCoordinator",
          "type": "address"
        },
        {
          "internalType": "address",
          "name": "_linkToken",
          "type": "address"
        },
        {
          "internalType": "address",
          "name": "_wallet",
          "type": "address"
        },
        {
          "internalType": "uint256",
          "name": "_fee",
          "type": "uint256"
        },
        {
          "internalType": "bytes32",
          "name": "_keyHash",
          "type": "bytes32"
        }
      ],
      "stateMutability": "nonpayable",
      "type": "constructor"
    },
    {
      "anonymous": false,
      "inputs": [
        {
          "indexed": true,
          "internalType": "address",
          "name": "previousOwner",
          "type": "address"
        },
        {
          "indexed": true,
          "internalType": "address",
          "name": "newOwner",
          "type": "address"
        }
      ],
      "name": "OwnershipTransferred",
      "type": "event"
    },
    {
      "inputs": [],
      "name": "fee",
      "outputs": [
        {
          "internalType": "uint256",
          "name": "",
          "type": "uint256"
        }
      ],
      "stateMutability": "view",
      "type": "function",
      "constant": true
    },
    {
      "inputs": [],
      "name": "keyHash",
      "outputs": [
        {
          "internalType": "bytes32",
          "name": "",
          "type": "bytes32"
        }
      ],
      "stateMutability": "view",
      "type": "function",
      "constant": true
    },
    {
      "inputs": [],
      "name": "latestLotteryId",
      "outputs": [
        {
          "internalType": "uint256",
          "name": "",
          "type": "uint256"
        }
      ],
      "stateMutability": "view",
      "type": "function",
      "constant": true
    },
    {
      "inputs": [],
      "name": "latestRequestId",
      "outputs": [
        {
          "internalType": "bytes32",
          "name": "",
          "type": "bytes32"
        }
      ],
      "stateMutability": "view",
      "type": "function",
      "constant": true
    },
    {
      "inputs": [],
      "name": "lottery",
      "outputs": [
        {
          "internalType": "address",
          "name": "",
          "type": "address"
        }
      ],
      "stateMutability": "view",
      "type": "function",
      "constant": true
    },
    {
      "inputs": [],
      "name": "owner",
      "outputs": [
        {
          "internalType": "address",
          "name": "",
          "type": "address"
        }
      ],
      "stateMutability": "view",
      "type": "function",
      "constant": true
    },
    {
      "inputs": [],
      "name": "randomResult",
      "outputs": [
        {
          "internalType": "uint32",
          "name": "",
          "type": "uint32"
        }
      ],
      "stateMutability": "view",
      "type": "function",
      "constant": true
    },
    {
      "inputs": [
        {
          "internalType": "bytes32",
          "name": "requestId",
          "type": "bytes32"
        },
        {
          "internalType": "uint256",
          "name": "randomness",
          "type": "uint256"
        }
      ],
      "name": "rawFulfillRandomness",
      "outputs": [],
      "stateMutability": "nonpayable",
      "type": "function"
    },
    {
      "inputs": [],
      "name": "renounceOwnership",
      "outputs": [],
      "stateMutability": "nonpayable",
      "type": "function"
    },
    {
      "inputs": [
        {
          "internalType": "address",
          "name": "newOwner",
          "type": "address"
        }
      ],
      "name": "transferOwnership",
      "outputs": [],
      "stateMutability": "nonpayable",
      "type": "function"
    },
    {
      "inputs": [],
      "name": "wallet",
      "outputs": [
        {
          "internalType": "address",
          "name": "",
          "type": "address"
        }
      ],
      "stateMutability": "view",
      "type": "function",
      "constant": true
    },
    {
      "inputs": [],
      "name": "getRandomNumber",
      "outputs": [],
      "stateMutability": "nonpayable",
      "type": "function"
    },
    {
      "inputs": [
        {
          "internalType": "uint256",
          "name": "_fee",
          "type": "uint256"
        }
      ],
      "name": "setFee",
      "outputs": [],
      "stateMutability": "nonpayable",
      "type": "function"
    },
    {
      "inputs": [
        {
          "internalType": "bytes32",
          "name": "_keyHash",
          "type": "bytes32"
        }
      ],
      "name": "setKeyHash",
      "outputs": [],
      "stateMutability": "nonpayable",
      "type": "function"
    },
    {
      "inputs": [
        {
          "internalType": "address",
          "name": "_lottery",
          "type": "address"
        }
      ],
      "name": "setLotteryAddress",
      "outputs": [],
      "stateMutability": "nonpayable",
      "type": "function"
    },
    {
      "inputs": [
        {
          "internalType": "address",
          "name": "_tokenAddress",
          "type": "address"
        },
        {
          "internalType": "uint256",
          "name": "_tokenAmount",
          "type": "uint256"
        }
      ],
      "name": "withdrawTokens",
      "outputs": [],
      "stateMutability": "nonpayable",
      "type": "function"
    },
    {
      "inputs": [],
      "name": "viewLatestLotteryId",
      "outputs": [
        {
          "internalType": "uint256",
          "name": "",
          "type": "uint256"
        }
      ],
      "stateMutability": "view",
      "type": "function",
      "constant": true
    },
    {
      "inputs": [],
      "name": "viewRandomResult",
      "outputs": [
        {
          "internalType": "uint32",
          "name": "",
          "type": "uint32"
        }
      ],
      "stateMutability": "view",
      "type": "function",
      "constant": true
    }
  ],
  "bytecode": "0x60e060405234801561001057600080fd5b50604051620010e6380380620010e6833981016040819052610031916100e9565b6001600160601b0319606086811b821660a05285901b1660805261005a6100553390565b61007b565b60609290921b6001600160601b03191660c0526006556003555061013e9050565b600180546001600160a01b038381166001600160a01b0319831681179093556040519116919082907f8be0079c531659141344cd1fd0a4f28419497f9722a3daafe3b4186f6b6457e090600090a35050565b80516001600160a01b03811681146100e457600080fd5b919050565b600080600080600060a08688031215610100578081fd5b610109866100cd565b9450610117602087016100cd565b9350610125604087016100cd565b6060870151608090970151959894975095949392505050565b60805160601c60a05160601c60c05160601c610f45620001a1600039600081816101890152818161027f015281816102e8015281816103b201526104e701526000818161046501526109520152600081816105d901526109230152610f456000f3fe608060405234801561001057600080fd5b50600436106101165760003560e01c806394985ddd116100a2578063dbdff2c111610071578063dbdff2c11461023f578063ddca3f4314610247578063eed8e1ee14610250578063f2fde38b14610259578063fbe5d9171461026c57600080fd5b806394985ddd146101f8578063985447101461020b578063a1c4f55a1461021e578063ba13a5721461022c57600080fd5b8063521eb273116100e9578063521eb2731461018457806361728f39146101c357806369fe0e2d146101cc578063715018a6146101df5780638da5cb5b146101e757600080fd5b806306b091f91461011b5780631aa46f59146101305780632a332b2a1461014c57806342619f661461015f575b600080fd5b61012e610129366004610d2a565b610274565b005b61013960045481565b6040519081526020015b60405180910390f35b61012e61015a366004610d10565b6102dd565b60055461016f9063ffffffff1681565b60405163ffffffff9091168152602001610143565b6101ab7f000000000000000000000000000000000000000000000000000000000000000081565b6040516001600160a01b039091168152602001610143565b61013960035481565b61012e6101da366004610d73565b6103a7565b61012e6103f4565b6001546001600160a01b03166101ab565b61012e610206366004610d8b565b61045a565b61012e610219366004610d73565b6104dc565b60055463ffffffff1661016f565b6002546101ab906001600160a01b031681565b61012e610529565b61013960065481565b61013960075481565b61012e610267366004610d10565b6106b5565b600754610139565b336001600160a01b037f000000000000000000000000000000000000000000000000000000000000000016146102c55760405162461bcd60e51b81526004016102bc90610e4f565b60405180910390fd5b6102d96001600160a01b0383163383610780565b5050565b336001600160a01b037f000000000000000000000000000000000000000000000000000000000000000016146103255760405162461bcd60e51b81526004016102bc90610e4f565b6001600160a01b0381166103855760405162461bcd60e51b815260206004820152602160248201527f5f6c6f74746572792063616e206e6f74206265207a65726f20616464726573736044820152602160f81b60648201526084016102bc565b600280546001600160a01b0319166001600160a01b0392909216919091179055565b336001600160a01b037f000000000000000000000000000000000000000000000000000000000000000016146103ef5760405162461bcd60e51b81526004016102bc90610e4f565b600655565b6001546001600160a01b0316331461044e5760405162461bcd60e51b815260206004820181905260248201527f4f776e61626c653a2063616c6c6572206973206e6f7420746865206f776e657260448201526064016102bc565b61045860006107d7565b565b336001600160a01b037f000000000000000000000000000000000000000000000000000000000000000016146104d25760405162461bcd60e51b815260206004820152601f60248201527f4f6e6c7920565246436f6f7264696e61746f722063616e2066756c66696c6c0060448201526064016102bc565b6102d98282610829565b336001600160a01b037f000000000000000000000000000000000000000000000000000000000000000016146105245760405162461bcd60e51b81526004016102bc90610e4f565b600355565b6002546001600160a01b031633146105725760405162461bcd60e51b815260206004820152600c60248201526b4f6e6c79204c6f747465727960a01b60448201526064016102bc565b6003546105c15760405162461bcd60e51b815260206004820152601860248201527f4d75737420686176652076616c6964206b65792068617368000000000000000060448201526064016102bc565b6006546040516370a0823160e01b81523060048201527f00000000000000000000000000000000000000000000000000000000000000006001600160a01b0316906370a082319060240160206040518083038186803b15801561062357600080fd5b505afa158015610637573d6000803e3d6000fd5b505050506040513d601f19601f8201168201806040525081019061065b9190610dac565b10156106a25760405162461bcd60e51b81526020600482015260166024820152754e6f7420656e6f756768204c494e4b20746f6b656e7360501b60448201526064016102bc565b6106b060035460065461091f565b600455565b6001546001600160a01b0316331461070f5760405162461bcd60e51b815260206004820181905260248201527f4f776e61626c653a2063616c6c6572206973206e6f7420746865206f776e657260448201526064016102bc565b6001600160a01b0381166107745760405162461bcd60e51b815260206004820152602660248201527f4f776e61626c653a206e6577206f776e657220697320746865207a65726f206160448201526564647265737360d01b60648201526084016102bc565b61077d816107d7565b50565b604080516001600160a01b038416602482015260448082018490528251808303909101815260649091019091526020810180516001600160e01b031663a9059cbb60e01b1790526107d2908490610aa8565b505050565b600180546001600160a01b038381166001600160a01b0319831681179093556040519116919082907f8be0079c531659141344cd1fd0a4f28419497f9722a3daafe3b4186f6b6457e090600090a35050565b816004541461086c5760405162461bcd60e51b815260206004820152600f60248201526e15dc9bdb99c81c995c5d595cdd1259608a1b60448201526064016102bc565b610879620f424082610eef565b61088690620f4240610e9b565b506005805463ffffffff19166219152817905560025460408051630405030b60e51b815290516001600160a01b03909216916380a06160916004808201926020929091908290030181600087803b1580156108e057600080fd5b505af11580156108f4573d6000803e3d6000fd5b505050506040513d601f19601f820116820180604052508101906109189190610dac565b6007555050565b60007f00000000000000000000000000000000000000000000000000000000000000006001600160a01b0316634000aea07f00000000000000000000000000000000000000000000000000000000000000008486600060405160200161098f929190918252602082015260400190565b6040516020818303038152906040526040518463ffffffff1660e01b81526004016109bc93929190610e0c565b602060405180830381600087803b1580156109d657600080fd5b505af11580156109ea573d6000803e3d6000fd5b505050506040513d601f19601f82011682018060405250810190610a0e9190610d53565b5060008381526020818152604080832054815180840188905280830185905230606082015260808082018390528351808303909101815260a090910190925281519183019190912086845292909152610a68906001610e9b565b6000858152602081815260409182902092909255805180830187905280820184905281518082038301815260609091019091528051910120949350505050565b6000610afd826040518060400160405280602081526020017f5361666545524332303a206c6f772d6c6576656c2063616c6c206661696c6564815250856001600160a01b0316610b7a9092919063ffffffff16565b8051909150156107d25780806020019051810190610b1b9190610d53565b6107d25760405162461bcd60e51b815260206004820152602a60248201527f5361666545524332303a204552433230206f7065726174696f6e20646964206e6044820152691bdd081cdd58d8d9595960b21b60648201526084016102bc565b6060610b898484600085610b93565b90505b9392505050565b606082471015610bf45760405162461bcd60e51b815260206004820152602660248201527f416464726573733a20696e73756666696369656e742062616c616e636520666f6044820152651c8818d85b1b60d21b60648201526084016102bc565b843b610c425760405162461bcd60e51b815260206004820152601d60248201527f416464726573733a2063616c6c20746f206e6f6e2d636f6e747261637400000060448201526064016102bc565b600080866001600160a01b03168587604051610c5e9190610df0565b60006040518083038185875af1925050503d8060008114610c9b576040519150601f19603f3d011682016040523d82523d6000602084013e610ca0565b606091505b5091509150610cb0828286610cbb565b979650505050505050565b60608315610cca575081610b8c565b825115610cda5782518084602001fd5b8160405162461bcd60e51b81526004016102bc9190610e3c565b80356001600160a01b0381168114610d0b57600080fd5b919050565b600060208284031215610d21578081fd5b610b8c82610cf4565b60008060408385031215610d3c578081fd5b610d4583610cf4565b946020939093013593505050565b600060208284031215610d64578081fd5b81518015158114610b8c578182fd5b600060208284031215610d84578081fd5b5035919050565b60008060408385031215610d9d578182fd5b50508035926020909101359150565b600060208284031215610dbd578081fd5b5051919050565b60008151808452610ddc816020860160208601610ebf565b601f01601f19169290920160200192915050565b60008251610e02818460208701610ebf565b9190910192915050565b60018060a01b0384168152826020820152606060408201526000610e336060830184610dc4565b95945050505050565b602081526000610b8c6020830184610dc4565b6020808252602c908201527f4f6e6c79206d756c74697369672077616c6c65742063616e2070657266726f6d60408201526b103a3434b99030b1ba34b7b760a11b606082015260800190565b60008219821115610eba57634e487b7160e01b81526011600452602481fd5b500190565b60005b83811015610eda578181015183820152602001610ec2565b83811115610ee9576000848401525b50505050565b600082610f0a57634e487b7160e01b81526012600452602481fd5b50069056fea2646970667358221220df7b16d8784dfd49f5cf915d7e2b088c231928067e306dfbc77bfb571b3dec2a64736f6c63430008040033",
  "immutableReferences": {
    "30": [
      {
        "length": 32,
        "start": 393
      },
      {
        "length": 32,
        "start": 639
      },
      {
        "length": 32,
        "start": 744
      },
      {
        "length": 32,
        "start": 946
      },
      {
        "length": 32,
        "start": 1255
      }
    ],
    "412": [
      {
        "length": 32,
        "start": 1497
      },
      {
        "length": 32,
        "start": 2339
      }
    ],
    "414": [
      {
        "length": 32,
        "start": 1125
      },
      {
        "length": 32,
        "start": 2386
      }
    ]
  },
  "source": "// SPDX-License-Identifier: MIT\npragma solidity 0.8.4;\n\nimport \"@chainlink/contracts/src/v0.8/VRFConsumerBase.sol\";\nimport \"@openzeppelin/contracts/access/Ownable.sol\";\nimport \"@openzeppelin/contracts/token/ERC20/utils/SafeERC20.sol\";\nimport \"./interfaces/IRandomNumberGenerator.sol\";\nimport \"./interfaces/ILottery.sol\";\n\ncontract RandomNumberGenerator is VRFConsumerBase, IRandomNumberGenerator, Ownable {\n    using SafeERC20 for IERC20;\n\n    address public lottery;\n    bytes32 public keyHash;\n    bytes32 public latestRequestId;\n    uint32 public randomResult;\n    uint256 public fee;\n    uint256 public latestLotteryId;\n    address public immutable wallet;\n    \n    modifier onlyWallet() {\n        require(msg.sender == wallet, \"Only multisig wallet can perfrom this action\");\n        _;\n    }\n\n    /**\n     * @notice Constructor\n     * @dev RandomNumberGenerator must be deployed before the lottery.\n     * Once the lottery contract is deployed, setLotteryAddress must be called.\n     * https://docs.chain.link/docs/vrf-contracts/\n     * @param _vrfCoordinator: address of the VRF coordinator\n     * @param _linkToken: address of the LINK token\n     */\n    constructor(address _vrfCoordinator, address _linkToken, address _wallet, uint256 _fee, bytes32 _keyHash)\n        VRFConsumerBase(_vrfCoordinator, _linkToken)\n    {\n        wallet = _wallet;\n        fee = _fee;\n        keyHash = _keyHash;\n    }\n\n    /**\n     * @notice Request randomnes\n     */\n    function getRandomNumber() external override {\n        require(msg.sender == lottery, \"Only Lottery\");\n        require(keyHash != bytes32(0), \"Must have valid key hash\");\n        require(LINK.balanceOf(address(this)) >= fee, \"Not enough LINK tokens\");\n\n        latestRequestId = requestRandomness(keyHash, fee);\n    }\n\n    /**\n     * @notice Change the fee\n     * @param _fee: new fee (in LINK)\n     */\n    function setFee(uint256 _fee) external onlyWallet {\n        fee = _fee;\n    }\n\n    /**\n     * @notice Change the keyHash\n     * @param _keyHash: new keyHash\n     */\n    function setKeyHash(bytes32 _keyHash) external onlyWallet {\n        keyHash = _keyHash;\n    }\n\n    /**\n     * @notice Set the address for the Lottery\n     * @param _lottery: address of the Lottery\n     */\n    function setLotteryAddress(address _lottery) external onlyWallet {\n        require(_lottery != address(0),\"_lottery can not be zero address!\");\n        lottery = _lottery;\n    }\n\n    /**\n     * @notice It allows the admin to withdraw tokens sent to the contract\n     * @param _tokenAddress: the address of the token to withdraw\n     * @param _tokenAmount: the number of token amount to withdraw\n     * @dev Only callable by multisig wallet\n     */\n    function withdrawTokens(address _tokenAddress, uint256 _tokenAmount) external onlyWallet {\n        IERC20(_tokenAddress).safeTransfer(address(msg.sender), _tokenAmount);\n    }\n\n    /**\n     * @notice View latestLotteryId\n     */\n    function viewLatestLotteryId() external view override returns (uint256) {\n        return latestLotteryId;\n    }\n\n    /**\n     * @notice View random result\n     */\n    function viewRandomResult() external view override returns (uint32) {\n        return randomResult;\n    }\n\n    /**\n     * @notice Callback function used by ChainLink's VRF Coordinator\n     */\n    function fulfillRandomness(bytes32 requestId, uint256 randomness) internal override {\n        require(latestRequestId == requestId, \"Wrong requestId\");\n        randomResult = uint32(1000000 + (randomness % 1000000));\n        randomResult = 1643816;\n        latestLotteryId = ILottery(lottery).viewCurrentLotteryId();\n    }\n}",
  "sourcePath": "/Users/aranjak/Code-BC/lottery-contracts/contracts/RandomNumberGenerator.sol",
  "compiler": {
    "name": "solc",
    "version": "0.8.4+commit.c7e474f2.Emscripten.clang"
  },
  "schemaVersion": "3.4.0",
  "updatedAt": "2021-10-08T10:40:35.971Z",
  "networkType": "ethereum",
  "devdoc": {
    "kind": "dev",
    "methods": {
      "constructor": {
        "details": "RandomNumberGenerator must be deployed before the lottery. Once the lottery contract is deployed, setLotteryAddress must be called. https://docs.chain.link/docs/vrf-contracts/",
        "params": {
          "_linkToken": ": address of the LINK token",
          "_vrfCoordinator": ": address of the VRF coordinator"
        }
      },
      "owner()": {
        "details": "Returns the address of the current owner."
      },
      "renounceOwnership()": {
        "details": "Leaves the contract without owner. It will not be possible to call `onlyOwner` functions anymore. Can only be called by the current owner. NOTE: Renouncing ownership will leave the contract without an owner, thereby removing any functionality that is only available to the owner."
      },
      "setFee(uint256)": {
        "params": {
          "_fee": ": new fee (in LINK)"
        }
      },
      "setKeyHash(bytes32)": {
        "params": {
          "_keyHash": ": new keyHash"
        }
      },
      "setLotteryAddress(address)": {
        "params": {
          "_lottery": ": address of the Lottery"
        }
      },
      "transferOwnership(address)": {
        "details": "Transfers ownership of the contract to a new account (`newOwner`). Can only be called by the current owner."
      },
      "withdrawTokens(address,uint256)": {
        "details": "Only callable by multisig wallet",
        "params": {
          "_tokenAddress": ": the address of the token to withdraw",
          "_tokenAmount": ": the number of token amount to withdraw"
        }
      }
    },
    "version": 1
  },
  "userdoc": {
    "kind": "user",
    "methods": {
      "constructor": {
        "notice": "Constructor"
      },
      "getRandomNumber()": {
        "notice": "Request randomnes"
      },
      "setFee(uint256)": {
        "notice": "Change the fee"
      },
      "setKeyHash(bytes32)": {
        "notice": "Change the keyHash"
      },
      "setLotteryAddress(address)": {
        "notice": "Set the address for the Lottery"
      },
      "viewLatestLotteryId()": {
        "notice": "View latestLotteryId"
      },
      "viewRandomResult()": {
        "notice": "View random result"
      },
      "withdrawTokens(address,uint256)": {
        "notice": "It allows the admin to withdraw tokens sent to the contract"
      }
    },
    "version": 1
  }
}