{
  "contractName": "TokenLottery",
  "abi": [
    {
      "inputs": [
        {
          "internalType": "address",
          "name": "_tokenAddress",
          "type": "address"
        },
        {
          "internalType": "address",
          "name": "_randomGeneratorAddress",
          "type": "address"
        },
        {
          "internalType": "address",
          "name": "_wallet",
          "type": "address"
        },
        {
          "internalType": "address",
          "name": "_operatorAddress",
          "type": "address"
        },
        {
          "internalType": "address",
          "name": "_treasuryAddress",
          "type": "address"
        },
        {
          "internalType": "address",
          "name": "_injectorAddress",
          "type": "address"
        }
      ],
      "stateMutability": "nonpayable",
      "type": "constructor"
    },
    {
      "anonymous": false,
      "inputs": [
        {
          "indexed": false,
          "internalType": "address",
          "name": "token",
          "type": "address"
        },
        {
          "indexed": false,
          "internalType": "uint256",
          "name": "amount",
          "type": "uint256"
        }
      ],
      "name": "AdminTokenRecovery",
      "type": "event"
    },
    {
      "anonymous": false,
      "inputs": [
        {
          "indexed": true,
          "internalType": "address",
          "name": "referrer",
          "type": "address"
        },
        {
          "indexed": true,
          "internalType": "uint256",
          "name": "lotteryId",
          "type": "uint256"
        },
        {
          "indexed": false,
          "internalType": "uint256",
          "name": "reward",
          "type": "uint256"
        }
      ],
      "name": "ClaimedReward",
      "type": "event"
    },
    {
      "anonymous": false,
      "inputs": [
        {
          "indexed": true,
          "internalType": "address",
          "name": "buyer",
          "type": "address"
        },
        {
          "indexed": true,
          "internalType": "uint256",
          "name": "lotteryId",
          "type": "uint256"
        },
        {
          "indexed": false,
          "internalType": "uint256",
          "name": "numberTickets",
          "type": "uint256"
        }
      ],
      "name": "FreeTicketsGiven",
      "type": "event"
    },
    {
      "anonymous": false,
      "inputs": [
        {
          "indexed": true,
          "internalType": "uint256",
          "name": "lotteryId",
          "type": "uint256"
        },
        {
          "indexed": false,
          "internalType": "uint256",
          "name": "firstTicketIdNextLottery",
          "type": "uint256"
        }
      ],
      "name": "LotteryClose",
      "type": "event"
    },
    {
      "anonymous": false,
      "inputs": [
        {
          "indexed": true,
          "internalType": "uint256",
          "name": "lotteryId",
          "type": "uint256"
        },
        {
          "indexed": false,
          "internalType": "uint256",
          "name": "injectedAmount",
          "type": "uint256"
        }
      ],
      "name": "LotteryInjection",
      "type": "event"
    },
    {
      "anonymous": false,
      "inputs": [
        {
          "indexed": true,
          "internalType": "uint256",
          "name": "lotteryId",
          "type": "uint256"
        },
        {
          "indexed": false,
          "internalType": "uint256",
          "name": "finalNumber",
          "type": "uint256"
        },
        {
          "indexed": false,
          "internalType": "uint256",
          "name": "countWinningTickets",
          "type": "uint256"
        }
      ],
      "name": "LotteryNumberDrawn",
      "type": "event"
    },
    {
      "anonymous": false,
      "inputs": [
        {
          "indexed": true,
          "internalType": "uint256",
          "name": "lotteryId",
          "type": "uint256"
        },
        {
          "indexed": false,
          "internalType": "uint256",
          "name": "startTime",
          "type": "uint256"
        },
        {
          "indexed": false,
          "internalType": "uint256",
          "name": "endTime",
          "type": "uint256"
        },
        {
          "indexed": false,
          "internalType": "uint256",
          "name": "priceTicketInTokens",
          "type": "uint256"
        },
        {
          "indexed": false,
          "internalType": "uint256",
          "name": "firstTicketId",
          "type": "uint256"
        },
        {
          "indexed": false,
          "internalType": "uint256",
          "name": "injectedAmount",
          "type": "uint256"
        }
      ],
      "name": "LotteryOpen",
      "type": "event"
    },
    {
      "anonymous": false,
      "inputs": [
        {
          "indexed": false,
          "internalType": "address",
          "name": "operator",
          "type": "address"
        },
        {
          "indexed": false,
          "internalType": "address",
          "name": "treasury",
          "type": "address"
        },
        {
          "indexed": false,
          "internalType": "address",
          "name": "injector",
          "type": "address"
        }
      ],
      "name": "NewOperatorAndTreasuryAndInjectorAddresses",
      "type": "event"
    },
    {
      "anonymous": false,
      "inputs": [
        {
          "indexed": true,
          "internalType": "address",
          "name": "randomGenerator",
          "type": "address"
        }
      ],
      "name": "NewRandomGenerator",
      "type": "event"
    },
    {
      "anonymous": false,
      "inputs": [
        {
          "indexed": true,
          "internalType": "address",
          "name": "previousOwner",
          "type": "address"
        },
        {
          "indexed": true,
          "internalType": "address",
          "name": "newOwner",
          "type": "address"
        }
      ],
      "name": "OwnershipTransferred",
      "type": "event"
    },
    {
      "anonymous": false,
      "inputs": [
        {
          "indexed": true,
          "internalType": "address",
          "name": "referrer",
          "type": "address"
        },
        {
          "indexed": true,
          "internalType": "address",
          "name": "referral",
          "type": "address"
        },
        {
          "indexed": true,
          "internalType": "uint256",
          "name": "currentLotteryId",
          "type": "uint256"
        },
        {
          "indexed": false,
          "internalType": "uint256",
          "name": "referrerReward",
          "type": "uint256"
        }
      ],
      "name": "ReferrerRewardsAccrued",
      "type": "event"
    },
    {
      "anonymous": false,
      "inputs": [
        {
          "indexed": true,
          "internalType": "address",
          "name": "referral",
          "type": "address"
        },
        {
          "indexed": true,
          "internalType": "address",
          "name": "referrer",
          "type": "address"
        }
      ],
      "name": "RegisteredReferer",
      "type": "event"
    },
    {
      "anonymous": false,
      "inputs": [
        {
          "indexed": true,
          "internalType": "address",
          "name": "claimer",
          "type": "address"
        },
        {
          "indexed": false,
          "internalType": "uint256",
          "name": "amount",
          "type": "uint256"
        },
        {
          "indexed": true,
          "internalType": "uint256",
          "name": "lotteryId",
          "type": "uint256"
        },
        {
          "indexed": false,
          "internalType": "uint256",
          "name": "numberTickets",
          "type": "uint256"
        }
      ],
      "name": "TicketsClaim",
      "type": "event"
    },
    {
      "anonymous": false,
      "inputs": [
        {
          "indexed": true,
          "internalType": "address",
          "name": "buyer",
          "type": "address"
        },
        {
          "indexed": true,
          "internalType": "uint256",
          "name": "lotteryId",
          "type": "uint256"
        },
        {
          "indexed": false,
          "internalType": "uint256",
          "name": "numberTickets",
          "type": "uint256"
        }
      ],
      "name": "TicketsPurchase",
      "type": "event"
    },
    {
      "inputs": [],
      "name": "MAX_LENGTH_LOTTERY",
      "outputs": [
        {
          "internalType": "uint256",
          "name": "",
          "type": "uint256"
        }
      ],
      "stateMutability": "view",
      "type": "function",
      "constant": true
    },
    {
      "inputs": [],
      "name": "MAX_TREASURY_FEE",
      "outputs": [
        {
          "internalType": "uint256",
          "name": "",
          "type": "uint256"
        }
      ],
      "stateMutability": "view",
      "type": "function",
      "constant": true
    },
    {
      "inputs": [],
      "name": "MIN_DISCOUNT_DIVISOR",
      "outputs": [
        {
          "internalType": "uint256",
          "name": "",
          "type": "uint256"
        }
      ],
      "stateMutability": "view",
      "type": "function",
      "constant": true
    },
    {
      "inputs": [],
      "name": "MIN_LENGTH_LOTTERY",
      "outputs": [
        {
          "internalType": "uint256",
          "name": "",
          "type": "uint256"
        }
      ],
      "stateMutability": "view",
      "type": "function",
      "constant": true
    },
    {
      "inputs": [],
      "name": "currentLotteryId",
      "outputs": [
        {
          "internalType": "uint256",
          "name": "",
          "type": "uint256"
        }
      ],
      "stateMutability": "view",
      "type": "function",
      "constant": true
    },
    {
      "inputs": [],
      "name": "currentTicketId",
      "outputs": [
        {
          "internalType": "uint256",
          "name": "",
          "type": "uint256"
        }
      ],
      "stateMutability": "view",
      "type": "function",
      "constant": true
    },
    {
      "inputs": [],
      "name": "discounter",
      "outputs": [
        {
          "internalType": "contract IDiscounter",
          "name": "",
          "type": "address"
        }
      ],
      "stateMutability": "view",
      "type": "function",
      "constant": true
    },
    {
      "inputs": [],
      "name": "injectorAddress",
      "outputs": [
        {
          "internalType": "address",
          "name": "",
          "type": "address"
        }
      ],
      "stateMutability": "view",
      "type": "function",
      "constant": true
    },
    {
      "inputs": [],
      "name": "maxNumberTicketsPerBuyOrClaim",
      "outputs": [
        {
          "internalType": "uint256",
          "name": "",
          "type": "uint256"
        }
      ],
      "stateMutability": "view",
      "type": "function",
      "constant": true
    },
    {
      "inputs": [],
      "name": "maxPriceTicketInTokens",
      "outputs": [
        {
          "internalType": "uint256",
          "name": "",
          "type": "uint256"
        }
      ],
      "stateMutability": "view",
      "type": "function",
      "constant": true
    },
    {
      "inputs": [],
      "name": "minPriceTicketInTokens",
      "outputs": [
        {
          "internalType": "uint256",
          "name": "",
          "type": "uint256"
        }
      ],
      "stateMutability": "view",
      "type": "function",
      "constant": true
    },
    {
      "inputs": [],
      "name": "operatorAddress",
      "outputs": [
        {
          "internalType": "address",
          "name": "",
          "type": "address"
        }
      ],
      "stateMutability": "view",
      "type": "function",
      "constant": true
    },
    {
      "inputs": [],
      "name": "owner",
      "outputs": [
        {
          "internalType": "address",
          "name": "",
          "type": "address"
        }
      ],
      "stateMutability": "view",
      "type": "function",
      "constant": true
    },
    {
      "inputs": [],
      "name": "partnerAddress",
      "outputs": [
        {
          "internalType": "address",
          "name": "",
          "type": "address"
        }
      ],
      "stateMutability": "view",
      "type": "function",
      "constant": true
    },
    {
      "inputs": [],
      "name": "partnerPercent",
      "outputs": [
        {
          "internalType": "uint256",
          "name": "",
          "type": "uint256"
        }
      ],
      "stateMutability": "view",
      "type": "function",
      "constant": true
    },
    {
      "inputs": [],
      "name": "pendingInjectionNextLottery",
      "outputs": [
        {
          "internalType": "uint256",
          "name": "",
          "type": "uint256"
        }
      ],
      "stateMutability": "view",
      "type": "function",
      "constant": true
    },
    {
      "inputs": [],
      "name": "randomGenerator",
      "outputs": [
        {
          "internalType": "contract IRandomNumberGenerator",
          "name": "",
          "type": "address"
        }
      ],
      "stateMutability": "view",
      "type": "function",
      "constant": true
    },
    {
      "inputs": [
        {
          "internalType": "address",
          "name": "",
          "type": "address"
        }
      ],
      "name": "referrals",
      "outputs": [
        {
          "internalType": "address",
          "name": "",
          "type": "address"
        }
      ],
      "stateMutability": "view",
      "type": "function",
      "constant": true
    },
    {
      "inputs": [],
      "name": "referrerRewardPercentage",
      "outputs": [
        {
          "internalType": "uint256",
          "name": "",
          "type": "uint256"
        }
      ],
      "stateMutability": "view",
      "type": "function",
      "constant": true
    },
    {
      "inputs": [
        {
          "internalType": "address",
          "name": "",
          "type": "address"
        }
      ],
      "name": "referrers",
      "outputs": [
        {
          "internalType": "uint256",
          "name": "referralsCount",
          "type": "uint256"
        }
      ],
      "stateMutability": "view",
      "type": "function",
      "constant": true
    },
    {
      "inputs": [
        {
          "internalType": "address",
          "name": "",
          "type": "address"
        },
        {
          "internalType": "uint256",
          "name": "",
          "type": "uint256"
        }
      ],
      "name": "referrersRewards",
      "outputs": [
        {
          "internalType": "uint256",
          "name": "",
          "type": "uint256"
        }
      ],
      "stateMutability": "view",
      "type": "function",
      "constant": true
    },
    {
      "inputs": [],
      "name": "renounceOwnership",
      "outputs": [],
      "stateMutability": "nonpayable",
      "type": "function"
    },
    {
      "inputs": [],
      "name": "token",
      "outputs": [
        {
          "internalType": "contract IERC20",
          "name": "",
          "type": "address"
        }
      ],
      "stateMutability": "view",
      "type": "function",
      "constant": true
    },
    {
      "inputs": [
        {
          "internalType": "uint256",
          "name": "",
          "type": "uint256"
        }
      ],
      "name": "totalRoundReferrerRewards",
      "outputs": [
        {
          "internalType": "uint256",
          "name": "",
          "type": "uint256"
        }
      ],
      "stateMutability": "view",
      "type": "function",
      "constant": true
    },
    {
      "inputs": [
        {
          "internalType": "address",
          "name": "newOwner",
          "type": "address"
        }
      ],
      "name": "transferOwnership",
      "outputs": [],
      "stateMutability": "nonpayable",
      "type": "function"
    },
    {
      "inputs": [],
      "name": "treasuryAddress",
      "outputs": [
        {
          "internalType": "address",
          "name": "",
          "type": "address"
        }
      ],
      "stateMutability": "view",
      "type": "function",
      "constant": true
    },
    {
      "inputs": [],
      "name": "wallet",
      "outputs": [
        {
          "internalType": "address",
          "name": "",
          "type": "address"
        }
      ],
      "stateMutability": "view",
      "type": "function",
      "constant": true
    },
    {
      "inputs": [
        {
          "internalType": "uint256",
          "name": "_lotteryId",
          "type": "uint256"
        },
        {
          "internalType": "uint32[]",
          "name": "_ticketNumbers",
          "type": "uint32[]"
        },
        {
          "internalType": "address",
          "name": "referrer",
          "type": "address"
        }
      ],
      "name": "buyTickets",
      "outputs": [],
      "stateMutability": "nonpayable",
      "type": "function"
    },
    {
      "inputs": [
        {
          "internalType": "uint256",
          "name": "_lotteryId",
          "type": "uint256"
        },
        {
          "internalType": "uint256[]",
          "name": "_ticketIds",
          "type": "uint256[]"
        },
        {
          "internalType": "uint32[]",
          "name": "_brackets",
          "type": "uint32[]"
        }
      ],
      "name": "claimTickets",
      "outputs": [],
      "stateMutability": "nonpayable",
      "type": "function"
    },
    {
      "inputs": [
        {
          "internalType": "uint256",
          "name": "_lotteryId",
          "type": "uint256"
        }
      ],
      "name": "closeLottery",
      "outputs": [],
      "stateMutability": "nonpayable",
      "type": "function"
    },
    {
      "inputs": [
        {
          "internalType": "uint256",
          "name": "_lotteryId",
          "type": "uint256"
        },
        {
          "internalType": "bool",
          "name": "_autoInjection",
          "type": "bool"
        }
      ],
      "name": "drawFinalNumberAndMakeLotteryClaimable",
      "outputs": [],
      "stateMutability": "nonpayable",
      "type": "function"
    },
    {
      "inputs": [
        {
          "internalType": "address",
          "name": "_randomGeneratorAddress",
          "type": "address"
        }
      ],
      "name": "changeRandomGenerator",
      "outputs": [],
      "stateMutability": "nonpayable",
      "type": "function"
    },
    {
      "inputs": [
        {
          "internalType": "uint256",
          "name": "_lotteryId",
          "type": "uint256"
        },
        {
          "internalType": "uint256",
          "name": "_amount",
          "type": "uint256"
        }
      ],
      "name": "injectFunds",
      "outputs": [],
      "stateMutability": "nonpayable",
      "type": "function"
    },
    {
      "inputs": [
        {
          "internalType": "uint256",
          "name": "_endTime",
          "type": "uint256"
        },
        {
          "internalType": "uint256",
          "name": "_priceTicketInTokens",
          "type": "uint256"
        },
        {
          "internalType": "uint256",
          "name": "_discountDivisor",
          "type": "uint256"
        },
        {
          "internalType": "uint256[6]",
          "name": "_rewardsBreakdown",
          "type": "uint256[6]"
        },
        {
          "internalType": "uint256",
          "name": "_treasuryFee",
          "type": "uint256"
        }
      ],
      "name": "startLottery",
      "outputs": [],
      "stateMutability": "nonpayable",
      "type": "function"
    },
    {
      "inputs": [
        {
          "internalType": "address",
          "name": "_tokenAddress",
          "type": "address"
        },
        {
          "internalType": "uint256",
          "name": "_tokenAmount",
          "type": "uint256"
        }
      ],
      "name": "recoverWrongTokens",
      "outputs": [],
      "stateMutability": "nonpayable",
      "type": "function"
    },
    {
      "inputs": [
        {
          "internalType": "uint256",
          "name": "_minPriceTicketInTokens",
          "type": "uint256"
        },
        {
          "internalType": "uint256",
          "name": "_maxPriceTicketInTokens",
          "type": "uint256"
        }
      ],
      "name": "setMinAndMaxTicketPriceInTokens",
      "outputs": [],
      "stateMutability": "nonpayable",
      "type": "function"
    },
    {
      "inputs": [
        {
          "internalType": "uint256",
          "name": "_maxNumberTicketsPerBuy",
          "type": "uint256"
        }
      ],
      "name": "setMaxNumberTicketsPerBuy",
      "outputs": [],
      "stateMutability": "nonpayable",
      "type": "function"
    },
    {
      "inputs": [
        {
          "internalType": "address",
          "name": "_operatorAddress",
          "type": "address"
        },
        {
          "internalType": "address",
          "name": "_treasuryAddress",
          "type": "address"
        },
        {
          "internalType": "address",
          "name": "_injectorAddress",
          "type": "address"
        }
      ],
      "name": "setOperatorAndTreasuryAndInjectorAddresses",
      "outputs": [],
      "stateMutability": "nonpayable",
      "type": "function"
    },
    {
      "inputs": [
        {
          "internalType": "address",
          "name": "_partnerAddress",
          "type": "address"
        },
        {
          "internalType": "uint256",
          "name": "_partnerPercent",
          "type": "uint256"
        }
      ],
      "name": "setPartnerAndFee",
      "outputs": [],
      "stateMutability": "nonpayable",
      "type": "function"
    },
    {
      "inputs": [
        {
          "internalType": "address",
          "name": "_discounterAddress",
          "type": "address"
        }
      ],
      "name": "setDiscounter",
      "outputs": [],
      "stateMutability": "nonpayable",
      "type": "function"
    },
    {
      "inputs": [
        {
          "internalType": "uint256",
          "name": "_discountDivisor",
          "type": "uint256"
        },
        {
          "internalType": "uint256",
          "name": "_priceTicket",
          "type": "uint256"
        },
        {
          "internalType": "uint256",
          "name": "_numberTickets",
          "type": "uint256"
        }
      ],
      "name": "calculateTotalPriceForBulkTickets",
      "outputs": [
        {
          "internalType": "uint256",
          "name": "",
          "type": "uint256"
        }
      ],
      "stateMutability": "view",
      "type": "function",
      "constant": true
    },
    {
      "inputs": [],
      "name": "viewCurrentLotteryId",
      "outputs": [
        {
          "internalType": "uint256",
          "name": "",
          "type": "uint256"
        }
      ],
      "stateMutability": "view",
      "type": "function",
      "constant": true
    },
    {
      "inputs": [
        {
          "internalType": "uint256",
          "name": "_lotteryId",
          "type": "uint256"
        }
      ],
      "name": "viewLottery",
      "outputs": [
        {
          "components": [
            {
              "internalType": "enum TokenLottery.Status",
              "name": "status",
              "type": "uint8"
            },
            {
              "internalType": "uint256",
              "name": "startTime",
              "type": "uint256"
            },
            {
              "internalType": "uint256",
              "name": "endTime",
              "type": "uint256"
            },
            {
              "internalType": "uint256",
              "name": "priceTicketInTokens",
              "type": "uint256"
            },
            {
              "internalType": "uint256",
              "name": "discountDivisor",
              "type": "uint256"
            },
            {
              "internalType": "uint256[6]",
              "name": "rewardsBreakdown",
              "type": "uint256[6]"
            },
            {
              "internalType": "uint256",
              "name": "treasuryFee",
              "type": "uint256"
            },
            {
              "internalType": "uint256[6]",
              "name": "tokensPerBracket",
              "type": "uint256[6]"
            },
            {
              "internalType": "uint256[6]",
              "name": "countWinnersPerBracket",
              "type": "uint256[6]"
            },
            {
              "internalType": "uint256",
              "name": "firstTicketId",
              "type": "uint256"
            },
            {
              "internalType": "uint256",
              "name": "firstTicketIdNextLottery",
              "type": "uint256"
            },
            {
              "internalType": "uint256",
              "name": "amountCollectedInTokens",
              "type": "uint256"
            },
            {
              "internalType": "uint32",
              "name": "finalNumber",
              "type": "uint32"
            }
          ],
          "internalType": "struct TokenLottery.Lottery",
          "name": "",
          "type": "tuple"
        }
      ],
      "stateMutability": "view",
      "type": "function",
      "constant": true
    },
    {
      "inputs": [
        {
          "internalType": "uint256[]",
          "name": "_ticketIds",
          "type": "uint256[]"
        }
      ],
      "name": "viewNumbersAndStatusesForTicketIds",
      "outputs": [
        {
          "internalType": "uint32[]",
          "name": "",
          "type": "uint32[]"
        },
        {
          "internalType": "bool[]",
          "name": "",
          "type": "bool[]"
        }
      ],
      "stateMutability": "view",
      "type": "function",
      "constant": true
    },
    {
      "inputs": [
        {
          "internalType": "uint256",
          "name": "_lotteryId",
          "type": "uint256"
        },
        {
          "internalType": "uint256",
          "name": "_ticketId",
          "type": "uint256"
        },
        {
          "internalType": "uint32",
          "name": "_bracket",
          "type": "uint32"
        }
      ],
      "name": "viewRewardsForTicketId",
      "outputs": [
        {
          "internalType": "uint256",
          "name": "",
          "type": "uint256"
        }
      ],
      "stateMutability": "view",
      "type": "function",
      "constant": true
    },
    {
      "inputs": [
        {
          "internalType": "address",
          "name": "_user",
          "type": "address"
        },
        {
          "internalType": "uint256",
          "name": "_lotteryId",
          "type": "uint256"
        },
        {
          "internalType": "uint256",
          "name": "_cursor",
          "type": "uint256"
        },
        {
          "internalType": "uint256",
          "name": "_size",
          "type": "uint256"
        }
      ],
      "name": "viewUserInfoForLotteryId",
      "outputs": [
        {
          "internalType": "uint256[]",
          "name": "",
          "type": "uint256[]"
        },
        {
          "internalType": "uint32[]",
          "name": "",
          "type": "uint32[]"
        },
        {
          "internalType": "bool[]",
          "name": "",
          "type": "bool[]"
        },
        {
          "internalType": "uint256",
          "name": "",
          "type": "uint256"
        }
      ],
      "stateMutability": "view",
      "type": "function",
      "constant": true
    },
    {
      "inputs": [
        {
          "internalType": "address",
          "name": "addr",
          "type": "address"
        }
      ],
      "name": "hasReferrer",
      "outputs": [
        {
          "internalType": "bool",
          "name": "",
          "type": "bool"
        }
      ],
      "stateMutability": "view",
      "type": "function",
      "constant": true
    },
    {
      "inputs": [
        {
          "internalType": "uint256",
          "name": "lotteryId",
          "type": "uint256"
        }
      ],
      "name": "claimRewards",
      "outputs": [],
      "stateMutability": "nonpayable",
      "type": "function"
    },
    {
      "inputs": [
        {
          "internalType": "uint256",
          "name": "percent",
          "type": "uint256"
        }
      ],
      "name": "updateReferrersPercentage",
      "outputs": [],
      "stateMutability": "nonpayable",
      "type": "function"
    }
  ],
  "bytecode": "0x60a06040526064600855683635c9adc5dea000006009556611c37937e08000600a553480156200002e57600080fd5b506040516200482a3803806200482a833981016040819052620000519162000262565b60016000556200006133620001f3565b600d80546001600160a01b039788166001600160a01b031991821617909155600e80549688169682169690961790955560126020527f7e7fa33969761a458e04f477e039a608702b4f924981d6653935a8319a08ad7b805463ffffffff199081166001179091557f71a67924699a20698523213e55fe499d539379d7769cd5567e2c45d583f815a380548216600b1790557f8e1fee8c88a9e04123b21e90cae2727a7715bf522a1e46eb5934ccd05203a6b280548216606f1790557f0f36ad39aee03e7108cc48f54934702a5f0d4066f10344cebf8198978d86976a805482166104571790557fb4fcd034df3d20faa1c133b66d862ce92732727d40916b48ffb4020cb00fe05380548216612b6717905560056000527f45429b9195d4ec5c0cf6c69e9c21a4ca0ea773b702c2de5735f85d2631f2674680549091166201b2071790556001600160601b031960609490941b939093166080526003805492861692851692909217909155600480549185169184169190911790556002805491909316911617905560c8601555620002e2565b600180546001600160a01b038381166001600160a01b0319831681179093556040519116919082907f8be0079c531659141344cd1fd0a4f28419497f9722a3daafe3b4186f6b6457e090600090a35050565b80516001600160a01b03811681146200025d57600080fd5b919050565b60008060008060008060c087890312156200027b578182fd5b620002868762000245565b9550620002966020880162000245565b9450620002a66040880162000245565b9350620002b66060880162000245565b9250620002c66080880162000245565b9150620002d660a0880162000245565b90509295509295509295565b60805160601c6144f1620003396000396000818161044401528181611475015281816116c601528181611a1101528181611aa301528181613096015281816131d401528181613284015261332701526144f16000f3fe608060405234801561001057600080fd5b50600436106102bb5760003560e01c8063830eec5911610182578063c5f956af116100e9578063dd103a5e116100a2578063f2b3c8091161007c578063f2b3c8091461067f578063f2fde38b14610688578063f4fe62af1461069b578063fc0c546a146106a457600080fd5b8063dd103a5e14610646578063e992018114610659578063efb906ea1461066c57600080fd5b8063c5f956af146105c5578063c914914f146105d8578063cd3193eb146105eb578063da4ca03914610616578063db19da0d14610629578063dcbad90d1461063357600080fd5b80639c3846531161013b5780639c3846531461053d5780639ca423b3146105505780639d8ca53114610579578063b1829b821461058c578063c38de5391461059f578063c4937ab9146105b257600080fd5b8063830eec59146104c95780638da5cb5b146104dc5780638e4a2394146104ed5780638fc3539a146104f657806392e7bc3d1461051757806398359fa11461052a57600080fd5b8063471aeab411610226578063686465b8116101df578063686465b81461048b5780636b873788146104945780636be4097c146104a7578063715018a6146104b05780637cb583bd146104b857806380a06160146104c157600080fd5b8063471aeab41461040c5780634a3b68cc1461041f578063521eb2731461043f57806353d5ec9414610466578063576168fc1461046f57806360f6ff961461048257600080fd5b806318452cd81161027857806318452cd81461035f5780631fe86c6b1461039d5780632423807a146103a65780632e530cae146103c6578063348da9f7146103d95780633f138d4b146103f957600080fd5b806305531eeb146102c057806307720da3146102ec57806307fb5a9c146103015780630962ef7914610318578063127effb21461032b57806312a9769d14610356575b600080fd5b6102d36102ce366004613bee565b6106b7565b6040516102e39493929190613f8f565b60405180910390f35b6102ff6102fa366004613d29565b610a2f565b005b61030a61038481565b6040519081526020016102e3565b6102ff610326366004613c82565b611156565b60035461033e906001600160a01b031681565b6040516001600160a01b0390911681526020016102e3565b61030a600b5481565b61038d61036d366004613b69565b6001600160a01b0390811660009081526016602052604090205416151590565b60405190151581526020016102e3565b61030a60085481565b6103b96103b4366004613c82565b611259565b6040516102e3919061413d565b61030a6103d4366004613e4d565b6113d6565b61030a6103e7366004613c82565b60196020526000908152604090205481565b6102ff610407366004613bc5565b61146a565b6102ff61041a366004613db4565b61156a565b61030a61042d366004613b69565b60176020526000908152604090205481565b61033e7f000000000000000000000000000000000000000000000000000000000000000081565b61030a600c5481565b60055461033e906001600160a01b031681565b61030a60095481565b61030a60075481565b6102ff6104a2366004613c82565b6116bb565b61030a60065481565b6102ff611784565b61030a61012c81565b60065461030a565b600f5461033e906001600160a01b031681565b6001546001600160a01b031661033e565b61030a60155481565b610509610504366004613c26565b6117ea565b6040516102e3929190614003565b6102ff610525366004613c82565b611a06565b6102ff610538366004613b69565b611a98565b60025461033e906001600160a01b031681565b61033e61055e366004613b69565b6016602052600090815260409020546001600160a01b031681565b6102ff610587366004613c82565b611c72565b6102ff61059a366004613e00565b611e55565b6102ff6105ad366004613d85565b61235b565b61030a6105c0366004613dd5565b612a16565b60045461033e906001600160a01b031681565b6102ff6105e6366004613cb2565b612ace565b61030a6105f9366004613bc5565b601860209081526000928352604080842090915290825290205481565b6102ff610624366004613b83565b61308b565b61030a6205472c81565b600e5461033e906001600160a01b031681565b6102ff610654366004613bc5565b6131c9565b6102ff610667366004613db4565b613279565b6102ff61067a366004613b69565b61331c565b61030a610bb881565b6102ff610696366004613b69565b613386565b61030a600a5481565b600d5461033e906001600160a01b031681565b6001600160a01b0384166000908152601460209081526040808320868452909152812054606091829182919085906106ef88826143a5565b8211156107035761070088826143a5565b91505b60008267ffffffffffffffff81111561072c57634e487b7160e01b600052604160045260246000fd5b604051908082528060200260200182016040528015610755578160200160208202803683370190505b50905060008367ffffffffffffffff81111561078157634e487b7160e01b600052604160045260246000fd5b6040519080825280602002602001820160405280156107aa578160200160208202803683370190505b50905060008467ffffffffffffffff8111156107d657634e487b7160e01b600052604160045260246000fd5b6040519080825280602002602001820160405280156107ff578160200160208202803683370190505b50905060005b85811015610a0957601460008f6001600160a01b03166001600160a01b0316815260200190815260200160002060008e81526020019081526020016000208c8261084f9190614200565b8154811061086d57634e487b7160e01b600052603260045260246000fd5b906000526020600020015484828151811061089857634e487b7160e01b600052603260045260246000fd5b602002602001018181525050601160008583815181106108c857634e487b7160e01b600052603260045260246000fd5b6020026020010151815260200190815260200160002060000160009054906101000a900463ffffffff1683828151811061091257634e487b7160e01b600052603260045260246000fd5b602002602001019063ffffffff16908163ffffffff168152505060006001600160a01b03166011600086848151811061095b57634e487b7160e01b600052603260045260246000fd5b60209081029190910181015182528101919091526040016000205464010000000090046001600160a01b031614156109c45760018282815181106109af57634e487b7160e01b600052603260045260246000fd5b911515602092830291909101909101526109f7565b60008282815181106109e657634e487b7160e01b600052603260045260246000fd5b911515602092830291909101909101525b80610a018161440d565b915050610805565b50828282610a17888f614200565b98509850985098505050505050945094509450949050565b333b15610a7a5760405162461bcd60e51b815260206004820152601460248201527310dbdb9d1c9858dd081b9bdd08185b1b1bddd95960621b60448201526064015b60405180910390fd5b333214610ac95760405162461bcd60e51b815260206004820152601a60248201527f50726f787920636f6e7472616374206e6f7420616c6c6f7765640000000000006044820152606401610a71565b60026000541415610aec5760405162461bcd60e51b8152600401610a71906140e0565b600260005581610b345760405162461bcd60e51b8152602060048201526013602482015272139bc81d1a58dad95d081cdc1958da599a5959606a1b6044820152606401610a71565b600854821115610b795760405162461bcd60e51b815260206004820152601060248201526f546f6f206d616e79207469636b65747360801b6044820152606401610a71565b600160008581526010602052604090205460ff166003811115610bac57634e487b7160e01b600052602160045260246000fd5b14610bef5760405162461bcd60e51b81526020600482015260136024820152722637ba3a32b93c9034b9903737ba1037b832b760691b6044820152606401610a71565b6000848152601060205260409020600201544210610c415760405162461bcd60e51b815260206004820152600f60248201526e2637ba3a32b93c9034b99037bb32b960891b6044820152606401610a71565b600084815260106020526040812060048101546003909101548291610c669186613451565b600d549193509150610c83906001600160a01b031633308561353d565b6000868152601060205260408120601a018054849290610ca4908490614200565b90915550600090505b84811015610fd5576000868683818110610cd757634e487b7160e01b600052603260045260246000fd5b9050602002016020810190610cec9190613e85565b9050620f42408163ffffffff1610158015610d105750621e847f8163ffffffff1611155b610d4c5760405162461bcd60e51b815260206004820152600d60248201526c4f7574736964652072616e676560981b6044820152606401610a71565b600088815260136020526040812090610d66600a8461444c565b610d71906001614218565b63ffffffff16815260208101919091526040016000908120805491610d958361440d565b9091555050600088815260136020526040812090610db460648461444c565b610dbf90600b614218565b63ffffffff16815260208101919091526040016000908120805491610de38361440d565b9091555050600088815260136020526040812090610e036103e88461444c565b610e0e90606f614218565b63ffffffff16815260208101919091526040016000908120805491610e328361440d565b9091555050600088815260136020526040812090610e526127108461444c565b610e5e90610457614218565b63ffffffff16815260208101919091526040016000908120805491610e828361440d565b9091555050600088815260136020526040812090610ea3620186a08461444c565b610eaf90612b67614218565b63ffffffff16815260208101919091526040016000908120805491610ed38361440d565b9091555050600088815260136020526040812090610ef4620f42408461444c565b610f01906201b207614218565b63ffffffff16815260208101919091526040016000908120805491610f258361440d565b90915550503360008181526014602090815260408083208c84528252808320600780548254600181018455928652848620909201919091558151808301835263ffffffff80881682528185019687528254865260119094529184209151825495516001600160a01b0316640100000000026001600160c01b03199096169316929092179390931790925581549190610fbc8361440d565b9190505550508080610fcd9061440d565b915050610cad565b50604051848152869033907fd7d247b583de1023852eef87b48f54354dbec771d01bc2cc49e96094efc322b99060200160405180910390a3801561104c5760065460405182815233907f4186cffa8302bdac9c3f19bfb8dd2f673d9466069d5b86f742f563ffed5094999060200160405180910390a35b6001600160a01b0383161561106457611064836135ae565b336000908152601660205260409020546001600160a01b031615611149576000612710601554846110959190614386565b61109f9190614240565b6001600160a01b038516600090815260186020908152604080832060065484529091528120805492935083929091906110d9908490614200565b9091555050600654600090815260196020526040812080548392906110ff908490614200565b909155505060065460405182815233906001600160a01b038716907fd69ad88904554f977a49fb4415a8bb50637f385e6f5904f331ac177a0ef31ca19060200160405180910390a4505b5050600160005550505050565b600260005414156111795760405162461bcd60e51b8152600401610a71906140e0565b60026000908155338152601860209081526040808320848452909152902054806111e55760405162461bcd60e51b815260206004820181905260248201527f6e6f207265776172647320666f722073656c6563746564206c6f7474657279216044820152606401610a71565b336000818152601860209081526040808320868452909152812055600d54611219916001600160a01b0390911690836136df565b604051818152829033907f36e1b0f1ba5690c4228e83c53aab47613bb01e8da541704a6d86bc33c2b054cf9060200160405180910390a350506001600055565b611261613a18565b6000828152601060205260409081902081516101a081019092528054829060ff1660038111156112a157634e487b7160e01b600052602160045260246000fd5b60038111156112c057634e487b7160e01b600052602160045260246000fd5b81526001820154602082015260028201546040808301919091526003830154606083015260048301546080830152805160c081019182905260a09092019190600584019060069082845b81548152602001906001019080831161130a575050509183525050600b82015460208201526040805160c081018252910190600c830160068282826020028201915b81548152602001906001019080831161134c5750505091835250506040805160c081019182905260209092019190601284019060069082845b8154815260200190600101908083116113855750505091835250506018820154602082015260198201546040820152601a8201546060820152601b9091015463ffffffff1660809091015292915050565b6000600360008581526010602052604090205460ff16600381111561140b57634e487b7160e01b600052602160045260246000fd5b1461141857506000611463565b60008481526010602052604090206019015483101580611448575060008481526010602052604090206018015483105b1561145557506000611463565b611460848484613714565b90505b9392505050565b336001600160a01b037f000000000000000000000000000000000000000000000000000000000000000016146114b25760405162461bcd60e51b8152600401610a7190614064565b600d546001600160a01b03838116911614156115105760405162461bcd60e51b815260206004820152601760248201527f43616e6e6f74206265206c6f747465727920746f6b656e0000000000000000006044820152606401610a71565b6115246001600160a01b03831633836136df565b604080516001600160a01b0384168152602081018390527f74545154aac348a3eac92596bd1971957ca94795f4e954ec5f613b55fab78129910160405180910390a15050565b6001546001600160a01b031633148061158d57506002546001600160a01b031633145b6115d15760405162461bcd60e51b81526020600482015260156024820152742737ba1037bbb732b91037b91034b73532b1ba37b960591b6044820152606401610a71565b600160008381526010602052604090205460ff16600381111561160457634e487b7160e01b600052602160045260246000fd5b146116445760405162461bcd60e51b815260206004820152601060248201526f2637ba3a32b93c903737ba1037b832b760811b6044820152606401610a71565b600d5461165c906001600160a01b031633308461353d565b6000828152601060205260408120601a01805483929061167d908490614200565b909155505060405181815282907f1bbd659dd628a25f7ff2eabb69c74a56939c539728282275c1c9c1a2d3e340499060200160405180910390a25050565b336001600160a01b037f000000000000000000000000000000000000000000000000000000000000000016146117035760405162461bcd60e51b8152600401610a7190614064565b8061173e5760405162461bcd60e51b815260206004820152600b60248201526a04d757374206265203e20360ac1b6044820152606401610a71565b606481111561177f5760405162461bcd60e51b815260206004820152600d60248201526c04d757374206265203c2031303609c1b6044820152606401610a71565b600855565b6001546001600160a01b031633146117de5760405162461bcd60e51b815260206004820181905260248201527f4f776e61626c653a2063616c6c6572206973206e6f7420746865206f776e65726044820152606401610a71565b6117e860006137e9565b565b6060808260008167ffffffffffffffff81111561181757634e487b7160e01b600052604160045260246000fd5b604051908082528060200260200182016040528015611840578160200160208202803683370190505b50905060008267ffffffffffffffff81111561186c57634e487b7160e01b600052604160045260246000fd5b604051908082528060200260200182016040528015611895578160200160208202803683370190505b50905060005b838110156119f757601160008989848181106118c757634e487b7160e01b600052603260045260246000fd5b90506020020135815260200190815260200160002060000160009054906101000a900463ffffffff1683828151811061191057634e487b7160e01b600052603260045260246000fd5b63ffffffff9092166020928302919091019091015260006011818a8a8581811061194a57634e487b7160e01b600052603260045260246000fd5b602090810292909201358352508101919091526040016000205464010000000090046001600160a01b031614156119b257600182828151811061199d57634e487b7160e01b600052603260045260246000fd5b911515602092830291909101909101526119e5565b60008282815181106119d457634e487b7160e01b600052603260045260246000fd5b911515602092830291909101909101525b806119ef8161440d565b91505061189b565b509093509150505b9250929050565b336001600160a01b037f00000000000000000000000000000000000000000000000000000000000000001614611a4e5760405162461bcd60e51b8152600401610a7190614064565b6103e8811115611a935760405162461bcd60e51b815260206004820152601060248201526f53686f756c64206265203c3d2031302560801b6044820152606401610a71565b601555565b336001600160a01b037f00000000000000000000000000000000000000000000000000000000000000001614611ae05760405162461bcd60e51b8152600401610a7190614064565b600360065460009081526010602052604090205460ff166003811115611b1657634e487b7160e01b600052602160045260246000fd5b14611b635760405162461bcd60e51b815260206004820152601860248201527f4c6f7474657279206e6f7420696e20636c61696d61626c6500000000000000006044820152606401610a71565b806001600160a01b031663dbdff2c16040518163ffffffff1660e01b8152600401600060405180830381600087803b158015611b9e57600080fd5b505af1158015611bb2573d6000803e3d6000fd5b50505050806001600160a01b031663a1c4f55a6040518163ffffffff1660e01b815260040160206040518083038186803b158015611bef57600080fd5b505afa158015611c03573d6000803e3d6000fd5b505050506040513d601f19601f82011682018060405250810190611c279190613ea1565b50600e80546001600160a01b0319166001600160a01b0383169081179091556040517f383f8cb39dfa7c3fb901a460dd449ea924868f0a92ff03da64740fffa5f1de6290600090a250565b6003546001600160a01b03163314611c9c5760405162461bcd60e51b8152600401610a7190614117565b60026000541415611cbf5760405162461bcd60e51b8152600401610a71906140e0565b6002600055600160008281526010602052604090205460ff166003811115611cf757634e487b7160e01b600052602160045260246000fd5b14611d375760405162461bcd60e51b815260206004820152601060248201526f2637ba3a32b93c903737ba1037b832b760811b6044820152606401610a71565b6000818152601060205260409020600201544211611d8a5760405162461bcd60e51b815260206004820152601060248201526f2637ba3a32b93c903737ba1037bb32b960811b6044820152606401610a71565b60075460008281526010602052604080822060190192909255600e54825163dbdff2c160e01b815292516001600160a01b039091169263dbdff2c192600480830193919282900301818387803b158015611de357600080fd5b505af1158015611df7573d6000803e3d6000fd5b505050600082815260106020908152604091829020805460ff1916600217905560075491519182528392507f3728e75294796694d59d2ffced9c394279baf7b9ebd2702db43f5f04bac67929910160405180910390a2506001600055565b6003546001600160a01b03163314611e7f5760405162461bcd60e51b8152600401610a7190614117565b6006541580611ec15750600360065460009081526010602052604090205460ff166003811115611ebf57634e487b7160e01b600052602160045260246000fd5b145b611f0d5760405162461bcd60e51b815260206004820152601960248201527f4e6f742074696d6520746f207374617274206c6f7474657279000000000000006044820152606401610a71565b610384611f1a42876143a5565b118015611f3257506205472c611f3042876143a5565b105b611f7e5760405162461bcd60e51b815260206004820152601f60248201527f4c6f7474657279206c656e677468206f757473696465206f662072616e6765006044820152606401610a71565b600a548410158015611f9257506009548411155b611fd25760405162461bcd60e51b81526020600482015260116024820152704f757473696465206f66206c696d69747360781b6044820152606401610a71565b61012c8310156120245760405162461bcd60e51b815260206004820152601860248201527f446973636f756e742064697669736f7220746f6f206c6f7700000000000000006044820152606401610a71565b610bb881111561206e5760405162461bcd60e51b81526020600482015260156024820152740a8e4cac2e6eae4f240cccaca40e8dede40d0d2ced605b1b6044820152606401610a71565b60a082013560808301356060840135604085013561209160208701358735614200565b61209b9190614200565b6120a59190614200565b6120af9190614200565b6120b99190614200565b612710146121095760405162461bcd60e51b815260206004820152601860248201527f52657761726473206d75737420657175616c20313030303000000000000000006044820152606401610a71565b600680549060006121198361440d565b9091555050604080516101a0810190915280600181526020014281526020018681526020018581526020018481526020018360068060200260405190810160405280929190826006602002808284376000920182905250928452505060208083018590526040805160c080820183528482528184018590528183018590526060808301869052608080840187905260a080850188905285890194909452845180840186528781528087018890528086018890528083018890528082018890528085018890529188019190915260075490870181905291860191909152600b549085015260e09093018290526006548252601090522081518154829060ff1916600183600381111561223a57634e487b7160e01b600052602160045260246000fd5b02179055506020820151600182015560408201516002820155606082015160038201556080820151600482015560a082015161227c9060058301906006613a99565b5060c0820151600b82015560e082015161229c90600c8301906006613a99565b506101008201516122b39060128301906006613a99565b5061012082015160188201556101408201516019820155610160820151601a82015561018090910151601b909101805463ffffffff191663ffffffff909216919091179055600654600754600b5460408051428152602081018a9052908101889052606081019290925260808201527f367e70f8c0e0c0a6504d92172bda155c02022d532fc85b5d66a9c49e31c8bc779060a00160405180910390a250506000600b55505050565b6003546001600160a01b031633146123855760405162461bcd60e51b8152600401610a7190614117565b600260005414156123a85760405162461bcd60e51b8152600401610a71906140e0565b600260008181558381526010602052604090205460ff1660038111156123de57634e487b7160e01b600052602160045260246000fd5b1461241f5760405162461bcd60e51b81526020600482015260116024820152704c6f7474657279206e6f7420636c6f736560781b6044820152606401610a71565b600e60009054906101000a90046001600160a01b03166001600160a01b031663fbe5d9176040518163ffffffff1660e01b815260040160206040518083038186803b15801561246d57600080fd5b505afa158015612481573d6000803e3d6000fd5b505050506040513d601f19601f820116820180604052508101906124a59190613c9a565b82146124e75760405162461bcd60e51b8152602060048201526011602482015270273ab6b132b939903737ba10323930bbb760791b6044820152606401610a71565b600e54604080516350e27aad60e11b815290516000926001600160a01b03169163a1c4f55a916004808301926020929190829003018186803b15801561252c57600080fd5b505afa158015612540573d6000803e3d6000fd5b505050506040513d601f19601f820116820180604052508101906125649190613ea1565b6000848152601060205260408120600b01549192509081906127109061258a90826143a5565b6000878152601060205260409020601a01546125a69190614386565b6125b09190614240565b90506000805b60068163ffffffff16101561287e5760006125d28260056143bc565b905060006125e1826001614218565b6125ec90600a61429b565b6125f6908861444c565b63ffffffff808416600090815260126020526040902054612618929116614218565b60008a815260136020908152604080832063ffffffff851684529091529020549091506126469087906143a5565b60008a815260106020526040902060120163ffffffff84166006811061267c57634e487b7160e01b600052603260045260246000fd5b0155600089815260136020908152604080832063ffffffff851684529091529020546126a99087906143a5565b156127d257600089815260106020526040902060050163ffffffff8316600681106126e457634e487b7160e01b600052603260045260246000fd5b0154156127cd57600089815260136020908152604080832063ffffffff851684529091529020546127109061271a9088906143a5565b60008b8152601060205260409020879060050163ffffffff86166006811061275257634e487b7160e01b600052603260045260246000fd5b015461275e9190614386565b6127689190614240565b6127729190614240565b60008a8152601060205260409020600c0163ffffffff8416600681106127a857634e487b7160e01b600052603260045260246000fd5b0155600089815260136020908152604080832063ffffffff8516845290915290205495505b612869565b6000898152601060205260408120600c0163ffffffff84166006811061280857634e487b7160e01b600052603260045260246000fd5b0155600089815260106020526040902061271090869060050163ffffffff85166006811061284657634e487b7160e01b600052603260045260246000fd5b01546128529190614386565b61285c9190614240565b6128669085614200565b93505b5050808061287690614428565b9150506125b6565b506000868152601060205260409020601b8101805463ffffffff871663ffffffff19909116179055805460ff1916600317905584156128bd57600b5560005b6000868152601060205260409020601a01546128da9083906143a5565b6128e49082614200565b6006546000908152601960205260409020549091501561291d5760065460009081526019602052604090205461291a90826143a5565b90505b6000600c5411801561293957506005546001600160a01b031615155b156129aa576000612710600c54836129519190614386565b61295b9190614240565b905061296781836143a5565b600454600d54919350612987916001600160a01b039081169116846136df565b600554600d546129a4916001600160a01b039182169116836136df565b506129c7565b600454600d546129c7916001600160a01b039182169116836136df565b6006546040805163ffffffff87168152602081018690527f98e31a6607b8b15b4d5b91de54f4c09ffe4c4cf162aa532c70b5213754e2e703910160405180910390a25050600160005550505050565b600061012c841015612a6a5760405162461bcd60e51b815260206004820152601f60248201527f4d757374206265203e3d204d494e5f444953434f554e545f44495649534f52006044820152606401610a71565b81612ab75760405162461bcd60e51b815260206004820152601d60248201527f4e756d626572206f66207469636b657473206d757374206265203e20300000006044820152606401610a71565b6000612ac4858585613451565b5095945050505050565b333b15612b145760405162461bcd60e51b815260206004820152601460248201527310dbdb9d1c9858dd081b9bdd08185b1b1bddd95960621b6044820152606401610a71565b333214612b635760405162461bcd60e51b815260206004820152601a60248201527f50726f787920636f6e7472616374206e6f7420616c6c6f7765640000000000006044820152606401610a71565b60026000541415612b865760405162461bcd60e51b8152600401610a71906140e0565b6002600055828114612bcc5760405162461bcd60e51b815260206004820152600f60248201526e09cdee840e6c2daca40d8cadccee8d608b1b6044820152606401610a71565b82612c0d5760405162461bcd60e51b815260206004820152601160248201527004c656e677468206d757374206265203e3607c1b6044820152606401610a71565b600854831115612c525760405162461bcd60e51b815260206004820152601060248201526f546f6f206d616e79207469636b65747360801b6044820152606401610a71565b600360008681526010602052604090205460ff166003811115612c8557634e487b7160e01b600052602160045260246000fd5b14612cca5760405162461bcd60e51b81526020600482015260156024820152744c6f7474657279206e6f7420636c61696d61626c6560581b6044820152606401610a71565b6000805b84811015613029576006848483818110612cf857634e487b7160e01b600052603260045260246000fd5b9050602002016020810190612d0d9190613e85565b63ffffffff1610612d575760405162461bcd60e51b8152602060048201526014602482015273427261636b6574206f7574206f662072616e676560601b6044820152606401610a71565b6000868683818110612d7957634e487b7160e01b600052603260045260246000fd5b90506020020135905080601060008a81526020019081526020016000206019015411612ddb5760405162461bcd60e51b81526020600482015260116024820152700a8d2c6d6cae892c840e8dede40d0d2ced607b1b6044820152606401610a71565b600088815260106020526040902060180154811015612e2f5760405162461bcd60e51b815260206004820152601060248201526f5469636b6574496420746f6f206c6f7760801b6044820152606401610a71565b60008181526011602052604090205464010000000090046001600160a01b03163314612e8d5760405162461bcd60e51b815260206004820152600d60248201526c2737ba103a34329037bbb732b960991b6044820152606401610a71565b60008181526011602052604081208054640100000000600160c01b0319169055612eec8983888887818110612ed257634e487b7160e01b600052603260045260246000fd5b9050602002016020810190612ee79190613e85565b613714565b905080612f3b5760405162461bcd60e51b815260206004820152601960248201527f4e6f207072697a6520666f72207468697320627261636b6574000000000000006044820152606401610a71565b858584818110612f5b57634e487b7160e01b600052603260045260246000fd5b9050602002016020810190612f709190613e85565b63ffffffff1660051461300857612fc28983888887818110612fa257634e487b7160e01b600052603260045260246000fd5b9050602002016020810190612fb79190613e85565b612ee7906001614218565b156130085760405162461bcd60e51b8152602060048201526016602482015275213930b1b5b2ba1036bab9ba103132903434b3b432b960511b6044820152606401610a71565b6130128185614200565b9350505080806130219061440d565b915050612cce565b50600d54613041906001600160a01b031633836136df565b6040805182815260208101869052879133917f0f5fca62da8fb5d95525b49e5eaa7b20bc6bd9e2f6b64b493442d1c0bd6ef486910160405180910390a35050600160005550505050565b336001600160a01b037f000000000000000000000000000000000000000000000000000000000000000016146130d35760405162461bcd60e51b8152600401610a7190614064565b6001600160a01b0383166130f95760405162461bcd60e51b8152600401610a71906140b0565b6001600160a01b03821661311f5760405162461bcd60e51b8152600401610a71906140b0565b6001600160a01b0381166131455760405162461bcd60e51b8152600401610a71906140b0565b600380546001600160a01b038581166001600160a01b0319928316811790935560048054868316908416811790915560028054928616929093168217909255604080519384526020840192909252908201527f3e945b7660001d46cfd5e729545f7f0b6c65bdee54066a91c7acad703f1b731e9060600160405180910390a1505050565b336001600160a01b037f000000000000000000000000000000000000000000000000000000000000000016146132115760405162461bcd60e51b8152600401610a7190614064565b6113888111156132535760405162461bcd60e51b815260206004820152600d60248201526c4d757374206265203c2035302560981b6044820152606401610a71565b600580546001600160a01b0319166001600160a01b039390931692909217909155600c55565b336001600160a01b037f000000000000000000000000000000000000000000000000000000000000000016146132c15760405162461bcd60e51b8152600401610a7190614064565b808211156133115760405162461bcd60e51b815260206004820152601b60248201527f6d696e5072696365206d757374206265203c206d6178507269636500000000006044820152606401610a71565b600a91909155600955565b336001600160a01b037f000000000000000000000000000000000000000000000000000000000000000016146133645760405162461bcd60e51b8152600401610a7190614064565b600f80546001600160a01b0319166001600160a01b0392909216919091179055565b6001546001600160a01b031633146133e05760405162461bcd60e51b815260206004820181905260248201527f4f776e61626c653a2063616c6c6572206973206e6f7420746865206f776e65726044820152606401610a71565b6001600160a01b0381166134455760405162461bcd60e51b815260206004820152602660248201527f4f776e61626c653a206e6577206f776e657220697320746865207a65726f206160448201526564647265737360d01b6064820152608401610a71565b61344e816137e9565b50565b600f5460009081906001600160a01b0316156134fe57600f546040516323fd788f60e21b8152336004820152602481018590526001600160a01b0390911690638ff5e23c9060440160206040518083038186803b1580156134b157600080fd5b505afa1580156134c5573d6000803e3d6000fd5b505050506040513d601f19601f820116820180604052508101906134e99190613c9a565b905080156134fe576134fb81846143a5565b92505b848361350b826001614200565b61351591906143a5565b61351f8587614386565b6135299190614386565b6135339190614240565b9150935093915050565b6040516001600160a01b03808516602483015283166044820152606481018290526135a89085906323b872dd60e01b906084015b60408051601f198184030181529190526020810180516001600160e01b03166001600160e01b03199093169290921790915261383b565b50505050565b336000908152601660205260409020546001600160a01b03161515806135d45750803b15155b806135e757506001600160a01b03811633145b156135ef5750565b6001600160a01b038181166000908152601660205260409020541633148061363857506001600160a01b0381811660009081526016602052604080822054831682529020541633145b156136405750565b33600090815260166020908152604080832080546001600160a01b0319166001600160a01b0386169081179091558352601790915290208054613684906001614200565b808255600090815260018201602052604080822080546001600160a01b0319163390811790915590516001600160a01b038516927ffaf63637882ff2d63ca76881cf92fb857130e36f350c926f9cc884b499b42b7791a35050565b6040516001600160a01b03831660248201526044810182905261370f90849063a9059cbb60e01b90606401613571565b505050565b6000838152601060209081526040808320601b0154858452601190925282205463ffffffff91821691168261374a856001614218565b61375590600a61429b565b61375f908461444c565b9050600061376e866001614218565b61377990600a61429b565b613783908461444c565b90508063ffffffff168263ffffffff1614156137dc576000888152601060205260409020600c0163ffffffff8716600681106137cf57634e487b7160e01b600052603260045260246000fd5b0154945050505050611463565b6000945050505050611463565b600180546001600160a01b038381166001600160a01b0319831681179093556040519116919082907f8be0079c531659141344cd1fd0a4f28419497f9722a3daafe3b4186f6b6457e090600090a35050565b6000613890826040518060400160405280602081526020017f5361666545524332303a206c6f772d6c6576656c2063616c6c206661696c6564815250856001600160a01b031661390d9092919063ffffffff16565b80519091501561370f57808060200190518101906138ae9190613c66565b61370f5760405162461bcd60e51b815260206004820152602a60248201527f5361666545524332303a204552433230206f7065726174696f6e20646964206e6044820152691bdd081cdd58d8d9595960b21b6064820152608401610a71565b6060611460848460008585843b6139665760405162461bcd60e51b815260206004820152601d60248201527f416464726573733a2063616c6c20746f206e6f6e2d636f6e74726163740000006044820152606401610a71565b600080866001600160a01b031685876040516139829190613f73565b60006040518083038185875af1925050503d80600081146139bf576040519150601f19603f3d011682016040523d82523d6000602084013e6139c4565b606091505b50915091506139d48282866139df565b979650505050505050565b606083156139ee575081611463565b8251156139fe5782518084602001fd5b8160405162461bcd60e51b8152600401610a719190614031565b604080516101a08101909152806000815260200160008152602001600081526020016000815260200160008152602001613a50613ad7565b815260200160008152602001613a64613ad7565b8152602001613a71613ad7565b8152602001600081526020016000815260200160008152602001600063ffffffff1681525090565b8260068101928215613ac7579160200282015b82811115613ac7578251825591602001919060010190613aac565b50613ad3929150613af5565b5090565b6040518060c001604052806006906020820280368337509192915050565b5b80821115613ad35760008155600101613af6565b80356001600160a01b0381168114613b2157600080fd5b919050565b60008083601f840112613b37578182fd5b50813567ffffffffffffffff811115613b4e578182fd5b6020830191508360208260051b85010111156119ff57600080fd5b600060208284031215613b7a578081fd5b61146382613b0a565b600080600060608486031215613b97578182fd5b613ba084613b0a565b9250613bae60208501613b0a565b9150613bbc60408501613b0a565b90509250925092565b60008060408385031215613bd7578182fd5b613be083613b0a565b946020939093013593505050565b60008060008060808587031215613c03578081fd5b613c0c85613b0a565b966020860135965060408601359560600135945092505050565b60008060208385031215613c38578182fd5b823567ffffffffffffffff811115613c4e578283fd5b613c5a85828601613b26565b90969095509350505050565b600060208284031215613c77578081fd5b81516114638161449b565b600060208284031215613c93578081fd5b5035919050565b600060208284031215613cab578081fd5b5051919050565b600080600080600060608688031215613cc9578081fd5b85359450602086013567ffffffffffffffff80821115613ce7578283fd5b613cf389838a01613b26565b90965094506040880135915080821115613d0b578283fd5b50613d1888828901613b26565b969995985093965092949392505050565b60008060008060608587031215613d3e578384fd5b84359350602085013567ffffffffffffffff811115613d5b578384fd5b613d6787828801613b26565b9094509250613d7a905060408601613b0a565b905092959194509250565b60008060408385031215613d97578182fd5b823591506020830135613da98161449b565b809150509250929050565b60008060408385031215613dc6578182fd5b50508035926020909101359150565b600080600060608486031215613de9578081fd5b505081359360208301359350604090920135919050565b60008060008060006101408688031215613e18578283fd5b853594506020860135935060408601359250610120860187811115613e3b578182fd5b94979396509194606001933592915050565b600080600060608486031215613e61578081fd5b83359250602084013591506040840135613e7a816144a9565b809150509250925092565b600060208284031215613e96578081fd5b8135611463816144a9565b600060208284031215613eb2578081fd5b8151611463816144a9565b6000815180845260208085019450808401835b83811015613eee578151151587529582019590820190600101613ed0565b509495945050505050565b8060005b60068110156135a8578151845260209384019390910190600101613efd565b6000815180845260208085019450808401835b83811015613eee57815163ffffffff1687529582019590820190600101613f2f565b60048110613f6f57634e487b7160e01b600052602160045260246000fd5b9052565b60008251613f858184602087016143e1565b9190910192915050565b6080808252855190820181905260009060209060a0840190828901845b82811015613fc857815184529284019290840190600101613fac565b50505083810382850152613fdc8188613f1c565b9150508281036040840152613ff18186613ebd565b91505082606083015295945050505050565b6040815260006140166040830185613f1c565b82810360208401526140288185613ebd565b95945050505050565b60208152600082518060208401526140508160408501602087016143e1565b601f01601f19169190910160400192915050565b6020808252602c908201527f4f6e6c79206d756c74697369672077616c6c65742063616e2070657266726f6d60408201526b103a3434b99030b1ba34b7b760a11b606082015260800190565b60208082526016908201527543616e6e6f74206265207a65726f206164647265737360501b604082015260600190565b6020808252601f908201527f5265656e7472616e637947756172643a207265656e7472616e742063616c6c00604082015260600190565b6020808252600c908201526b2737ba1037b832b930ba37b960a11b604082015260600190565b600061038082019050614151828451613f51565b6020830151602083015260408301516040830152606083015160608301526080830151608083015260a083015161418b60a0840182613ef9565b5060c0830151610160818185015260e085015191506101806141af81860184613ef9565b61010086015192506141c5610240860184613ef9565b6101208601516103008601526101408601516103208601529085015161034085015284015163ffffffff811661036085015290505092915050565b600082198211156142135761421361446f565b500190565b600063ffffffff8083168185168083038211156142375761423761446f565b01949350505050565b60008261424f5761424f614485565b500490565b60018163ffffffff825b80861115614292578282048311156142785761427861446f565b8086161561428557928202925b94851c949180029161425e565b50509250929050565b600063ffffffff6142b08185168285166142b8565b949350505050565b6000826142c757506001614380565b816142d457506000614380565b81600181146142ea57600281146142f457614325565b6001915050614380565b60ff8411156143055761430561446f565b6001841b915063ffffffff82111561431f5761431f61446f565b50614380565b5060208310610133831016604e8410600b841016171561435c575081810a63ffffffff8111156143575761435761446f565b614380565b6143668383614254565b8063ffffffff0482111561437c5761437c61446f565b0290505b92915050565b60008160001904831182151516156143a0576143a061446f565b500290565b6000828210156143b7576143b761446f565b500390565b600063ffffffff838116908316818110156143d9576143d961446f565b039392505050565b60005b838110156143fc5781810151838201526020016143e4565b838111156135a85750506000910152565b60006000198214156144215761442161446f565b5060010190565b600063ffffffff808316818114156144425761444261446f565b6001019392505050565b600063ffffffff8084168061446357614463614485565b92169190910692915050565b634e487b7160e01b600052601160045260246000fd5b634e487b7160e01b600052601260045260246000fd5b801515811461344e57600080fd5b63ffffffff8116811461344e57600080fdfea2646970667358221220d7efcffeb8ecaeb9a62134d1212053bb9e017c3af70cd619a054aad5b7f12cbe64736f6c63430008040033",
  "immutableReferences": {
    "29": [
      {
        "length": 32,
        "start": 1092
      },
      {
        "length": 32,
        "start": 5237
      },
      {
        "length": 32,
        "start": 5830
      },
      {
        "length": 32,
        "start": 6673
      },
      {
        "length": 32,
        "start": 6819
      },
      {
        "length": 32,
        "start": 12438
      },
      {
        "length": 32,
        "start": 12756
      },
      {
        "length": 32,
        "start": 12932
      },
      {
        "length": 32,
        "start": 13095
      }
    ]
  },
  "source": "// SPDX-License-Identifier: MIT\npragma solidity 0.8.4;\npragma abicoder v2;\n\nimport \"@openzeppelin/contracts/access/Ownable.sol\";\nimport \"@openzeppelin/contracts/token/ERC20/utils/SafeERC20.sol\";\nimport \"@openzeppelin/contracts/security/ReentrancyGuard.sol\";\nimport \"./interfaces/IRandomNumberGenerator.sol\";\nimport \"./interfaces/ILottery.sol\";\nimport \"./interfaces/IDiscounter.sol\";\n\n/** @title TokenLottery.\n * @notice It is a contract for a lottery system using\n * randomness provided externally.\n */\ncontract TokenLottery is ReentrancyGuard, ILottery, Ownable {\n    using SafeERC20 for IERC20;\n\n    address public injectorAddress;\n    address public operatorAddress;\n    address public treasuryAddress;\n    address public partnerAddress;\n    address public immutable wallet;\n\n    uint256 public currentLotteryId;\n    uint256 public currentTicketId;\n\n    uint256 public maxNumberTicketsPerBuyOrClaim = 100;\n\n    uint256 public maxPriceTicketInTokens = 1000 ether;\n    uint256 public minPriceTicketInTokens = 0.005 ether;\n\n    uint256 public pendingInjectionNextLottery;\n\n    uint256 public constant MIN_DISCOUNT_DIVISOR = 300;\n    // uint256 public constant MIN_LENGTH_LOTTERY = 4 hours - 5 minutes; // 4 hours\n    uint256 public constant MIN_LENGTH_LOTTERY = 15 minutes;\n    uint256 public constant MAX_LENGTH_LOTTERY = 4 days + 5 minutes; // 4 days\n    uint256 public constant MAX_TREASURY_FEE = 3000; // 30%\n    uint256 public partnerPercent; // % of treasure fee, in bp \n\n    IERC20 public token;\n    IRandomNumberGenerator public randomGenerator;\n    IDiscounter public discounter;\n\n    enum Status {\n        Pending,\n        Open,\n        Close,\n        Claimable\n    }\n\n    struct Lottery {\n        Status status;\n        uint256 startTime;\n        uint256 endTime;\n        uint256 priceTicketInTokens;\n        uint256 discountDivisor;\n        uint256[6] rewardsBreakdown; // 0: 1 matching number // 5: 6 matching numbers\n        uint256 treasuryFee; // 500: 5% // 200: 2% // 50: 0.5%\n        uint256[6] tokensPerBracket;\n        uint256[6] countWinnersPerBracket;\n        uint256 firstTicketId;\n        uint256 firstTicketIdNextLottery;\n        uint256 amountCollectedInTokens;\n        uint32 finalNumber;\n    }\n\n    struct Ticket {\n        uint32 number;\n        address owner;\n    }\n\n    // Mapping are cheaper than arrays\n    mapping(uint256 => Lottery) private _lotteries;\n    mapping(uint256 => Ticket) private _tickets;\n\n    // Bracket calculator is used for verifying claims for ticket prizes\n    mapping(uint32 => uint32) private _bracketCalculator;\n\n    // Keeps track of number of ticket per unique combination for each lotteryId\n    mapping(uint256 => mapping(uint32 => uint256)) private _numberTicketsPerLotteryId;\n\n    // Keep track of user ticket ids for a given lotteryId\n    mapping(address => mapping(uint256 => uint256[])) private _userTicketIdsPerLotteryId;\n    \n    //referrals\n    uint256 public referrerRewardPercentage;\n\n    struct Referrer {\n        // uint256 totalReward;\n        uint256 referralsCount;\n        mapping(uint256 => address) referrals;\n    }\n\n    // staker to referrer\n    mapping(address => address) public referrals;\n    // referrer data\n    mapping(address => Referrer) public referrers;\n    // refferrer to round to reward amount\n    mapping(address => mapping(uint256 => uint256)) public referrersRewards;\n    // round to total rewards\n    mapping(uint256 => uint256) public totalRoundReferrerRewards;\n\n    modifier notContract() {\n        require(!_isContract(msg.sender), \"Contract not allowed\");\n        require(msg.sender == tx.origin, \"Proxy contract not allowed\");\n        _;\n    }\n\n    modifier onlyOperator() {\n        require(msg.sender == operatorAddress, \"Not operator\");\n        _;\n    }\n\n    modifier onlyOwnerOrInjector() {\n        require((msg.sender == owner()) || (msg.sender == injectorAddress), \"Not owner or injector\");\n        _;\n    }\n    \n    modifier onlyWallet() {\n        require(msg.sender == wallet, \"Only multisig wallet can perfrom this action\");\n        _;\n    }\n\n    event AdminTokenRecovery(address token, uint256 amount);\n    event LotteryClose(uint256 indexed lotteryId, uint256 firstTicketIdNextLottery);\n    event LotteryInjection(uint256 indexed lotteryId, uint256 injectedAmount);\n    event LotteryOpen(\n        uint256 indexed lotteryId,\n        uint256 startTime,\n        uint256 endTime,\n        uint256 priceTicketInTokens,\n        uint256 firstTicketId,\n        uint256 injectedAmount\n    );\n    event LotteryNumberDrawn(uint256 indexed lotteryId, uint256 finalNumber, uint256 countWinningTickets);\n    event NewOperatorAndTreasuryAndInjectorAddresses(address operator, address treasury, address injector);\n    event NewRandomGenerator(address indexed randomGenerator);\n    event TicketsPurchase(address indexed buyer, uint256 indexed lotteryId, uint256 numberTickets);\n    event TicketsClaim(address indexed claimer, uint256 amount, uint256 indexed lotteryId, uint256 numberTickets);\n    event FreeTicketsGiven(address indexed buyer, uint256 indexed lotteryId, uint256 numberTickets);\n    event RegisteredReferer(address indexed referral, address indexed referrer);\n    event ReferrerRewardsAccrued(address indexed referrer, address indexed referral, uint256 indexed currentLotteryId, uint256 referrerReward);\n    event ClaimedReward(address indexed referrer, uint256 indexed lotteryId, uint256 reward);\n\n    /**\n     * @notice Constructor\n     * @dev RandomNumberGenerator must be deployed prior to this contract\n     * @param _tokenAddress: address of the Token\n     * @param _randomGeneratorAddress: address of the RandomGenerator contract used to work with ChainLink VRF\n     */\n    constructor(\n        address _tokenAddress,\n        address _randomGeneratorAddress,\n        address _wallet,\n        address _operatorAddress,\n        address _treasuryAddress,\n        address _injectorAddress\n    ){\n        token = IERC20(_tokenAddress);\n        randomGenerator = IRandomNumberGenerator(_randomGeneratorAddress);\n\n        // Initializes a mapping\n        _bracketCalculator[0] = 1;\n        _bracketCalculator[1] = 11;\n        _bracketCalculator[2] = 111;\n        _bracketCalculator[3] = 1111;\n        _bracketCalculator[4] = 11111;\n        _bracketCalculator[5] = 111111;\n        \n        wallet = _wallet;\n        operatorAddress = _operatorAddress;\n        treasuryAddress = _treasuryAddress;\n        injectorAddress = _injectorAddress;\n        \n        referrerRewardPercentage = 200;\n    }\n\n    /**\n     * @notice Buy tickets for the current lottery\n     * @param _lotteryId: lotteryId\n     * @param _ticketNumbers: array of ticket numbers between 1,000,000 and 1,999,999\n     * @dev Callable by users\n     */\n    function buyTickets(uint256 _lotteryId, uint32[] calldata _ticketNumbers, address referrer)\n        external\n        override\n        notContract\n        nonReentrant\n    {\n        require(_ticketNumbers.length != 0, \"No ticket specified\");\n        require(_ticketNumbers.length <= maxNumberTicketsPerBuyOrClaim, \"Too many tickets\");\n\n        require(_lotteries[_lotteryId].status == Status.Open, \"Lottery is not open\");\n        require(block.timestamp < _lotteries[_lotteryId].endTime, \"Lottery is over\");\n\n        // Calculate number of tokens to this contract\n        (uint256 amountToTransfer, uint256 numberOfFreeTickets) = _calculateTotalPriceForBulkTickets(\n            _lotteries[_lotteryId].discountDivisor,\n            _lotteries[_lotteryId].priceTicketInTokens,\n            _ticketNumbers.length\n        );\n\n        // Transfer tokens to this contract\n        token.safeTransferFrom(address(msg.sender), address(this), amountToTransfer);\n\n        // Increment the total amount collected for the lottery round\n        _lotteries[_lotteryId].amountCollectedInTokens += amountToTransfer;\n\n        for (uint256 i = 0; i < _ticketNumbers.length; i++) {\n            uint32 thisTicketNumber = _ticketNumbers[i];\n\n            require((thisTicketNumber >= 1000000) && (thisTicketNumber <= 1999999), \"Outside range\");\n\n            _numberTicketsPerLotteryId[_lotteryId][1 + (thisTicketNumber % 10)]++;\n            _numberTicketsPerLotteryId[_lotteryId][11 + (thisTicketNumber % 100)]++;\n            _numberTicketsPerLotteryId[_lotteryId][111 + (thisTicketNumber % 1000)]++;\n            _numberTicketsPerLotteryId[_lotteryId][1111 + (thisTicketNumber % 10000)]++;\n            _numberTicketsPerLotteryId[_lotteryId][11111 + (thisTicketNumber % 100000)]++;\n            _numberTicketsPerLotteryId[_lotteryId][111111 + (thisTicketNumber % 1000000)]++;\n\n            _userTicketIdsPerLotteryId[msg.sender][_lotteryId].push(currentTicketId);\n\n            _tickets[currentTicketId] = Ticket({number: thisTicketNumber, owner: msg.sender});\n\n            // Increase lottery ticket number\n            currentTicketId++;\n        }\n\n        emit TicketsPurchase(msg.sender, _lotteryId, _ticketNumbers.length);\n        if (numberOfFreeTickets > 0) {\n            emit FreeTicketsGiven(msg.sender, currentLotteryId, numberOfFreeTickets);\n        }\n        \n        if (referrer != address(0)) {\n            processReferrals(referrer);\n        }\n        \n        if (hasReferrer(msg.sender)) {\n            uint256 referrerReward = amountToTransfer * referrerRewardPercentage / 10000;\n            referrersRewards[referrer][currentLotteryId] += referrerReward;\n            totalRoundReferrerRewards[currentLotteryId] += referrerReward;\n            emit ReferrerRewardsAccrued(referrer, msg.sender, currentLotteryId, referrerReward);\n        }\n    }\n\n    /**\n     * @notice Claim a set of winning tickets for a lottery\n     * @param _lotteryId: lottery id\n     * @param _ticketIds: array of ticket ids\n     * @param _brackets: array of brackets for the ticket ids\n     * @dev Callable by users only, not contract!\n     */\n    function claimTickets(\n        uint256 _lotteryId,\n        uint256[] calldata _ticketIds,\n        uint32[] calldata _brackets\n    ) external override notContract nonReentrant {\n        require(_ticketIds.length == _brackets.length, \"Not same length\");\n        require(_ticketIds.length != 0, \"Length must be >0\");\n        require(_ticketIds.length <= maxNumberTicketsPerBuyOrClaim, \"Too many tickets\");\n        require(_lotteries[_lotteryId].status == Status.Claimable, \"Lottery not claimable\");\n\n        // Initializes the rewardInTokensToTransfer\n        uint256 rewardInTokensToTransfer;\n\n        for (uint256 i = 0; i < _ticketIds.length; i++) {\n            require(_brackets[i] < 6, \"Bracket out of range\"); // Must be between 0 and 5\n\n            uint256 thisTicketId = _ticketIds[i];\n\n            require(_lotteries[_lotteryId].firstTicketIdNextLottery > thisTicketId, \"TicketId too high\");\n            require(_lotteries[_lotteryId].firstTicketId <= thisTicketId, \"TicketId too low\");\n            require(msg.sender == _tickets[thisTicketId].owner, \"Not the owner\");\n\n            // Update the lottery ticket owner to 0x address\n            _tickets[thisTicketId].owner = address(0);\n\n            uint256 rewardForTicketId = _calculateRewardsForTicketId(_lotteryId, thisTicketId, _brackets[i]);\n\n            // Check user is claiming the correct bracket\n            require(rewardForTicketId != 0, \"No prize for this bracket\");\n\n            if (_brackets[i] != 5) {\n                require(\n                    _calculateRewardsForTicketId(_lotteryId, thisTicketId, _brackets[i] + 1) == 0,\n                    \"Bracket must be higher\"\n                );\n            }\n\n            // Increment the reward to transfer\n            rewardInTokensToTransfer += rewardForTicketId;\n        }\n\n        // Transfer money to msg.sender\n        token.safeTransfer(msg.sender, rewardInTokensToTransfer);\n\n        emit TicketsClaim(msg.sender, rewardInTokensToTransfer, _lotteryId, _ticketIds.length);\n    }\n\n    /**\n     * @notice Close lottery\n     * @param _lotteryId: lottery id\n     * @dev Callable by operator\n     */\n    function closeLottery(uint256 _lotteryId) external override onlyOperator nonReentrant {\n        require(_lotteries[_lotteryId].status == Status.Open, \"Lottery not open\");\n        require(block.timestamp > _lotteries[_lotteryId].endTime, \"Lottery not over\");\n        _lotteries[_lotteryId].firstTicketIdNextLottery = currentTicketId;\n\n        randomGenerator.getRandomNumber();\n\n        _lotteries[_lotteryId].status = Status.Close;\n\n        emit LotteryClose(_lotteryId, currentTicketId);\n    }\n\n    /**\n     * @notice Draw the final number, calculate reward in Tokens per group, and make lottery claimable\n     * @param _lotteryId: lottery id\n     * @param _autoInjection: reinjects funds into next lottery (vs. withdrawing all)\n     * @dev Callable by operator\n     */\n    function drawFinalNumberAndMakeLotteryClaimable(uint256 _lotteryId, bool _autoInjection)\n        external\n        override\n        onlyOperator\n        nonReentrant\n    {\n        require(_lotteries[_lotteryId].status == Status.Close, \"Lottery not close\");\n        require(_lotteryId == randomGenerator.viewLatestLotteryId(), \"Numbers not drawn\");\n\n        // Calculate the finalNumber based on the randomResult generated by ChainLink's fallback\n        uint32 finalNumber = randomGenerator.viewRandomResult();\n\n        // Initialize a number to count addresses in the previous bracket\n        uint256 numberAddressesInPreviousBracket;\n\n        // Calculate the amount to share post-treasury fee\n        uint256 amountToShareToWinners = (\n            ((_lotteries[_lotteryId].amountCollectedInTokens) * (10000 - _lotteries[_lotteryId].treasuryFee))\n        ) / 10000;\n\n        // Initializes the amount to withdraw to treasury\n        uint256 amountToWithdrawToTreasury;\n\n        // Calculate prizes in Tokens for each bracket by starting from the highest one\n        for (uint32 i = 0; i < 6; i++) {\n            uint32 j = 5 - i;\n            uint32 transformedWinningNumber = _bracketCalculator[j] + (finalNumber % (uint32(10)**(j + 1)));\n\n            _lotteries[_lotteryId].countWinnersPerBracket[j] =\n                _numberTicketsPerLotteryId[_lotteryId][transformedWinningNumber] -\n                numberAddressesInPreviousBracket;\n\n            // A. If number of users for this _bracket number is superior to 0\n            if (\n                (_numberTicketsPerLotteryId[_lotteryId][transformedWinningNumber] - numberAddressesInPreviousBracket) !=\n                0\n            ) {\n                // B. If rewards at this bracket are > 0, calculate, else, report the numberAddresses from previous bracket\n                if (_lotteries[_lotteryId].rewardsBreakdown[j] != 0) {\n                    _lotteries[_lotteryId].tokensPerBracket[j] =\n                        ((_lotteries[_lotteryId].rewardsBreakdown[j] * amountToShareToWinners) /\n                            (_numberTicketsPerLotteryId[_lotteryId][transformedWinningNumber] -\n                                numberAddressesInPreviousBracket)) /\n                        10000;\n\n                    // Update numberAddressesInPreviousBracket\n                    numberAddressesInPreviousBracket = _numberTicketsPerLotteryId[_lotteryId][transformedWinningNumber];\n                }\n                // A. No Tokens to distribute, they are added to the amount to withdraw to treasury address\n            } else {\n                _lotteries[_lotteryId].tokensPerBracket[j] = 0;\n\n                amountToWithdrawToTreasury +=\n                    (_lotteries[_lotteryId].rewardsBreakdown[j] * amountToShareToWinners) /\n                    10000;\n            }\n        }\n\n        // Update internal statuses for lottery\n        _lotteries[_lotteryId].finalNumber = finalNumber;\n        _lotteries[_lotteryId].status = Status.Claimable;\n\n        if (_autoInjection) {\n            pendingInjectionNextLottery = amountToWithdrawToTreasury;\n            amountToWithdrawToTreasury = 0;\n        }\n\n        amountToWithdrawToTreasury += (_lotteries[_lotteryId].amountCollectedInTokens - amountToShareToWinners);\n        \n        if (totalRoundReferrerRewards[currentLotteryId] > 0) {\n            amountToWithdrawToTreasury -= totalRoundReferrerRewards[currentLotteryId];\n        }\n\n        // Transfer tokens to treasury address\n        if (partnerPercent > 0 && partnerAddress != address(0)) {\n            uint256 partnerAmount = amountToWithdrawToTreasury * partnerPercent / 10000;\n            amountToWithdrawToTreasury -= partnerAmount;\n            token.safeTransfer(treasuryAddress, amountToWithdrawToTreasury);\n            token.safeTransfer(partnerAddress, partnerAmount);\n        } else {\n            token.safeTransfer(treasuryAddress, amountToWithdrawToTreasury);\n        }\n\n        emit LotteryNumberDrawn(currentLotteryId, finalNumber, numberAddressesInPreviousBracket);\n    }\n\n    /**\n     * @notice Change the random generator\n     * @dev The calls to functions are used to verify the new generator implements them properly.\n     * It is necessary to wait for the VRF response before starting a round.\n     * Callable only by multisig wallet\n     * @param _randomGeneratorAddress: address of the random generator\n     */\n    function changeRandomGenerator(address _randomGeneratorAddress) external onlyWallet {\n        require(_lotteries[currentLotteryId].status == Status.Claimable, \"Lottery not in claimable\");\n\n        // Request a random number from the generator\n        IRandomNumberGenerator(_randomGeneratorAddress).getRandomNumber();\n\n        // Calculate the finalNumber based on the randomResult generated by ChainLink's fallback\n        IRandomNumberGenerator(_randomGeneratorAddress).viewRandomResult();\n\n        randomGenerator = IRandomNumberGenerator(_randomGeneratorAddress);\n\n        emit NewRandomGenerator(_randomGeneratorAddress);\n    }\n\n    /**\n     * @notice Inject funds\n     * @param _lotteryId: lottery id\n     * @param _amount: amount to inject in tokens\n     * @dev Callable by owner or injector address\n     */\n    function injectFunds(uint256 _lotteryId, uint256 _amount) external override onlyOwnerOrInjector {\n        require(_lotteries[_lotteryId].status == Status.Open, \"Lottery not open\");\n\n        token.safeTransferFrom(address(msg.sender), address(this), _amount);\n        _lotteries[_lotteryId].amountCollectedInTokens += _amount;\n\n        emit LotteryInjection(_lotteryId, _amount);\n    }\n\n    /**\n     * @notice Start the lottery\n     * @dev Callable by operator\n     * @param _endTime: endTime of the lottery\n     * @param _priceTicketInTokens: price of a ticket in Tokens\n     * @param _discountDivisor: the divisor to calculate the discount magnitude for bulks\n     * @param _rewardsBreakdown: breakdown of rewards per bracket (must sum to 10,000)\n     * @param _treasuryFee: treasury fee (10,000 = 100%, 100 = 1%)\n     */\n    function startLottery(\n        uint256 _endTime,\n        uint256 _priceTicketInTokens,\n        uint256 _discountDivisor,\n        uint256[6] calldata _rewardsBreakdown,\n        uint256 _treasuryFee\n    ) external override onlyOperator {\n        require(\n            (currentLotteryId == 0) || (_lotteries[currentLotteryId].status == Status.Claimable),\n            \"Not time to start lottery\"\n        );\n\n        require(\n            ((_endTime - block.timestamp) > MIN_LENGTH_LOTTERY) && ((_endTime - block.timestamp) < MAX_LENGTH_LOTTERY),\n            \"Lottery length outside of range\"\n        );\n\n        require(\n            (_priceTicketInTokens >= minPriceTicketInTokens) && (_priceTicketInTokens <= maxPriceTicketInTokens),\n            \"Outside of limits\"\n        );\n\n        require(_discountDivisor >= MIN_DISCOUNT_DIVISOR, \"Discount divisor too low\");\n        require(_treasuryFee <= MAX_TREASURY_FEE, \"Treasury fee too high\");\n\n        require(\n            (_rewardsBreakdown[0] +\n                _rewardsBreakdown[1] +\n                _rewardsBreakdown[2] +\n                _rewardsBreakdown[3] +\n                _rewardsBreakdown[4] +\n                _rewardsBreakdown[5]) == 10000,\n            \"Rewards must equal 10000\"\n        );\n\n        currentLotteryId++;\n\n        _lotteries[currentLotteryId] = Lottery({\n            status: Status.Open,\n            startTime: block.timestamp,\n            endTime: _endTime,\n            priceTicketInTokens: _priceTicketInTokens,\n            discountDivisor: _discountDivisor,\n            rewardsBreakdown: _rewardsBreakdown,\n            treasuryFee: _treasuryFee,\n            tokensPerBracket: [uint256(0), uint256(0), uint256(0), uint256(0), uint256(0), uint256(0)],\n            countWinnersPerBracket: [uint256(0), uint256(0), uint256(0), uint256(0), uint256(0), uint256(0)],\n            firstTicketId: currentTicketId,\n            firstTicketIdNextLottery: currentTicketId,\n            amountCollectedInTokens: pendingInjectionNextLottery,\n            finalNumber: 0\n        });\n\n        emit LotteryOpen(\n            currentLotteryId,\n            block.timestamp,\n            _endTime,\n            _priceTicketInTokens,\n            currentTicketId,\n            pendingInjectionNextLottery\n        );\n\n        pendingInjectionNextLottery = 0;\n    }\n\n    /**\n     * @notice It allows the admin to recover wrong tokens sent to the contract\n     * @param _tokenAddress: the address of the token to withdraw\n     * @param _tokenAmount: the number of token amount to withdraw\n     * @dev Only callable by multisig wallet.\n     */\n    function recoverWrongTokens(address _tokenAddress, uint256 _tokenAmount) external onlyWallet {\n        require(_tokenAddress != address(token), \"Cannot be lottery token\");\n\n        IERC20(_tokenAddress).safeTransfer(address(msg.sender), _tokenAmount);\n\n        emit AdminTokenRecovery(_tokenAddress, _tokenAmount);\n    }\n\n    /**\n     * @notice Set Token price ticket upper/lower limit\n     * @dev Only callable by multisig wallet\n     * @param _minPriceTicketInTokens: minimum price of a ticket in Tokens\n     * @param _maxPriceTicketInTokens: maximum price of a ticket in Tokens\n     */\n    function setMinAndMaxTicketPriceInTokens(uint256 _minPriceTicketInTokens, uint256 _maxPriceTicketInTokens)\n        external\n        onlyWallet\n    {\n        require(_minPriceTicketInTokens <= _maxPriceTicketInTokens, \"minPrice must be < maxPrice\");\n\n        minPriceTicketInTokens = _minPriceTicketInTokens;\n        maxPriceTicketInTokens = _maxPriceTicketInTokens;\n    }\n\n    /**\n     * @notice Set max number of tickets\n     * @dev Only callable by multisig wallet\n     */\n    function setMaxNumberTicketsPerBuy(uint256 _maxNumberTicketsPerBuy) external onlyWallet {\n        require(_maxNumberTicketsPerBuy != 0, \"Must be > 0\");\n        require(_maxNumberTicketsPerBuy <= 100, \"Must be < 100\");\n        maxNumberTicketsPerBuyOrClaim = _maxNumberTicketsPerBuy;\n    }\n\n    /**\n     * @notice Set operator, treasury, and injector addresses\n     * @dev Only callable by multisig wallet\n     * @param _operatorAddress: address of the operator\n     * @param _treasuryAddress: address of the treasury\n     * @param _injectorAddress: address of the injector\n     */\n    function setOperatorAndTreasuryAndInjectorAddresses(\n        address _operatorAddress,\n        address _treasuryAddress,\n        address _injectorAddress\n    ) external onlyWallet {\n        require(_operatorAddress != address(0), \"Cannot be zero address\");\n        require(_treasuryAddress != address(0), \"Cannot be zero address\");\n        require(_injectorAddress != address(0), \"Cannot be zero address\");\n\n        operatorAddress = _operatorAddress;\n        treasuryAddress = _treasuryAddress;\n        injectorAddress = _injectorAddress;\n\n        emit NewOperatorAndTreasuryAndInjectorAddresses(_operatorAddress, _treasuryAddress, _injectorAddress);\n    }\n    \n    /**\n     * @notice Set partner and his percentage of the treasure\n     * @dev Only callable by multisig wallet\n     * @param _partnerAddress: address of the partner\n     * @param _partnerPercent: percentage in bp of the treasury\n     */\n    function setPartnerAndFee(address _partnerAddress, uint256 _partnerPercent) external onlyWallet {\n        require(_partnerPercent <= 5000, \"Must be < 50%\");\n        partnerAddress = _partnerAddress;\n        partnerPercent = _partnerPercent;\n    }\n    \n    /**\n     * @notice Set discounter contract\n     * @dev Only callable by multisig wallet\n     * @param _discounterAddress: address of the discounter\n     */\n    function setDiscounter(address _discounterAddress) external onlyWallet {\n        discounter = IDiscounter(_discounterAddress);\n    }\n\n    /**\n     * @notice Calculate price of a set of tickets\n     * @param _discountDivisor: divisor for the discount\n     * @param _priceTicket price of a ticket (in Tokens)\n     * @param _numberTickets number of tickets to buy\n     */\n    function calculateTotalPriceForBulkTickets(\n        uint256 _discountDivisor,\n        uint256 _priceTicket,\n        uint256 _numberTickets\n    ) external view returns (uint256) {\n        require(_discountDivisor >= MIN_DISCOUNT_DIVISOR, \"Must be >= MIN_DISCOUNT_DIVISOR\");\n        require(_numberTickets != 0, \"Number of tickets must be > 0\");\n        (uint256 price,) = _calculateTotalPriceForBulkTickets(_discountDivisor, _priceTicket, _numberTickets);\n\n        return price;\n    }\n\n    /**\n     * @notice View current lottery id\n     */\n    function viewCurrentLotteryId() external view override returns (uint256) {\n        return currentLotteryId;\n    }\n\n    /**\n     * @notice View lottery information\n     * @param _lotteryId: lottery id\n     */\n    function viewLottery(uint256 _lotteryId) external view returns (Lottery memory) {\n        return _lotteries[_lotteryId];\n    }\n\n    /**\n     * @notice View ticker statuses and numbers for an array of ticket ids\n     * @param _ticketIds: array of _ticketId\n     */\n    function viewNumbersAndStatusesForTicketIds(uint256[] calldata _ticketIds)\n        external\n        view\n        returns (uint32[] memory, bool[] memory)\n    {\n        uint256 length = _ticketIds.length;\n        uint32[] memory ticketNumbers = new uint32[](length);\n        bool[] memory ticketStatuses = new bool[](length);\n\n        for (uint256 i = 0; i < length; i++) {\n            ticketNumbers[i] = _tickets[_ticketIds[i]].number;\n            if (_tickets[_ticketIds[i]].owner == address(0)) {\n                ticketStatuses[i] = true;\n            } else {\n                ticketStatuses[i] = false;\n            }\n        }\n\n        return (ticketNumbers, ticketStatuses);\n    }\n\n    /**\n     * @notice View rewards for a given ticket, providing a bracket, and lottery id\n     * @dev Computations are mostly offchain. This is used to verify a ticket!\n     * @param _lotteryId: lottery id\n     * @param _ticketId: ticket id\n     * @param _bracket: bracket for the ticketId to verify the claim and calculate rewards\n     */\n    function viewRewardsForTicketId(\n        uint256 _lotteryId,\n        uint256 _ticketId,\n        uint32 _bracket\n    ) external view returns (uint256) {\n        // Check lottery is in claimable status\n        if (_lotteries[_lotteryId].status != Status.Claimable) {\n            return 0;\n        }\n\n        // Check ticketId is within range\n        if (\n            (_lotteries[_lotteryId].firstTicketIdNextLottery <= _ticketId) || //ticket from next lotteries\n            (_lotteries[_lotteryId].firstTicketId > _ticketId) // ticket from previous lotteries\n        ) {\n            return 0;\n        }\n\n        return _calculateRewardsForTicketId(_lotteryId, _ticketId, _bracket);\n    }\n\n    /**\n     * @notice View user ticket ids, numbers, and statuses of user for a given lottery\n     * @param _user: user address\n     * @param _lotteryId: lottery id\n     * @param _cursor: cursor to start where to retrieve the tickets\n     * @param _size: the number of tickets to retrieve\n     */\n    function viewUserInfoForLotteryId(\n        address _user,\n        uint256 _lotteryId,\n        uint256 _cursor,\n        uint256 _size\n    )\n        external\n        view\n        returns (\n            uint256[] memory,\n            uint32[] memory,\n            bool[] memory,\n            uint256\n        )\n    {\n        uint256 length = _size;\n        uint256 numberTicketsBoughtAtLotteryId = _userTicketIdsPerLotteryId[_user][_lotteryId].length;\n\n        if (length > (numberTicketsBoughtAtLotteryId - _cursor)) {\n            length = numberTicketsBoughtAtLotteryId - _cursor;\n        }\n\n        uint256[] memory lotteryTicketIds = new uint256[](length);\n        uint32[] memory ticketNumbers = new uint32[](length);\n        bool[] memory ticketStatuses = new bool[](length);\n\n        for (uint256 i = 0; i < length; i++) {\n            lotteryTicketIds[i] = _userTicketIdsPerLotteryId[_user][_lotteryId][i + _cursor];\n            ticketNumbers[i] = _tickets[lotteryTicketIds[i]].number;\n\n            // True = ticket claimed\n            if (_tickets[lotteryTicketIds[i]].owner == address(0)) {\n                ticketStatuses[i] = true;\n            } else {\n                // ticket not claimed (includes the ones that cannot be claimed)\n                ticketStatuses[i] = false;\n            }\n        }\n\n        return (lotteryTicketIds, ticketNumbers, ticketStatuses, _cursor + length);\n    }\n\n    /**\n     * @notice Calculate rewards for a given ticket\n     * @param _lotteryId: lottery id\n     * @param _ticketId: ticket id\n     * @param _bracket: bracket for the ticketId to verify the claim and calculate rewards\n     */\n    function _calculateRewardsForTicketId(\n        uint256 _lotteryId,\n        uint256 _ticketId,\n        uint32 _bracket\n    ) internal view returns (uint256) {\n        // Retrieve the winning number combination\n        uint32 winningTicketNumber = _lotteries[_lotteryId].finalNumber;\n\n        // Retrieve the user number combination from the ticketId\n        uint32 userNumber = _tickets[_ticketId].number;\n\n        // Apply transformation to verify the claim provided by the user is true\n        uint32 transformedWinningNumber = winningTicketNumber % (uint32(10)**(_bracket + 1));\n\n        uint32 transformedUserNumber = userNumber % (uint32(10)**(_bracket + 1));\n\n        // Confirm that the two transformed numbers are the same, if not throw\n        if (transformedWinningNumber == transformedUserNumber) {\n            return _lotteries[_lotteryId].tokensPerBracket[_bracket];\n        } else {\n            return 0;\n        }\n    }\n\n    /**\n     * @notice Calculate final price for bulk of tickets\n     * @param _discountDivisor: divisor for the discount (the smaller it is, the greater the discount is)\n     * @param _priceTicket: price of a ticket\n     * @param _numberTickets: number of tickets purchased\n     */\n    function _calculateTotalPriceForBulkTickets(\n        uint256 _discountDivisor,\n        uint256 _priceTicket,\n        uint256 _numberTickets\n    ) internal view returns (uint256 price, uint256 numberOfFreeTickets) {\n        if(address(discounter) != address(0)) {\n            numberOfFreeTickets = discounter.getNumberOfFreeTickets(msg.sender, _numberTickets);\n            if (numberOfFreeTickets > 0) {\n                _numberTickets -= numberOfFreeTickets;\n            }\n        }\n        price = (_priceTicket * _numberTickets * (_discountDivisor + 1 - _numberTickets)) / _discountDivisor;\n        return (price, numberOfFreeTickets);\n    }\n\n    /**\n     * @notice Check if an address is a contract\n     */\n    function _isContract(address _addr) internal view returns (bool) {\n        uint256 size;\n        assembly {\n            size := extcodesize(_addr)\n        }\n        return size > 0;\n    }\n\n    function processReferrals(address referrer) internal {\n        //Return if sender has referrer alredy or referrer is contract or self ref\n        if (hasReferrer(msg.sender) || _isContract(referrer) || referrer == msg.sender) {\n            return;\n        }\n\n        // check cross refs \n        if (referrals[referrer] == msg.sender || referrals[referrals[referrer]] == msg.sender) {\n            return;\n        }\n\n        referrals[msg.sender] = referrer;\n\n        Referrer storage refData = referrers[referrer];\n\n        refData.referralsCount = refData.referralsCount + 1;\n        refData.referrals[refData.referralsCount] = msg.sender;\n        emit RegisteredReferer(msg.sender, referrer);\n    }\n\n    function hasReferrer(address addr) public view returns(bool) {\n        return referrals[addr] != address(0);\n    }\n\n    function claimRewards(uint256 lotteryId) external nonReentrant {\n        uint256 reward = referrersRewards[msg.sender][lotteryId];\n        require(reward > 0, \"no rewards for selected lottery!\");\n        \n        //clear referrer reward as he got it\n        referrersRewards[msg.sender][lotteryId] = 0;\n        IERC20(token).safeTransfer(msg.sender, reward);\n        emit ClaimedReward(msg.sender, lotteryId, reward);\n    }\n    \n\n     /**\n     * @notice Update referrers reward percentage\n     * @param percent: must be in bases point ( 1,5% = 150 bp)\n     * @dev Only callable by multisig wallet.\n     */\n    function updateReferrersPercentage(uint256 percent) external onlyWallet {\n        require(percent <= 1000, \"Should be <= 10%\");\n        referrerRewardPercentage = percent;\n    }\n}",
  "sourcePath": "/Users/aranjak/Code-BC/lottery-contracts/contracts/TokenLottery.sol",
  "compiler": {
    "name": "solc",
    "version": "0.8.4+commit.c7e474f2.Emscripten.clang"
  },
  "schemaVersion": "3.4.0",
  "updatedAt": "2021-11-02T14:56:37.479Z",
  "networkType": "ethereum",
  "devdoc": {
    "kind": "dev",
    "methods": {
      "buyTickets(uint256,uint32[],address)": {
        "details": "Callable by users",
        "params": {
          "_lotteryId": ": lotteryId",
          "_ticketNumbers": ": array of ticket numbers between 1,000,000 and 1,999,999"
        }
      },
      "calculateTotalPriceForBulkTickets(uint256,uint256,uint256)": {
        "params": {
          "_discountDivisor": ": divisor for the discount",
          "_numberTickets": "number of tickets to buy",
          "_priceTicket": "price of a ticket (in Tokens)"
        }
      },
      "changeRandomGenerator(address)": {
        "details": "The calls to functions are used to verify the new generator implements them properly. It is necessary to wait for the VRF response before starting a round. Callable only by multisig wallet",
        "params": {
          "_randomGeneratorAddress": ": address of the random generator"
        }
      },
      "claimTickets(uint256,uint256[],uint32[])": {
        "details": "Callable by users only, not contract!",
        "params": {
          "_brackets": ": array of brackets for the ticket ids",
          "_lotteryId": ": lottery id",
          "_ticketIds": ": array of ticket ids"
        }
      },
      "closeLottery(uint256)": {
        "details": "Callable by operator",
        "params": {
          "_lotteryId": ": lottery id"
        }
      },
      "constructor": {
        "details": "RandomNumberGenerator must be deployed prior to this contract",
        "params": {
          "_randomGeneratorAddress": ": address of the RandomGenerator contract used to work with ChainLink VRF",
          "_tokenAddress": ": address of the Token"
        }
      },
      "drawFinalNumberAndMakeLotteryClaimable(uint256,bool)": {
        "details": "Callable by operator",
        "params": {
          "_autoInjection": ": reinjects funds into next lottery (vs. withdrawing all)",
          "_lotteryId": ": lottery id"
        }
      },
      "injectFunds(uint256,uint256)": {
        "details": "Callable by owner or injector address",
        "params": {
          "_amount": ": amount to inject in tokens",
          "_lotteryId": ": lottery id"
        }
      },
      "owner()": {
        "details": "Returns the address of the current owner."
      },
      "recoverWrongTokens(address,uint256)": {
        "details": "Only callable by multisig wallet.",
        "params": {
          "_tokenAddress": ": the address of the token to withdraw",
          "_tokenAmount": ": the number of token amount to withdraw"
        }
      },
      "renounceOwnership()": {
        "details": "Leaves the contract without owner. It will not be possible to call `onlyOwner` functions anymore. Can only be called by the current owner. NOTE: Renouncing ownership will leave the contract without an owner, thereby removing any functionality that is only available to the owner."
      },
      "setDiscounter(address)": {
        "details": "Only callable by multisig wallet",
        "params": {
          "_discounterAddress": ": address of the discounter"
        }
      },
      "setMaxNumberTicketsPerBuy(uint256)": {
        "details": "Only callable by multisig wallet"
      },
      "setMinAndMaxTicketPriceInTokens(uint256,uint256)": {
        "details": "Only callable by multisig wallet",
        "params": {
          "_maxPriceTicketInTokens": ": maximum price of a ticket in Tokens",
          "_minPriceTicketInTokens": ": minimum price of a ticket in Tokens"
        }
      },
      "setOperatorAndTreasuryAndInjectorAddresses(address,address,address)": {
        "details": "Only callable by multisig wallet",
        "params": {
          "_injectorAddress": ": address of the injector",
          "_operatorAddress": ": address of the operator",
          "_treasuryAddress": ": address of the treasury"
        }
      },
      "setPartnerAndFee(address,uint256)": {
        "details": "Only callable by multisig wallet",
        "params": {
          "_partnerAddress": ": address of the partner",
          "_partnerPercent": ": percentage in bp of the treasury"
        }
      },
      "startLottery(uint256,uint256,uint256,uint256[6],uint256)": {
        "details": "Callable by operator",
        "params": {
          "_discountDivisor": ": the divisor to calculate the discount magnitude for bulks",
          "_endTime": ": endTime of the lottery",
          "_priceTicketInTokens": ": price of a ticket in Tokens",
          "_rewardsBreakdown": ": breakdown of rewards per bracket (must sum to 10,000)",
          "_treasuryFee": ": treasury fee (10,000 = 100%, 100 = 1%)"
        }
      },
      "transferOwnership(address)": {
        "details": "Transfers ownership of the contract to a new account (`newOwner`). Can only be called by the current owner."
      },
      "updateReferrersPercentage(uint256)": {
        "details": "Only callable by multisig wallet.",
        "params": {
          "percent": ": must be in bases point ( 1,5% = 150 bp)"
        }
      },
      "viewLottery(uint256)": {
        "params": {
          "_lotteryId": ": lottery id"
        }
      },
      "viewNumbersAndStatusesForTicketIds(uint256[])": {
        "params": {
          "_ticketIds": ": array of _ticketId"
        }
      },
      "viewRewardsForTicketId(uint256,uint256,uint32)": {
        "details": "Computations are mostly offchain. This is used to verify a ticket!",
        "params": {
          "_bracket": ": bracket for the ticketId to verify the claim and calculate rewards",
          "_lotteryId": ": lottery id",
          "_ticketId": ": ticket id"
        }
      },
      "viewUserInfoForLotteryId(address,uint256,uint256,uint256)": {
        "params": {
          "_cursor": ": cursor to start where to retrieve the tickets",
          "_lotteryId": ": lottery id",
          "_size": ": the number of tickets to retrieve",
          "_user": ": user address"
        }
      }
    },
    "title": "TokenLottery.",
    "version": 1
  },
  "userdoc": {
    "kind": "user",
    "methods": {
      "buyTickets(uint256,uint32[],address)": {
        "notice": "Buy tickets for the current lottery"
      },
      "calculateTotalPriceForBulkTickets(uint256,uint256,uint256)": {
        "notice": "Calculate price of a set of tickets"
      },
      "changeRandomGenerator(address)": {
        "notice": "Change the random generator"
      },
      "claimTickets(uint256,uint256[],uint32[])": {
        "notice": "Claim a set of winning tickets for a lottery"
      },
      "closeLottery(uint256)": {
        "notice": "Close lottery"
      },
      "constructor": {
        "notice": "Constructor"
      },
      "drawFinalNumberAndMakeLotteryClaimable(uint256,bool)": {
        "notice": "Draw the final number, calculate reward in Tokens per group, and make lottery claimable"
      },
      "injectFunds(uint256,uint256)": {
        "notice": "Inject funds"
      },
      "recoverWrongTokens(address,uint256)": {
        "notice": "It allows the admin to recover wrong tokens sent to the contract"
      },
      "setDiscounter(address)": {
        "notice": "Set discounter contract"
      },
      "setMaxNumberTicketsPerBuy(uint256)": {
        "notice": "Set max number of tickets"
      },
      "setMinAndMaxTicketPriceInTokens(uint256,uint256)": {
        "notice": "Set Token price ticket upper/lower limit"
      },
      "setOperatorAndTreasuryAndInjectorAddresses(address,address,address)": {
        "notice": "Set operator, treasury, and injector addresses"
      },
      "setPartnerAndFee(address,uint256)": {
        "notice": "Set partner and his percentage of the treasure"
      },
      "startLottery(uint256,uint256,uint256,uint256[6],uint256)": {
        "notice": "Start the lottery"
      },
      "updateReferrersPercentage(uint256)": {
        "notice": "Update referrers reward percentage"
      },
      "viewCurrentLotteryId()": {
        "notice": "View current lottery id"
      },
      "viewLottery(uint256)": {
        "notice": "View lottery information"
      },
      "viewNumbersAndStatusesForTicketIds(uint256[])": {
        "notice": "View ticker statuses and numbers for an array of ticket ids"
      },
      "viewRewardsForTicketId(uint256,uint256,uint32)": {
        "notice": "View rewards for a given ticket, providing a bracket, and lottery id"
      },
      "viewUserInfoForLotteryId(address,uint256,uint256,uint256)": {
        "notice": "View user ticket ids, numbers, and statuses of user for a given lottery"
      }
    },
    "notice": "It is a contract for a lottery system using randomness provided externally.",
    "version": 1
  }
}