{
  "contractName": "TokenLottery",
  "abi": [
    {
      "inputs": [
        {
          "internalType": "address",
          "name": "_tokenAddress",
          "type": "address"
        },
        {
          "internalType": "address",
          "name": "_randomGeneratorAddress",
          "type": "address"
        },
        {
          "internalType": "address",
          "name": "_wallet",
          "type": "address"
        },
        {
          "internalType": "address",
          "name": "_operatorAddress",
          "type": "address"
        },
        {
          "internalType": "address",
          "name": "_treasuryAddress",
          "type": "address"
        },
        {
          "internalType": "address",
          "name": "_injectorAddress",
          "type": "address"
        }
      ],
      "stateMutability": "nonpayable",
      "type": "constructor"
    },
    {
      "anonymous": false,
      "inputs": [
        {
          "indexed": false,
          "internalType": "address",
          "name": "token",
          "type": "address"
        },
        {
          "indexed": false,
          "internalType": "uint256",
          "name": "amount",
          "type": "uint256"
        }
      ],
      "name": "AdminTokenRecovery",
      "type": "event"
    },
    {
      "anonymous": false,
      "inputs": [
        {
          "indexed": true,
          "internalType": "address",
          "name": "buyer",
          "type": "address"
        },
        {
          "indexed": true,
          "internalType": "uint256",
          "name": "lotteryId",
          "type": "uint256"
        },
        {
          "indexed": false,
          "internalType": "uint256",
          "name": "numberTickets",
          "type": "uint256"
        }
      ],
      "name": "FreeTicketsGiven",
      "type": "event"
    },
    {
      "anonymous": false,
      "inputs": [
        {
          "indexed": true,
          "internalType": "uint256",
          "name": "lotteryId",
          "type": "uint256"
        },
        {
          "indexed": false,
          "internalType": "uint256",
          "name": "firstTicketIdNextLottery",
          "type": "uint256"
        }
      ],
      "name": "LotteryClose",
      "type": "event"
    },
    {
      "anonymous": false,
      "inputs": [
        {
          "indexed": true,
          "internalType": "uint256",
          "name": "lotteryId",
          "type": "uint256"
        },
        {
          "indexed": false,
          "internalType": "uint256",
          "name": "injectedAmount",
          "type": "uint256"
        }
      ],
      "name": "LotteryInjection",
      "type": "event"
    },
    {
      "anonymous": false,
      "inputs": [
        {
          "indexed": true,
          "internalType": "uint256",
          "name": "lotteryId",
          "type": "uint256"
        },
        {
          "indexed": false,
          "internalType": "uint256",
          "name": "finalNumber",
          "type": "uint256"
        },
        {
          "indexed": false,
          "internalType": "uint256",
          "name": "countWinningTickets",
          "type": "uint256"
        }
      ],
      "name": "LotteryNumberDrawn",
      "type": "event"
    },
    {
      "anonymous": false,
      "inputs": [
        {
          "indexed": true,
          "internalType": "uint256",
          "name": "lotteryId",
          "type": "uint256"
        },
        {
          "indexed": false,
          "internalType": "uint256",
          "name": "startTime",
          "type": "uint256"
        },
        {
          "indexed": false,
          "internalType": "uint256",
          "name": "endTime",
          "type": "uint256"
        },
        {
          "indexed": false,
          "internalType": "uint256",
          "name": "priceTicketInTokens",
          "type": "uint256"
        },
        {
          "indexed": false,
          "internalType": "uint256",
          "name": "firstTicketId",
          "type": "uint256"
        },
        {
          "indexed": false,
          "internalType": "uint256",
          "name": "injectedAmount",
          "type": "uint256"
        }
      ],
      "name": "LotteryOpen",
      "type": "event"
    },
    {
      "anonymous": false,
      "inputs": [
        {
          "indexed": false,
          "internalType": "address",
          "name": "operator",
          "type": "address"
        },
        {
          "indexed": false,
          "internalType": "address",
          "name": "treasury",
          "type": "address"
        },
        {
          "indexed": false,
          "internalType": "address",
          "name": "injector",
          "type": "address"
        }
      ],
      "name": "NewOperatorAndTreasuryAndInjectorAddresses",
      "type": "event"
    },
    {
      "anonymous": false,
      "inputs": [
        {
          "indexed": true,
          "internalType": "address",
          "name": "randomGenerator",
          "type": "address"
        }
      ],
      "name": "NewRandomGenerator",
      "type": "event"
    },
    {
      "anonymous": false,
      "inputs": [
        {
          "indexed": true,
          "internalType": "address",
          "name": "previousOwner",
          "type": "address"
        },
        {
          "indexed": true,
          "internalType": "address",
          "name": "newOwner",
          "type": "address"
        }
      ],
      "name": "OwnershipTransferred",
      "type": "event"
    },
    {
      "anonymous": false,
      "inputs": [
        {
          "indexed": true,
          "internalType": "address",
          "name": "claimer",
          "type": "address"
        },
        {
          "indexed": false,
          "internalType": "uint256",
          "name": "amount",
          "type": "uint256"
        },
        {
          "indexed": true,
          "internalType": "uint256",
          "name": "lotteryId",
          "type": "uint256"
        },
        {
          "indexed": false,
          "internalType": "uint256",
          "name": "numberTickets",
          "type": "uint256"
        }
      ],
      "name": "TicketsClaim",
      "type": "event"
    },
    {
      "anonymous": false,
      "inputs": [
        {
          "indexed": true,
          "internalType": "address",
          "name": "buyer",
          "type": "address"
        },
        {
          "indexed": true,
          "internalType": "uint256",
          "name": "lotteryId",
          "type": "uint256"
        },
        {
          "indexed": false,
          "internalType": "uint256",
          "name": "numberTickets",
          "type": "uint256"
        }
      ],
      "name": "TicketsPurchase",
      "type": "event"
    },
    {
      "inputs": [],
      "name": "MAX_LENGTH_LOTTERY",
      "outputs": [
        {
          "internalType": "uint256",
          "name": "",
          "type": "uint256"
        }
      ],
      "stateMutability": "view",
      "type": "function",
      "constant": true
    },
    {
      "inputs": [],
      "name": "MAX_TREASURY_FEE",
      "outputs": [
        {
          "internalType": "uint256",
          "name": "",
          "type": "uint256"
        }
      ],
      "stateMutability": "view",
      "type": "function",
      "constant": true
    },
    {
      "inputs": [],
      "name": "MIN_DISCOUNT_DIVISOR",
      "outputs": [
        {
          "internalType": "uint256",
          "name": "",
          "type": "uint256"
        }
      ],
      "stateMutability": "view",
      "type": "function",
      "constant": true
    },
    {
      "inputs": [],
      "name": "MIN_LENGTH_LOTTERY",
      "outputs": [
        {
          "internalType": "uint256",
          "name": "",
          "type": "uint256"
        }
      ],
      "stateMutability": "view",
      "type": "function",
      "constant": true
    },
    {
      "inputs": [],
      "name": "currentLotteryId",
      "outputs": [
        {
          "internalType": "uint256",
          "name": "",
          "type": "uint256"
        }
      ],
      "stateMutability": "view",
      "type": "function",
      "constant": true
    },
    {
      "inputs": [],
      "name": "currentTicketId",
      "outputs": [
        {
          "internalType": "uint256",
          "name": "",
          "type": "uint256"
        }
      ],
      "stateMutability": "view",
      "type": "function",
      "constant": true
    },
    {
      "inputs": [],
      "name": "discounter",
      "outputs": [
        {
          "internalType": "contract IDiscounter",
          "name": "",
          "type": "address"
        }
      ],
      "stateMutability": "view",
      "type": "function",
      "constant": true
    },
    {
      "inputs": [],
      "name": "injectorAddress",
      "outputs": [
        {
          "internalType": "address",
          "name": "",
          "type": "address"
        }
      ],
      "stateMutability": "view",
      "type": "function",
      "constant": true
    },
    {
      "inputs": [],
      "name": "maxNumberTicketsPerBuyOrClaim",
      "outputs": [
        {
          "internalType": "uint256",
          "name": "",
          "type": "uint256"
        }
      ],
      "stateMutability": "view",
      "type": "function",
      "constant": true
    },
    {
      "inputs": [],
      "name": "maxPriceTicketInTokens",
      "outputs": [
        {
          "internalType": "uint256",
          "name": "",
          "type": "uint256"
        }
      ],
      "stateMutability": "view",
      "type": "function",
      "constant": true
    },
    {
      "inputs": [],
      "name": "minPriceTicketInTokens",
      "outputs": [
        {
          "internalType": "uint256",
          "name": "",
          "type": "uint256"
        }
      ],
      "stateMutability": "view",
      "type": "function",
      "constant": true
    },
    {
      "inputs": [],
      "name": "operatorAddress",
      "outputs": [
        {
          "internalType": "address",
          "name": "",
          "type": "address"
        }
      ],
      "stateMutability": "view",
      "type": "function",
      "constant": true
    },
    {
      "inputs": [],
      "name": "owner",
      "outputs": [
        {
          "internalType": "address",
          "name": "",
          "type": "address"
        }
      ],
      "stateMutability": "view",
      "type": "function",
      "constant": true
    },
    {
      "inputs": [],
      "name": "partnerAddress",
      "outputs": [
        {
          "internalType": "address",
          "name": "",
          "type": "address"
        }
      ],
      "stateMutability": "view",
      "type": "function",
      "constant": true
    },
    {
      "inputs": [],
      "name": "partnerPercent",
      "outputs": [
        {
          "internalType": "uint256",
          "name": "",
          "type": "uint256"
        }
      ],
      "stateMutability": "view",
      "type": "function",
      "constant": true
    },
    {
      "inputs": [],
      "name": "pendingInjectionNextLottery",
      "outputs": [
        {
          "internalType": "uint256",
          "name": "",
          "type": "uint256"
        }
      ],
      "stateMutability": "view",
      "type": "function",
      "constant": true
    },
    {
      "inputs": [],
      "name": "randomGenerator",
      "outputs": [
        {
          "internalType": "contract IRandomNumberGenerator",
          "name": "",
          "type": "address"
        }
      ],
      "stateMutability": "view",
      "type": "function",
      "constant": true
    },
    {
      "inputs": [],
      "name": "renounceOwnership",
      "outputs": [],
      "stateMutability": "nonpayable",
      "type": "function"
    },
    {
      "inputs": [],
      "name": "token",
      "outputs": [
        {
          "internalType": "contract IERC20",
          "name": "",
          "type": "address"
        }
      ],
      "stateMutability": "view",
      "type": "function",
      "constant": true
    },
    {
      "inputs": [
        {
          "internalType": "address",
          "name": "newOwner",
          "type": "address"
        }
      ],
      "name": "transferOwnership",
      "outputs": [],
      "stateMutability": "nonpayable",
      "type": "function"
    },
    {
      "inputs": [],
      "name": "treasuryAddress",
      "outputs": [
        {
          "internalType": "address",
          "name": "",
          "type": "address"
        }
      ],
      "stateMutability": "view",
      "type": "function",
      "constant": true
    },
    {
      "inputs": [],
      "name": "wallet",
      "outputs": [
        {
          "internalType": "address",
          "name": "",
          "type": "address"
        }
      ],
      "stateMutability": "view",
      "type": "function",
      "constant": true
    },
    {
      "inputs": [
        {
          "internalType": "uint256",
          "name": "_lotteryId",
          "type": "uint256"
        },
        {
          "internalType": "uint32[]",
          "name": "_ticketNumbers",
          "type": "uint32[]"
        }
      ],
      "name": "buyTickets",
      "outputs": [],
      "stateMutability": "nonpayable",
      "type": "function"
    },
    {
      "inputs": [
        {
          "internalType": "uint256",
          "name": "_lotteryId",
          "type": "uint256"
        },
        {
          "internalType": "uint256[]",
          "name": "_ticketIds",
          "type": "uint256[]"
        },
        {
          "internalType": "uint32[]",
          "name": "_brackets",
          "type": "uint32[]"
        }
      ],
      "name": "claimTickets",
      "outputs": [],
      "stateMutability": "nonpayable",
      "type": "function"
    },
    {
      "inputs": [
        {
          "internalType": "uint256",
          "name": "_lotteryId",
          "type": "uint256"
        }
      ],
      "name": "closeLottery",
      "outputs": [],
      "stateMutability": "nonpayable",
      "type": "function"
    },
    {
      "inputs": [
        {
          "internalType": "uint256",
          "name": "_lotteryId",
          "type": "uint256"
        },
        {
          "internalType": "bool",
          "name": "_autoInjection",
          "type": "bool"
        }
      ],
      "name": "drawFinalNumberAndMakeLotteryClaimable",
      "outputs": [],
      "stateMutability": "nonpayable",
      "type": "function"
    },
    {
      "inputs": [
        {
          "internalType": "address",
          "name": "_randomGeneratorAddress",
          "type": "address"
        }
      ],
      "name": "changeRandomGenerator",
      "outputs": [],
      "stateMutability": "nonpayable",
      "type": "function"
    },
    {
      "inputs": [
        {
          "internalType": "uint256",
          "name": "_lotteryId",
          "type": "uint256"
        },
        {
          "internalType": "uint256",
          "name": "_amount",
          "type": "uint256"
        }
      ],
      "name": "injectFunds",
      "outputs": [],
      "stateMutability": "nonpayable",
      "type": "function"
    },
    {
      "inputs": [
        {
          "internalType": "uint256",
          "name": "_endTime",
          "type": "uint256"
        },
        {
          "internalType": "uint256",
          "name": "_priceTicketInTokens",
          "type": "uint256"
        },
        {
          "internalType": "uint256",
          "name": "_discountDivisor",
          "type": "uint256"
        },
        {
          "internalType": "uint256[6]",
          "name": "_rewardsBreakdown",
          "type": "uint256[6]"
        },
        {
          "internalType": "uint256",
          "name": "_treasuryFee",
          "type": "uint256"
        }
      ],
      "name": "startLottery",
      "outputs": [],
      "stateMutability": "nonpayable",
      "type": "function"
    },
    {
      "inputs": [
        {
          "internalType": "address",
          "name": "_tokenAddress",
          "type": "address"
        },
        {
          "internalType": "uint256",
          "name": "_tokenAmount",
          "type": "uint256"
        }
      ],
      "name": "recoverWrongTokens",
      "outputs": [],
      "stateMutability": "nonpayable",
      "type": "function"
    },
    {
      "inputs": [
        {
          "internalType": "uint256",
          "name": "_minPriceTicketInTokens",
          "type": "uint256"
        },
        {
          "internalType": "uint256",
          "name": "_maxPriceTicketInTokens",
          "type": "uint256"
        }
      ],
      "name": "setMinAndMaxTicketPriceInTokens",
      "outputs": [],
      "stateMutability": "nonpayable",
      "type": "function"
    },
    {
      "inputs": [
        {
          "internalType": "uint256",
          "name": "_maxNumberTicketsPerBuy",
          "type": "uint256"
        }
      ],
      "name": "setMaxNumberTicketsPerBuy",
      "outputs": [],
      "stateMutability": "nonpayable",
      "type": "function"
    },
    {
      "inputs": [
        {
          "internalType": "address",
          "name": "_operatorAddress",
          "type": "address"
        },
        {
          "internalType": "address",
          "name": "_treasuryAddress",
          "type": "address"
        },
        {
          "internalType": "address",
          "name": "_injectorAddress",
          "type": "address"
        }
      ],
      "name": "setOperatorAndTreasuryAndInjectorAddresses",
      "outputs": [],
      "stateMutability": "nonpayable",
      "type": "function"
    },
    {
      "inputs": [
        {
          "internalType": "address",
          "name": "_partnerAddress",
          "type": "address"
        },
        {
          "internalType": "uint256",
          "name": "_partnerPercent",
          "type": "uint256"
        }
      ],
      "name": "setPartnerAndFee",
      "outputs": [],
      "stateMutability": "nonpayable",
      "type": "function"
    },
    {
      "inputs": [
        {
          "internalType": "address",
          "name": "_discounterAddress",
          "type": "address"
        }
      ],
      "name": "setDiscounter",
      "outputs": [],
      "stateMutability": "nonpayable",
      "type": "function"
    },
    {
      "inputs": [
        {
          "internalType": "uint256",
          "name": "_discountDivisor",
          "type": "uint256"
        },
        {
          "internalType": "uint256",
          "name": "_priceTicket",
          "type": "uint256"
        },
        {
          "internalType": "uint256",
          "name": "_numberTickets",
          "type": "uint256"
        }
      ],
      "name": "calculateTotalPriceForBulkTickets",
      "outputs": [
        {
          "internalType": "uint256",
          "name": "",
          "type": "uint256"
        }
      ],
      "stateMutability": "view",
      "type": "function",
      "constant": true
    },
    {
      "inputs": [],
      "name": "viewCurrentLotteryId",
      "outputs": [
        {
          "internalType": "uint256",
          "name": "",
          "type": "uint256"
        }
      ],
      "stateMutability": "view",
      "type": "function",
      "constant": true
    },
    {
      "inputs": [
        {
          "internalType": "uint256",
          "name": "_lotteryId",
          "type": "uint256"
        }
      ],
      "name": "viewLottery",
      "outputs": [
        {
          "components": [
            {
              "internalType": "enum TokenLottery.Status",
              "name": "status",
              "type": "uint8"
            },
            {
              "internalType": "uint256",
              "name": "startTime",
              "type": "uint256"
            },
            {
              "internalType": "uint256",
              "name": "endTime",
              "type": "uint256"
            },
            {
              "internalType": "uint256",
              "name": "priceTicketInTokens",
              "type": "uint256"
            },
            {
              "internalType": "uint256",
              "name": "discountDivisor",
              "type": "uint256"
            },
            {
              "internalType": "uint256[6]",
              "name": "rewardsBreakdown",
              "type": "uint256[6]"
            },
            {
              "internalType": "uint256",
              "name": "treasuryFee",
              "type": "uint256"
            },
            {
              "internalType": "uint256[6]",
              "name": "tokensPerBracket",
              "type": "uint256[6]"
            },
            {
              "internalType": "uint256[6]",
              "name": "countWinnersPerBracket",
              "type": "uint256[6]"
            },
            {
              "internalType": "uint256",
              "name": "firstTicketId",
              "type": "uint256"
            },
            {
              "internalType": "uint256",
              "name": "firstTicketIdNextLottery",
              "type": "uint256"
            },
            {
              "internalType": "uint256",
              "name": "amountCollectedInTokens",
              "type": "uint256"
            },
            {
              "internalType": "uint32",
              "name": "finalNumber",
              "type": "uint32"
            }
          ],
          "internalType": "struct TokenLottery.Lottery",
          "name": "",
          "type": "tuple"
        }
      ],
      "stateMutability": "view",
      "type": "function",
      "constant": true
    },
    {
      "inputs": [
        {
          "internalType": "uint256[]",
          "name": "_ticketIds",
          "type": "uint256[]"
        }
      ],
      "name": "viewNumbersAndStatusesForTicketIds",
      "outputs": [
        {
          "internalType": "uint32[]",
          "name": "",
          "type": "uint32[]"
        },
        {
          "internalType": "bool[]",
          "name": "",
          "type": "bool[]"
        }
      ],
      "stateMutability": "view",
      "type": "function",
      "constant": true
    },
    {
      "inputs": [
        {
          "internalType": "uint256",
          "name": "_lotteryId",
          "type": "uint256"
        },
        {
          "internalType": "uint256",
          "name": "_ticketId",
          "type": "uint256"
        },
        {
          "internalType": "uint32",
          "name": "_bracket",
          "type": "uint32"
        }
      ],
      "name": "viewRewardsForTicketId",
      "outputs": [
        {
          "internalType": "uint256",
          "name": "",
          "type": "uint256"
        }
      ],
      "stateMutability": "view",
      "type": "function",
      "constant": true
    },
    {
      "inputs": [
        {
          "internalType": "address",
          "name": "_user",
          "type": "address"
        },
        {
          "internalType": "uint256",
          "name": "_lotteryId",
          "type": "uint256"
        },
        {
          "internalType": "uint256",
          "name": "_cursor",
          "type": "uint256"
        },
        {
          "internalType": "uint256",
          "name": "_size",
          "type": "uint256"
        }
      ],
      "name": "viewUserInfoForLotteryId",
      "outputs": [
        {
          "internalType": "uint256[]",
          "name": "",
          "type": "uint256[]"
        },
        {
          "internalType": "uint32[]",
          "name": "",
          "type": "uint32[]"
        },
        {
          "internalType": "bool[]",
          "name": "",
          "type": "bool[]"
        },
        {
          "internalType": "uint256",
          "name": "",
          "type": "uint256"
        }
      ],
      "stateMutability": "view",
      "type": "function",
      "constant": true
    }
  ],
  "bytecode": "0x60a06040526064600855681b1ae4d6e2ef5000006009556611c37937e08000600a553480156200002e57600080fd5b50604051620042ac380380620042ac83398101604081905262000051916200025d565b60016000556200006133620001ee565b600d80546001600160a01b039788166001600160a01b031991821617909155600e80549688169682169690961790955560126020527f7e7fa33969761a458e04f477e039a608702b4f924981d6653935a8319a08ad7b805463ffffffff199081166001179091557f71a67924699a20698523213e55fe499d539379d7769cd5567e2c45d583f815a380548216600b1790557f8e1fee8c88a9e04123b21e90cae2727a7715bf522a1e46eb5934ccd05203a6b280548216606f1790557f0f36ad39aee03e7108cc48f54934702a5f0d4066f10344cebf8198978d86976a805482166104571790557fb4fcd034df3d20faa1c133b66d862ce92732727d40916b48ffb4020cb00fe05380548216612b6717905560056000527f45429b9195d4ec5c0cf6c69e9c21a4ca0ea773b702c2de5735f85d2631f2674680549091166201b2071790556001600160601b031960609490941b9390931660805260038054928616928516929092179091556004805491851691841691909117905560028054919093169116179055620002dd565b600180546001600160a01b038381166001600160a01b0319831681179093556040519116919082907f8be0079c531659141344cd1fd0a4f28419497f9722a3daafe3b4186f6b6457e090600090a35050565b80516001600160a01b03811681146200025857600080fd5b919050565b60008060008060008060c0878903121562000276578182fd5b620002818762000240565b9550620002916020880162000240565b9450620002a16040880162000240565b9350620002b16060880162000240565b9250620002c16080880162000240565b9150620002d160a0880162000240565b90509295509295509295565b60805160601c613f7f6200032d6000396000818161033801528181610ae201528181610d3c015281816116ab01528181612c6701528181612da501528181612e550152612ef80152613f7f6000f3fe608060405234801561001057600080fd5b50600436106102535760003560e01c806388303dbd11610146578063c914914f116100c3578063e992018111610087578063e9920181146104f0578063efb906ea14610503578063f2b3c80914610516578063f2fde38b1461051f578063f4fe62af14610532578063fc0c546a1461053b57600080fd5b8063c914914f1461049a578063da4ca039146104ad578063db19da0d146104c0578063dcbad90d146104ca578063dd103a5e146104dd57600080fd5b80639d8ca5311161010a5780639d8ca5311461043b578063b1829b821461044e578063c38de53914610461578063c4937ab914610474578063c5f956af1461048757600080fd5b806388303dbd146103d05780638da5cb5b146103e35780638fc3539a146103f457806398359fa1146104155780639c3846531461042857600080fd5b806353d5ec94116101d45780636be4097c116101985780636be4097c1461039b578063715018a6146103a45780637cb583bd146103ac57806380a06160146103b5578063830eec59146103bd57600080fd5b806353d5ec941461035a578063576168fc1461036357806360f6ff9614610376578063686465b81461037f5780636b8737881461038857600080fd5b80632423807a1161021b5780632423807a146102d85780632e530cae146102f85780633f138d4b1461030b578063471aeab414610320578063521eb2731461033357600080fd5b806305531eeb1461025857806307fb5a9c14610284578063127effb21461029b57806312a9769d146102c65780631fe86c6b146102cf575b600080fd5b61026b61026636600461368e565b61054e565b60405161027b9493929190613a1d565b60405180910390f35b61028d61038481565b60405190815260200161027b565b6003546102ae906001600160a01b031681565b6040516001600160a01b03909116815260200161027b565b61028d600b5481565b61028d60085481565b6102eb6102e6366004613722565b6108c6565b60405161027b9190613bcb565b61028d6103063660046138db565b610a43565b61031e610319366004613665565b610ad7565b005b61031e61032e366004613842565b610be0565b6102ae7f000000000000000000000000000000000000000000000000000000000000000081565b61028d600c5481565b6005546102ae906001600160a01b031681565b61028d60095481565b61028d60075481565b61031e610396366004613722565b610d31565b61028d60065481565b61031e610dfa565b61028d61012c81565b60065461028d565b600f546102ae906001600160a01b031681565b61031e6103de3660046137c9565b610e60565b6001546001600160a01b03166102ae565b6104076104023660046136c6565b611484565b60405161027b929190613a91565b61031e610423366004613609565b6116a0565b6002546102ae906001600160a01b031681565b61031e610449366004613722565b61187a565b61031e61045c36600461388e565b611a5d565b61031e61046f366004613813565b611f63565b61028d610482366004613863565b6125e7565b6004546102ae906001600160a01b031681565b61031e6104a8366004613752565b61269f565b61031e6104bb366004613623565b612c5c565b61028d6205472c81565b600e546102ae906001600160a01b031681565b61031e6104eb366004613665565b612d9a565b61031e6104fe366004613842565b612e4a565b61031e610511366004613609565b612eed565b61028d610bb881565b61031e61052d366004613609565b612f57565b61028d600a5481565b600d546102ae906001600160a01b031681565b6001600160a01b0384166000908152601460209081526040808320868452909152812054606091829182919085906105868882613e33565b82111561059a576105978882613e33565b91505b60008267ffffffffffffffff8111156105c357634e487b7160e01b600052604160045260246000fd5b6040519080825280602002602001820160405280156105ec578160200160208202803683370190505b50905060008367ffffffffffffffff81111561061857634e487b7160e01b600052604160045260246000fd5b604051908082528060200260200182016040528015610641578160200160208202803683370190505b50905060008467ffffffffffffffff81111561066d57634e487b7160e01b600052604160045260246000fd5b604051908082528060200260200182016040528015610696578160200160208202803683370190505b50905060005b858110156108a057601460008f6001600160a01b03166001600160a01b0316815260200190815260200160002060008e81526020019081526020016000208c826106e69190613c8e565b8154811061070457634e487b7160e01b600052603260045260246000fd5b906000526020600020015484828151811061072f57634e487b7160e01b600052603260045260246000fd5b6020026020010181815250506011600085838151811061075f57634e487b7160e01b600052603260045260246000fd5b6020026020010151815260200190815260200160002060000160009054906101000a900463ffffffff168382815181106107a957634e487b7160e01b600052603260045260246000fd5b602002602001019063ffffffff16908163ffffffff168152505060006001600160a01b0316601160008684815181106107f257634e487b7160e01b600052603260045260246000fd5b60209081029190910181015182528101919091526040016000205464010000000090046001600160a01b0316141561085b57600182828151811061084657634e487b7160e01b600052603260045260246000fd5b9115156020928302919091019091015261088e565b600082828151811061087d57634e487b7160e01b600052603260045260246000fd5b911515602092830291909101909101525b8061089881613e9b565b91505061069c565b508282826108ae888f613c8e565b98509850985098505050505050945094509450949050565b6108ce6134b8565b6000828152601060205260409081902081516101a081019092528054829060ff16600381111561090e57634e487b7160e01b600052602160045260246000fd5b600381111561092d57634e487b7160e01b600052602160045260246000fd5b81526001820154602082015260028201546040808301919091526003830154606083015260048301546080830152805160c081019182905260a09092019190600584019060069082845b815481526020019060010190808311610977575050509183525050600b82015460208201526040805160c081018252910190600c830160068282826020028201915b8154815260200190600101908083116109b95750505091835250506040805160c081019182905260209092019190601284019060069082845b8154815260200190600101908083116109f25750505091835250506018820154602082015260198201546040820152601a8201546060820152601b9091015463ffffffff1660809091015292915050565b6000600360008581526010602052604090205460ff166003811115610a7857634e487b7160e01b600052602160045260246000fd5b14610a8557506000610ad0565b60008481526010602052604090206019015483101580610ab5575060008481526010602052604090206018015483105b15610ac257506000610ad0565b610acd848484613022565b90505b9392505050565b336001600160a01b037f00000000000000000000000000000000000000000000000000000000000000001614610b285760405162461bcd60e51b8152600401610b1f90613af2565b60405180910390fd5b600d546001600160a01b0383811691161415610b865760405162461bcd60e51b815260206004820152601760248201527f43616e6e6f74206265206c6f747465727920746f6b656e0000000000000000006044820152606401610b1f565b610b9a6001600160a01b03831633836130f7565b604080516001600160a01b0384168152602081018390527f74545154aac348a3eac92596bd1971957ca94795f4e954ec5f613b55fab78129910160405180910390a15050565b6001546001600160a01b0316331480610c0357506002546001600160a01b031633145b610c475760405162461bcd60e51b81526020600482015260156024820152742737ba1037bbb732b91037b91034b73532b1ba37b960591b6044820152606401610b1f565b600160008381526010602052604090205460ff166003811115610c7a57634e487b7160e01b600052602160045260246000fd5b14610cba5760405162461bcd60e51b815260206004820152601060248201526f2637ba3a32b93c903737ba1037b832b760811b6044820152606401610b1f565b600d54610cd2906001600160a01b031633308461315f565b6000828152601060205260408120601a018054839290610cf3908490613c8e565b909155505060405181815282907f1bbd659dd628a25f7ff2eabb69c74a56939c539728282275c1c9c1a2d3e340499060200160405180910390a25050565b336001600160a01b037f00000000000000000000000000000000000000000000000000000000000000001614610d795760405162461bcd60e51b8152600401610b1f90613af2565b80610db45760405162461bcd60e51b815260206004820152600b60248201526a04d757374206265203e20360ac1b6044820152606401610b1f565b6064811115610df55760405162461bcd60e51b815260206004820152600d60248201526c04d757374206265203c2031303609c1b6044820152606401610b1f565b600855565b6001546001600160a01b03163314610e545760405162461bcd60e51b815260206004820181905260248201527f4f776e61626c653a2063616c6c6572206973206e6f7420746865206f776e65726044820152606401610b1f565b610e5e600061319d565b565b333b15610ea65760405162461bcd60e51b815260206004820152601460248201527310dbdb9d1c9858dd081b9bdd08185b1b1bddd95960621b6044820152606401610b1f565b333214610ef55760405162461bcd60e51b815260206004820152601a60248201527f50726f787920636f6e7472616374206e6f7420616c6c6f7765640000000000006044820152606401610b1f565b60026000541415610f185760405162461bcd60e51b8152600401610b1f90613b6e565b600260005580610f605760405162461bcd60e51b8152602060048201526013602482015272139bc81d1a58dad95d081cdc1958da599a5959606a1b6044820152606401610b1f565b600854811115610fa55760405162461bcd60e51b815260206004820152601060248201526f546f6f206d616e79207469636b65747360801b6044820152606401610b1f565b600160008481526010602052604090205460ff166003811115610fd857634e487b7160e01b600052602160045260246000fd5b1461101b5760405162461bcd60e51b81526020600482015260136024820152722637ba3a32b93c9034b9903737ba1037b832b760691b6044820152606401610b1f565b600083815260106020526040902060020154421061106d5760405162461bcd60e51b815260206004820152600f60248201526e2637ba3a32b93c9034b99037bb32b960891b6044820152606401610b1f565b60008381526010602052604081206004810154600390910154829161109291856131ef565b600d5491935091506110af906001600160a01b031633308561315f565b6000858152601060205260408120601a0180548492906110d0908490613c8e565b90915550600090505b8381101561140157600085858381811061110357634e487b7160e01b600052603260045260246000fd5b90506020020160208101906111189190613913565b9050620f42408163ffffffff161015801561113c5750621e847f8163ffffffff1611155b6111785760405162461bcd60e51b815260206004820152600d60248201526c4f7574736964652072616e676560981b6044820152606401610b1f565b600087815260136020526040812090611192600a84613eda565b61119d906001613ca6565b63ffffffff168152602081019190915260400160009081208054916111c183613e9b565b90915550506000878152601360205260408120906111e0606484613eda565b6111eb90600b613ca6565b63ffffffff1681526020810191909152604001600090812080549161120f83613e9b565b909155505060008781526013602052604081209061122f6103e884613eda565b61123a90606f613ca6565b63ffffffff1681526020810191909152604001600090812080549161125e83613e9b565b909155505060008781526013602052604081209061127e61271084613eda565b61128a90610457613ca6565b63ffffffff168152602081019190915260400160009081208054916112ae83613e9b565b90915550506000878152601360205260408120906112cf620186a084613eda565b6112db90612b67613ca6565b63ffffffff168152602081019190915260400160009081208054916112ff83613e9b565b9091555050600087815260136020526040812090611320620f424084613eda565b61132d906201b207613ca6565b63ffffffff1681526020810191909152604001600090812080549161135183613e9b565b90915550503360008181526014602090815260408083208b84528252808320600780548254600181018455928652848620909201919091558151808301835263ffffffff80881682528185019687528254865260119094529184209151825495516001600160a01b0316640100000000026001600160c01b031990961693169290921793909317909255815491906113e883613e9b565b91905055505080806113f990613e9b565b9150506110d9565b50604051838152859033907fd7d247b583de1023852eef87b48f54354dbec771d01bc2cc49e96094efc322b99060200160405180910390a380156114785760065460405182815233907f4186cffa8302bdac9c3f19bfb8dd2f673d9466069d5b86f742f563ffed5094999060200160405180910390a35b50506001600055505050565b6060808260008167ffffffffffffffff8111156114b157634e487b7160e01b600052604160045260246000fd5b6040519080825280602002602001820160405280156114da578160200160208202803683370190505b50905060008267ffffffffffffffff81111561150657634e487b7160e01b600052604160045260246000fd5b60405190808252806020026020018201604052801561152f578160200160208202803683370190505b50905060005b83811015611691576011600089898481811061156157634e487b7160e01b600052603260045260246000fd5b90506020020135815260200190815260200160002060000160009054906101000a900463ffffffff168382815181106115aa57634e487b7160e01b600052603260045260246000fd5b63ffffffff9092166020928302919091019091015260006011818a8a858181106115e457634e487b7160e01b600052603260045260246000fd5b602090810292909201358352508101919091526040016000205464010000000090046001600160a01b0316141561164c57600182828151811061163757634e487b7160e01b600052603260045260246000fd5b9115156020928302919091019091015261167f565b600082828151811061166e57634e487b7160e01b600052603260045260246000fd5b911515602092830291909101909101525b8061168981613e9b565b915050611535565b509093509150505b9250929050565b336001600160a01b037f000000000000000000000000000000000000000000000000000000000000000016146116e85760405162461bcd60e51b8152600401610b1f90613af2565b600360065460009081526010602052604090205460ff16600381111561171e57634e487b7160e01b600052602160045260246000fd5b1461176b5760405162461bcd60e51b815260206004820152601860248201527f4c6f7474657279206e6f7420696e20636c61696d61626c6500000000000000006044820152606401610b1f565b806001600160a01b031663dbdff2c16040518163ffffffff1660e01b8152600401600060405180830381600087803b1580156117a657600080fd5b505af11580156117ba573d6000803e3d6000fd5b50505050806001600160a01b031663a1c4f55a6040518163ffffffff1660e01b815260040160206040518083038186803b1580156117f757600080fd5b505afa15801561180b573d6000803e3d6000fd5b505050506040513d601f19601f8201168201806040525081019061182f919061392f565b50600e80546001600160a01b0319166001600160a01b0383169081179091556040517f383f8cb39dfa7c3fb901a460dd449ea924868f0a92ff03da64740fffa5f1de6290600090a250565b6003546001600160a01b031633146118a45760405162461bcd60e51b8152600401610b1f90613ba5565b600260005414156118c75760405162461bcd60e51b8152600401610b1f90613b6e565b6002600055600160008281526010602052604090205460ff1660038111156118ff57634e487b7160e01b600052602160045260246000fd5b1461193f5760405162461bcd60e51b815260206004820152601060248201526f2637ba3a32b93c903737ba1037b832b760811b6044820152606401610b1f565b60008181526010602052604090206002015442116119925760405162461bcd60e51b815260206004820152601060248201526f2637ba3a32b93c903737ba1037bb32b960811b6044820152606401610b1f565b60075460008281526010602052604080822060190192909255600e54825163dbdff2c160e01b815292516001600160a01b039091169263dbdff2c192600480830193919282900301818387803b1580156119eb57600080fd5b505af11580156119ff573d6000803e3d6000fd5b505050600082815260106020908152604091829020805460ff1916600217905560075491519182528392507f3728e75294796694d59d2ffced9c394279baf7b9ebd2702db43f5f04bac67929910160405180910390a2506001600055565b6003546001600160a01b03163314611a875760405162461bcd60e51b8152600401610b1f90613ba5565b6006541580611ac95750600360065460009081526010602052604090205460ff166003811115611ac757634e487b7160e01b600052602160045260246000fd5b145b611b155760405162461bcd60e51b815260206004820152601960248201527f4e6f742074696d6520746f207374617274206c6f7474657279000000000000006044820152606401610b1f565b610384611b224287613e33565b118015611b3a57506205472c611b384287613e33565b105b611b865760405162461bcd60e51b815260206004820152601f60248201527f4c6f7474657279206c656e677468206f757473696465206f662072616e6765006044820152606401610b1f565b600a548410158015611b9a57506009548411155b611bda5760405162461bcd60e51b81526020600482015260116024820152704f757473696465206f66206c696d69747360781b6044820152606401610b1f565b61012c831015611c2c5760405162461bcd60e51b815260206004820152601860248201527f446973636f756e742064697669736f7220746f6f206c6f7700000000000000006044820152606401610b1f565b610bb8811115611c765760405162461bcd60e51b81526020600482015260156024820152740a8e4cac2e6eae4f240cccaca40e8dede40d0d2ced605b1b6044820152606401610b1f565b60a0820135608083013560608401356040850135611c9960208701358735613c8e565b611ca39190613c8e565b611cad9190613c8e565b611cb79190613c8e565b611cc19190613c8e565b61271014611d115760405162461bcd60e51b815260206004820152601860248201527f52657761726473206d75737420657175616c20313030303000000000000000006044820152606401610b1f565b60068054906000611d2183613e9b565b9091555050604080516101a0810190915280600181526020014281526020018681526020018581526020018481526020018360068060200260405190810160405280929190826006602002808284376000920182905250928452505060208083018590526040805160c080820183528482528184018590528183018590526060808301869052608080840187905260a080850188905285890194909452845180840186528781528087018890528086018890528083018890528082018890528085018890529188019190915260075490870181905291860191909152600b549085015260e09093018290526006548252601090522081518154829060ff19166001836003811115611e4257634e487b7160e01b600052602160045260246000fd5b02179055506020820151600182015560408201516002820155606082015160038201556080820151600482015560a0820151611e849060058301906006613539565b5060c0820151600b82015560e0820151611ea490600c8301906006613539565b50610100820151611ebb9060128301906006613539565b5061012082015160188201556101408201516019820155610160820151601a82015561018090910151601b909101805463ffffffff191663ffffffff909216919091179055600654600754600b5460408051428152602081018a9052908101889052606081019290925260808201527f367e70f8c0e0c0a6504d92172bda155c02022d532fc85b5d66a9c49e31c8bc779060a00160405180910390a250506000600b55505050565b6003546001600160a01b03163314611f8d5760405162461bcd60e51b8152600401610b1f90613ba5565b60026000541415611fb05760405162461bcd60e51b8152600401610b1f90613b6e565b600260008181558381526010602052604090205460ff166003811115611fe657634e487b7160e01b600052602160045260246000fd5b146120275760405162461bcd60e51b81526020600482015260116024820152704c6f7474657279206e6f7420636c6f736560781b6044820152606401610b1f565b600e60009054906101000a90046001600160a01b03166001600160a01b031663fbe5d9176040518163ffffffff1660e01b815260040160206040518083038186803b15801561207557600080fd5b505afa158015612089573d6000803e3d6000fd5b505050506040513d601f19601f820116820180604052508101906120ad919061373a565b82146120ef5760405162461bcd60e51b8152602060048201526011602482015270273ab6b132b939903737ba10323930bbb760791b6044820152606401610b1f565b600e54604080516350e27aad60e11b815290516000926001600160a01b03169163a1c4f55a916004808301926020929190829003018186803b15801561213457600080fd5b505afa158015612148573d6000803e3d6000fd5b505050506040513d601f19601f8201168201806040525081019061216c919061392f565b6000848152601060205260408120600b0154919250908190612710906121929082613e33565b6000878152601060205260409020601a01546121ae9190613e14565b6121b89190613cce565b90506000805b60068163ffffffff1610156124865760006121da826005613e4a565b905060006121e9826001613ca6565b6121f490600a613d29565b6121fe9088613eda565b63ffffffff808416600090815260126020526040902054612220929116613ca6565b60008a815260136020908152604080832063ffffffff8516845290915290205490915061224e908790613e33565b60008a815260106020526040902060120163ffffffff84166006811061228457634e487b7160e01b600052603260045260246000fd5b0155600089815260136020908152604080832063ffffffff851684529091529020546122b1908790613e33565b156123da57600089815260106020526040902060050163ffffffff8316600681106122ec57634e487b7160e01b600052603260045260246000fd5b0154156123d557600089815260136020908152604080832063ffffffff8516845290915290205461271090612322908890613e33565b60008b8152601060205260409020879060050163ffffffff86166006811061235a57634e487b7160e01b600052603260045260246000fd5b01546123669190613e14565b6123709190613cce565b61237a9190613cce565b60008a8152601060205260409020600c0163ffffffff8416600681106123b057634e487b7160e01b600052603260045260246000fd5b0155600089815260136020908152604080832063ffffffff8516845290915290205495505b612471565b6000898152601060205260408120600c0163ffffffff84166006811061241057634e487b7160e01b600052603260045260246000fd5b0155600089815260106020526040902061271090869060050163ffffffff85166006811061244e57634e487b7160e01b600052603260045260246000fd5b015461245a9190613e14565b6124649190613cce565b61246e9085613c8e565b93505b5050808061247e90613eb6565b9150506121be565b506000868152601060205260409020601b8101805463ffffffff871663ffffffff19909116179055805460ff1916600317905584156124c557600b5560005b6000868152601060205260409020601a01546124e2908390613e33565b6124ec9082613c8e565b90506000600c5411801561250a57506005546001600160a01b031615155b1561257b576000612710600c54836125229190613e14565b61252c9190613cce565b90506125388183613e33565b600454600d54919350612558916001600160a01b039081169116846130f7565b600554600d54612575916001600160a01b039182169116836130f7565b50612598565b600454600d54612598916001600160a01b039182169116836130f7565b6006546040805163ffffffff87168152602081018690527f98e31a6607b8b15b4d5b91de54f4c09ffe4c4cf162aa532c70b5213754e2e703910160405180910390a25050600160005550505050565b600061012c84101561263b5760405162461bcd60e51b815260206004820152601f60248201527f4d757374206265203e3d204d494e5f444953434f554e545f44495649534f52006044820152606401610b1f565b816126885760405162461bcd60e51b815260206004820152601d60248201527f4e756d626572206f66207469636b657473206d757374206265203e20300000006044820152606401610b1f565b60006126958585856131ef565b5095945050505050565b333b156126e55760405162461bcd60e51b815260206004820152601460248201527310dbdb9d1c9858dd081b9bdd08185b1b1bddd95960621b6044820152606401610b1f565b3332146127345760405162461bcd60e51b815260206004820152601a60248201527f50726f787920636f6e7472616374206e6f7420616c6c6f7765640000000000006044820152606401610b1f565b600260005414156127575760405162461bcd60e51b8152600401610b1f90613b6e565b600260005582811461279d5760405162461bcd60e51b815260206004820152600f60248201526e09cdee840e6c2daca40d8cadccee8d608b1b6044820152606401610b1f565b826127de5760405162461bcd60e51b815260206004820152601160248201527004c656e677468206d757374206265203e3607c1b6044820152606401610b1f565b6008548311156128235760405162461bcd60e51b815260206004820152601060248201526f546f6f206d616e79207469636b65747360801b6044820152606401610b1f565b600360008681526010602052604090205460ff16600381111561285657634e487b7160e01b600052602160045260246000fd5b1461289b5760405162461bcd60e51b81526020600482015260156024820152744c6f7474657279206e6f7420636c61696d61626c6560581b6044820152606401610b1f565b6000805b84811015612bfa5760068484838181106128c957634e487b7160e01b600052603260045260246000fd5b90506020020160208101906128de9190613913565b63ffffffff16106129285760405162461bcd60e51b8152602060048201526014602482015273427261636b6574206f7574206f662072616e676560601b6044820152606401610b1f565b600086868381811061294a57634e487b7160e01b600052603260045260246000fd5b90506020020135905080601060008a815260200190815260200160002060190154116129ac5760405162461bcd60e51b81526020600482015260116024820152700a8d2c6d6cae892c840e8dede40d0d2ced607b1b6044820152606401610b1f565b600088815260106020526040902060180154811015612a005760405162461bcd60e51b815260206004820152601060248201526f5469636b6574496420746f6f206c6f7760801b6044820152606401610b1f565b60008181526011602052604090205464010000000090046001600160a01b03163314612a5e5760405162461bcd60e51b815260206004820152600d60248201526c2737ba103a34329037bbb732b960991b6044820152606401610b1f565b60008181526011602052604081208054640100000000600160c01b0319169055612abd8983888887818110612aa357634e487b7160e01b600052603260045260246000fd5b9050602002016020810190612ab89190613913565b613022565b905080612b0c5760405162461bcd60e51b815260206004820152601960248201527f4e6f207072697a6520666f72207468697320627261636b6574000000000000006044820152606401610b1f565b858584818110612b2c57634e487b7160e01b600052603260045260246000fd5b9050602002016020810190612b419190613913565b63ffffffff16600514612bd957612b938983888887818110612b7357634e487b7160e01b600052603260045260246000fd5b9050602002016020810190612b889190613913565b612ab8906001613ca6565b15612bd95760405162461bcd60e51b8152602060048201526016602482015275213930b1b5b2ba1036bab9ba103132903434b3b432b960511b6044820152606401610b1f565b612be38185613c8e565b935050508080612bf290613e9b565b91505061289f565b50600d54612c12906001600160a01b031633836130f7565b6040805182815260208101869052879133917f0f5fca62da8fb5d95525b49e5eaa7b20bc6bd9e2f6b64b493442d1c0bd6ef486910160405180910390a35050600160005550505050565b336001600160a01b037f00000000000000000000000000000000000000000000000000000000000000001614612ca45760405162461bcd60e51b8152600401610b1f90613af2565b6001600160a01b038316612cca5760405162461bcd60e51b8152600401610b1f90613b3e565b6001600160a01b038216612cf05760405162461bcd60e51b8152600401610b1f90613b3e565b6001600160a01b038116612d165760405162461bcd60e51b8152600401610b1f90613b3e565b600380546001600160a01b038581166001600160a01b0319928316811790935560048054868316908416811790915560028054928616929093168217909255604080519384526020840192909252908201527f3e945b7660001d46cfd5e729545f7f0b6c65bdee54066a91c7acad703f1b731e9060600160405180910390a1505050565b336001600160a01b037f00000000000000000000000000000000000000000000000000000000000000001614612de25760405162461bcd60e51b8152600401610b1f90613af2565b612328811115612e245760405162461bcd60e51b815260206004820152600d60248201526c4d757374206265203c2039302560981b6044820152606401610b1f565b600580546001600160a01b0319166001600160a01b039390931692909217909155600c55565b336001600160a01b037f00000000000000000000000000000000000000000000000000000000000000001614612e925760405162461bcd60e51b8152600401610b1f90613af2565b80821115612ee25760405162461bcd60e51b815260206004820152601b60248201527f6d696e5072696365206d757374206265203c206d6178507269636500000000006044820152606401610b1f565b600a91909155600955565b336001600160a01b037f00000000000000000000000000000000000000000000000000000000000000001614612f355760405162461bcd60e51b8152600401610b1f90613af2565b600f80546001600160a01b0319166001600160a01b0392909216919091179055565b6001546001600160a01b03163314612fb15760405162461bcd60e51b815260206004820181905260248201527f4f776e61626c653a2063616c6c6572206973206e6f7420746865206f776e65726044820152606401610b1f565b6001600160a01b0381166130165760405162461bcd60e51b815260206004820152602660248201527f4f776e61626c653a206e6577206f776e657220697320746865207a65726f206160448201526564647265737360d01b6064820152608401610b1f565b61301f8161319d565b50565b6000838152601060209081526040808320601b0154858452601190925282205463ffffffff918216911682613058856001613ca6565b61306390600a613d29565b61306d9084613eda565b9050600061307c866001613ca6565b61308790600a613d29565b6130919084613eda565b90508063ffffffff168263ffffffff1614156130ea576000888152601060205260409020600c0163ffffffff8716600681106130dd57634e487b7160e01b600052603260045260246000fd5b0154945050505050610ad0565b6000945050505050610ad0565b6040516001600160a01b03831660248201526044810182905261315a90849063a9059cbb60e01b906064015b60408051601f198184030181529190526020810180516001600160e01b03166001600160e01b0319909316929092179091526132db565b505050565b6040516001600160a01b03808516602483015283166044820152606481018290526131979085906323b872dd60e01b90608401613123565b50505050565b600180546001600160a01b038381166001600160a01b0319831681179093556040519116919082907f8be0079c531659141344cd1fd0a4f28419497f9722a3daafe3b4186f6b6457e090600090a35050565b600f5460009081906001600160a01b03161561329c57600f546040516323fd788f60e21b8152336004820152602481018590526001600160a01b0390911690638ff5e23c9060440160206040518083038186803b15801561324f57600080fd5b505afa158015613263573d6000803e3d6000fd5b505050506040513d601f19601f82011682018060405250810190613287919061373a565b9050801561329c576132998184613e33565b92505b84836132a9826001613c8e565b6132b39190613e33565b6132bd8587613e14565b6132c79190613e14565b6132d19190613cce565b9150935093915050565b6000613330826040518060400160405280602081526020017f5361666545524332303a206c6f772d6c6576656c2063616c6c206661696c6564815250856001600160a01b03166133ad9092919063ffffffff16565b80519091501561315a578080602001905181019061334e9190613706565b61315a5760405162461bcd60e51b815260206004820152602a60248201527f5361666545524332303a204552433230206f7065726174696f6e20646964206e6044820152691bdd081cdd58d8d9595960b21b6064820152608401610b1f565b6060610acd848460008585843b6134065760405162461bcd60e51b815260206004820152601d60248201527f416464726573733a2063616c6c20746f206e6f6e2d636f6e74726163740000006044820152606401610b1f565b600080866001600160a01b031685876040516134229190613a01565b60006040518083038185875af1925050503d806000811461345f576040519150601f19603f3d011682016040523d82523d6000602084013e613464565b606091505b509150915061347482828661347f565b979650505050505050565b6060831561348e575081610ad0565b82511561349e5782518084602001fd5b8160405162461bcd60e51b8152600401610b1f9190613abf565b604080516101a081019091528060008152602001600081526020016000815260200160008152602001600081526020016134f0613577565b815260200160008152602001613504613577565b8152602001613511613577565b8152602001600081526020016000815260200160008152602001600063ffffffff1681525090565b8260068101928215613567579160200282015b8281111561356757825182559160200191906001019061354c565b50613573929150613595565b5090565b6040518060c001604052806006906020820280368337509192915050565b5b808211156135735760008155600101613596565b80356001600160a01b03811681146135c157600080fd5b919050565b60008083601f8401126135d7578182fd5b50813567ffffffffffffffff8111156135ee578182fd5b6020830191508360208260051b850101111561169957600080fd5b60006020828403121561361a578081fd5b610ad0826135aa565b600080600060608486031215613637578182fd5b613640846135aa565b925061364e602085016135aa565b915061365c604085016135aa565b90509250925092565b60008060408385031215613677578182fd5b613680836135aa565b946020939093013593505050565b600080600080608085870312156136a3578081fd5b6136ac856135aa565b966020860135965060408601359560600135945092505050565b600080602083850312156136d8578182fd5b823567ffffffffffffffff8111156136ee578283fd5b6136fa858286016135c6565b90969095509350505050565b600060208284031215613717578081fd5b8151610ad081613f29565b600060208284031215613733578081fd5b5035919050565b60006020828403121561374b578081fd5b5051919050565b600080600080600060608688031215613769578081fd5b85359450602086013567ffffffffffffffff80821115613787578283fd5b61379389838a016135c6565b909650945060408801359150808211156137ab578283fd5b506137b8888289016135c6565b969995985093965092949392505050565b6000806000604084860312156137dd578283fd5b83359250602084013567ffffffffffffffff8111156137fa578283fd5b613806868287016135c6565b9497909650939450505050565b60008060408385031215613825578182fd5b82359150602083013561383781613f29565b809150509250929050565b60008060408385031215613854578182fd5b50508035926020909101359150565b600080600060608486031215613877578283fd5b505081359360208301359350604090920135919050565b600080600080600061014086880312156138a6578283fd5b8535945060208601359350604086013592506101208601878111156138c9578182fd5b94979396509194606001933592915050565b6000806000606084860312156138ef578081fd5b8335925060208401359150604084013561390881613f37565b809150509250925092565b600060208284031215613924578081fd5b8135610ad081613f37565b600060208284031215613940578081fd5b8151610ad081613f37565b6000815180845260208085019450808401835b8381101561397c57815115158752958201959082019060010161395e565b509495945050505050565b8060005b600681101561319757815184526020938401939091019060010161398b565b6000815180845260208085019450808401835b8381101561397c57815163ffffffff16875295820195908201906001016139bd565b600481106139fd57634e487b7160e01b600052602160045260246000fd5b9052565b60008251613a13818460208701613e6f565b9190910192915050565b6080808252855190820181905260009060209060a0840190828901845b82811015613a5657815184529284019290840190600101613a3a565b50505083810382850152613a6a81886139aa565b9150508281036040840152613a7f818661394b565b91505082606083015295945050505050565b604081526000613aa460408301856139aa565b8281036020840152613ab6818561394b565b95945050505050565b6020815260008251806020840152613ade816040850160208701613e6f565b601f01601f19169190910160400192915050565b6020808252602c908201527f4f6e6c79206d756c74697369672077616c6c65742063616e2070657266726f6d60408201526b103a3434b99030b1ba34b7b760a11b606082015260800190565b60208082526016908201527543616e6e6f74206265207a65726f206164647265737360501b604082015260600190565b6020808252601f908201527f5265656e7472616e637947756172643a207265656e7472616e742063616c6c00604082015260600190565b6020808252600c908201526b2737ba1037b832b930ba37b960a11b604082015260600190565b600061038082019050613bdf8284516139df565b6020830151602083015260408301516040830152606083015160608301526080830151608083015260a0830151613c1960a0840182613987565b5060c0830151610160818185015260e08501519150610180613c3d81860184613987565b6101008601519250613c53610240860184613987565b6101208601516103008601526101408601516103208601529085015161034085015284015163ffffffff811661036085015290505092915050565b60008219821115613ca157613ca1613efd565b500190565b600063ffffffff808316818516808303821115613cc557613cc5613efd565b01949350505050565b600082613cdd57613cdd613f13565b500490565b60018163ffffffff825b80861115613d2057828204831115613d0657613d06613efd565b80861615613d1357928202925b94851c9491800291613cec565b50509250929050565b600063ffffffff613d3e818516828516613d46565b949350505050565b600082613d5557506001613e0e565b81613d6257506000613e0e565b8160018114613d785760028114613d8257613db3565b6001915050613e0e565b60ff841115613d9357613d93613efd565b6001841b915063ffffffff821115613dad57613dad613efd565b50613e0e565b5060208310610133831016604e8410600b8410161715613dea575081810a63ffffffff811115613de557613de5613efd565b613e0e565b613df48383613ce2565b8063ffffffff04821115613e0a57613e0a613efd565b0290505b92915050565b6000816000190483118215151615613e2e57613e2e613efd565b500290565b600082821015613e4557613e45613efd565b500390565b600063ffffffff83811690831681811015613e6757613e67613efd565b039392505050565b60005b83811015613e8a578181015183820152602001613e72565b838111156131975750506000910152565b6000600019821415613eaf57613eaf613efd565b5060010190565b600063ffffffff80831681811415613ed057613ed0613efd565b6001019392505050565b600063ffffffff80841680613ef157613ef1613f13565b92169190910692915050565b634e487b7160e01b600052601160045260246000fd5b634e487b7160e01b600052601260045260246000fd5b801515811461301f57600080fd5b63ffffffff8116811461301f57600080fdfea2646970667358221220de4ebc0d39903bccc7f9246c2336a9233e75f93e9440ffc7b72329e62bf8033964736f6c63430008040033",
  "immutableReferences": {
    "310": [
      {
        "length": 32,
        "start": 824
      },
      {
        "length": 32,
        "start": 2786
      },
      {
        "length": 32,
        "start": 3388
      },
      {
        "length": 32,
        "start": 5803
      },
      {
        "length": 32,
        "start": 11367
      },
      {
        "length": 32,
        "start": 11685
      },
      {
        "length": 32,
        "start": 11861
      },
      {
        "length": 32,
        "start": 12024
      }
    ]
  },
  "source": "// SPDX-License-Identifier: MIT\npragma solidity 0.8.4;\npragma abicoder v2;\n\nimport \"@openzeppelin/contracts/access/Ownable.sol\";\nimport \"@openzeppelin/contracts/token/ERC20/utils/SafeERC20.sol\";\nimport \"@openzeppelin/contracts/security/ReentrancyGuard.sol\";\nimport \"./interfaces/IRandomNumberGenerator.sol\";\nimport \"./interfaces/ILottery.sol\";\nimport \"./interfaces/IDiscounter.sol\";\n\n/** @title TokenLottery.\n * @notice It is a contract for a lottery system using\n * randomness provided externally.\n */\ncontract TokenLottery is ReentrancyGuard, ILottery, Ownable {\n    using SafeERC20 for IERC20;\n\n    address public injectorAddress;\n    address public operatorAddress;\n    address public treasuryAddress;\n    address public partnerAddress;\n    address public immutable wallet;\n\n    uint256 public currentLotteryId;\n    uint256 public currentTicketId;\n\n    uint256 public maxNumberTicketsPerBuyOrClaim = 100;\n\n    uint256 public maxPriceTicketInTokens = 500 ether;\n    uint256 public minPriceTicketInTokens = 0.005 ether;\n\n    uint256 public pendingInjectionNextLottery;\n\n    uint256 public constant MIN_DISCOUNT_DIVISOR = 300;\n    // uint256 public constant MIN_LENGTH_LOTTERY = 4 hours - 5 minutes; // 4 hours\n    uint256 public constant MIN_LENGTH_LOTTERY = 15 minutes;\n    uint256 public constant MAX_LENGTH_LOTTERY = 4 days + 5 minutes; // 4 days\n    uint256 public constant MAX_TREASURY_FEE = 3000; // 30%\n    uint256 public partnerPercent; // % of treasure fee, in bp \n\n    IERC20 public token;\n    IRandomNumberGenerator public randomGenerator;\n    IDiscounter public discounter;\n\n    enum Status {\n        Pending,\n        Open,\n        Close,\n        Claimable\n    }\n\n    struct Lottery {\n        Status status;\n        uint256 startTime;\n        uint256 endTime;\n        uint256 priceTicketInTokens;\n        uint256 discountDivisor;\n        uint256[6] rewardsBreakdown; // 0: 1 matching number // 5: 6 matching numbers\n        uint256 treasuryFee; // 500: 5% // 200: 2% // 50: 0.5%\n        uint256[6] tokensPerBracket;\n        uint256[6] countWinnersPerBracket;\n        uint256 firstTicketId;\n        uint256 firstTicketIdNextLottery;\n        uint256 amountCollectedInTokens;\n        uint32 finalNumber;\n    }\n\n    struct Ticket {\n        uint32 number;\n        address owner;\n    }\n\n    // Mapping are cheaper than arrays\n    mapping(uint256 => Lottery) private _lotteries;\n    mapping(uint256 => Ticket) private _tickets;\n\n    // Bracket calculator is used for verifying claims for ticket prizes\n    mapping(uint32 => uint32) private _bracketCalculator;\n\n    // Keeps track of number of ticket per unique combination for each lotteryId\n    mapping(uint256 => mapping(uint32 => uint256)) private _numberTicketsPerLotteryId;\n\n    // Keep track of user ticket ids for a given lotteryId\n    mapping(address => mapping(uint256 => uint256[])) private _userTicketIdsPerLotteryId;\n\n    modifier notContract() {\n        require(!_isContract(msg.sender), \"Contract not allowed\");\n        require(msg.sender == tx.origin, \"Proxy contract not allowed\");\n        _;\n    }\n\n    modifier onlyOperator() {\n        require(msg.sender == operatorAddress, \"Not operator\");\n        _;\n    }\n\n    modifier onlyOwnerOrInjector() {\n        require((msg.sender == owner()) || (msg.sender == injectorAddress), \"Not owner or injector\");\n        _;\n    }\n    \n    modifier onlyWallet() {\n        require(msg.sender == wallet, \"Only multisig wallet can perfrom this action\");\n        _;\n    }\n\n    event AdminTokenRecovery(address token, uint256 amount);\n    event LotteryClose(uint256 indexed lotteryId, uint256 firstTicketIdNextLottery);\n    event LotteryInjection(uint256 indexed lotteryId, uint256 injectedAmount);\n    event LotteryOpen(\n        uint256 indexed lotteryId,\n        uint256 startTime,\n        uint256 endTime,\n        uint256 priceTicketInTokens,\n        uint256 firstTicketId,\n        uint256 injectedAmount\n    );\n    event LotteryNumberDrawn(uint256 indexed lotteryId, uint256 finalNumber, uint256 countWinningTickets);\n    event NewOperatorAndTreasuryAndInjectorAddresses(address operator, address treasury, address injector);\n    event NewRandomGenerator(address indexed randomGenerator);\n    event TicketsPurchase(address indexed buyer, uint256 indexed lotteryId, uint256 numberTickets);\n    event TicketsClaim(address indexed claimer, uint256 amount, uint256 indexed lotteryId, uint256 numberTickets);\n    event FreeTicketsGiven(address indexed buyer, uint256 indexed lotteryId, uint256 numberTickets);\n\n    /**\n     * @notice Constructor\n     * @dev RandomNumberGenerator must be deployed prior to this contract\n     * @param _tokenAddress: address of the Token\n     * @param _randomGeneratorAddress: address of the RandomGenerator contract used to work with ChainLink VRF\n     */\n    constructor(\n        address _tokenAddress,\n        address _randomGeneratorAddress,\n        address _wallet,\n        address _operatorAddress,\n        address _treasuryAddress,\n        address _injectorAddress\n    ){\n        token = IERC20(_tokenAddress);\n        randomGenerator = IRandomNumberGenerator(_randomGeneratorAddress);\n\n        // Initializes a mapping\n        _bracketCalculator[0] = 1;\n        _bracketCalculator[1] = 11;\n        _bracketCalculator[2] = 111;\n        _bracketCalculator[3] = 1111;\n        _bracketCalculator[4] = 11111;\n        _bracketCalculator[5] = 111111;\n        \n        wallet = _wallet;\n        operatorAddress = _operatorAddress;\n        treasuryAddress = _treasuryAddress;\n        injectorAddress = _injectorAddress;\n    }\n\n    /**\n     * @notice Buy tickets for the current lottery\n     * @param _lotteryId: lotteryId\n     * @param _ticketNumbers: array of ticket numbers between 1,000,000 and 1,999,999\n     * @dev Callable by users\n     */\n    function buyTickets(uint256 _lotteryId, uint32[] calldata _ticketNumbers)\n        external\n        override\n        notContract\n        nonReentrant\n    {\n        require(_ticketNumbers.length != 0, \"No ticket specified\");\n        require(_ticketNumbers.length <= maxNumberTicketsPerBuyOrClaim, \"Too many tickets\");\n\n        require(_lotteries[_lotteryId].status == Status.Open, \"Lottery is not open\");\n        require(block.timestamp < _lotteries[_lotteryId].endTime, \"Lottery is over\");\n\n        // Calculate number of tokens to this contract\n        (uint256 amountToTransfer, uint256 numberOfFreeTickets) = _calculateTotalPriceForBulkTickets(\n            _lotteries[_lotteryId].discountDivisor,\n            _lotteries[_lotteryId].priceTicketInTokens,\n            _ticketNumbers.length\n        );\n\n        // Transfer tokens to this contract\n        token.safeTransferFrom(address(msg.sender), address(this), amountToTransfer);\n\n        // Increment the total amount collected for the lottery round\n        _lotteries[_lotteryId].amountCollectedInTokens += amountToTransfer;\n\n        for (uint256 i = 0; i < _ticketNumbers.length; i++) {\n            uint32 thisTicketNumber = _ticketNumbers[i];\n\n            require((thisTicketNumber >= 1000000) && (thisTicketNumber <= 1999999), \"Outside range\");\n\n            _numberTicketsPerLotteryId[_lotteryId][1 + (thisTicketNumber % 10)]++;\n            _numberTicketsPerLotteryId[_lotteryId][11 + (thisTicketNumber % 100)]++;\n            _numberTicketsPerLotteryId[_lotteryId][111 + (thisTicketNumber % 1000)]++;\n            _numberTicketsPerLotteryId[_lotteryId][1111 + (thisTicketNumber % 10000)]++;\n            _numberTicketsPerLotteryId[_lotteryId][11111 + (thisTicketNumber % 100000)]++;\n            _numberTicketsPerLotteryId[_lotteryId][111111 + (thisTicketNumber % 1000000)]++;\n\n            _userTicketIdsPerLotteryId[msg.sender][_lotteryId].push(currentTicketId);\n\n            _tickets[currentTicketId] = Ticket({number: thisTicketNumber, owner: msg.sender});\n\n            // Increase lottery ticket number\n            currentTicketId++;\n        }\n\n        emit TicketsPurchase(msg.sender, _lotteryId, _ticketNumbers.length);\n        if (numberOfFreeTickets > 0) {\n            emit FreeTicketsGiven(msg.sender, currentLotteryId, numberOfFreeTickets);\n        }\n    }\n\n    /**\n     * @notice Claim a set of winning tickets for a lottery\n     * @param _lotteryId: lottery id\n     * @param _ticketIds: array of ticket ids\n     * @param _brackets: array of brackets for the ticket ids\n     * @dev Callable by users only, not contract!\n     */\n    function claimTickets(\n        uint256 _lotteryId,\n        uint256[] calldata _ticketIds,\n        uint32[] calldata _brackets\n    ) external override notContract nonReentrant {\n        require(_ticketIds.length == _brackets.length, \"Not same length\");\n        require(_ticketIds.length != 0, \"Length must be >0\");\n        require(_ticketIds.length <= maxNumberTicketsPerBuyOrClaim, \"Too many tickets\");\n        require(_lotteries[_lotteryId].status == Status.Claimable, \"Lottery not claimable\");\n\n        // Initializes the rewardInTokensToTransfer\n        uint256 rewardInTokensToTransfer;\n\n        for (uint256 i = 0; i < _ticketIds.length; i++) {\n            require(_brackets[i] < 6, \"Bracket out of range\"); // Must be between 0 and 5\n\n            uint256 thisTicketId = _ticketIds[i];\n\n            require(_lotteries[_lotteryId].firstTicketIdNextLottery > thisTicketId, \"TicketId too high\");\n            require(_lotteries[_lotteryId].firstTicketId <= thisTicketId, \"TicketId too low\");\n            require(msg.sender == _tickets[thisTicketId].owner, \"Not the owner\");\n\n            // Update the lottery ticket owner to 0x address\n            _tickets[thisTicketId].owner = address(0);\n\n            uint256 rewardForTicketId = _calculateRewardsForTicketId(_lotteryId, thisTicketId, _brackets[i]);\n\n            // Check user is claiming the correct bracket\n            require(rewardForTicketId != 0, \"No prize for this bracket\");\n\n            if (_brackets[i] != 5) {\n                require(\n                    _calculateRewardsForTicketId(_lotteryId, thisTicketId, _brackets[i] + 1) == 0,\n                    \"Bracket must be higher\"\n                );\n            }\n\n            // Increment the reward to transfer\n            rewardInTokensToTransfer += rewardForTicketId;\n        }\n\n        // Transfer money to msg.sender\n        token.safeTransfer(msg.sender, rewardInTokensToTransfer);\n\n        emit TicketsClaim(msg.sender, rewardInTokensToTransfer, _lotteryId, _ticketIds.length);\n    }\n\n    /**\n     * @notice Close lottery\n     * @param _lotteryId: lottery id\n     * @dev Callable by operator\n     */\n    function closeLottery(uint256 _lotteryId) external override onlyOperator nonReentrant {\n        require(_lotteries[_lotteryId].status == Status.Open, \"Lottery not open\");\n        require(block.timestamp > _lotteries[_lotteryId].endTime, \"Lottery not over\");\n        _lotteries[_lotteryId].firstTicketIdNextLottery = currentTicketId;\n\n        randomGenerator.getRandomNumber();\n\n        _lotteries[_lotteryId].status = Status.Close;\n\n        emit LotteryClose(_lotteryId, currentTicketId);\n    }\n\n    /**\n     * @notice Draw the final number, calculate reward in Tokens per group, and make lottery claimable\n     * @param _lotteryId: lottery id\n     * @param _autoInjection: reinjects funds into next lottery (vs. withdrawing all)\n     * @dev Callable by operator\n     */\n    function drawFinalNumberAndMakeLotteryClaimable(uint256 _lotteryId, bool _autoInjection)\n        external\n        override\n        onlyOperator\n        nonReentrant\n    {\n        require(_lotteries[_lotteryId].status == Status.Close, \"Lottery not close\");\n        require(_lotteryId == randomGenerator.viewLatestLotteryId(), \"Numbers not drawn\");\n\n        // Calculate the finalNumber based on the randomResult generated by ChainLink's fallback\n        uint32 finalNumber = randomGenerator.viewRandomResult();\n\n        // Initialize a number to count addresses in the previous bracket\n        uint256 numberAddressesInPreviousBracket;\n\n        // Calculate the amount to share post-treasury fee\n        uint256 amountToShareToWinners = (\n            ((_lotteries[_lotteryId].amountCollectedInTokens) * (10000 - _lotteries[_lotteryId].treasuryFee))\n        ) / 10000;\n\n        // Initializes the amount to withdraw to treasury\n        uint256 amountToWithdrawToTreasury;\n\n        // Calculate prizes in Tokens for each bracket by starting from the highest one\n        for (uint32 i = 0; i < 6; i++) {\n            uint32 j = 5 - i;\n            uint32 transformedWinningNumber = _bracketCalculator[j] + (finalNumber % (uint32(10)**(j + 1)));\n\n            _lotteries[_lotteryId].countWinnersPerBracket[j] =\n                _numberTicketsPerLotteryId[_lotteryId][transformedWinningNumber] -\n                numberAddressesInPreviousBracket;\n\n            // A. If number of users for this _bracket number is superior to 0\n            if (\n                (_numberTicketsPerLotteryId[_lotteryId][transformedWinningNumber] - numberAddressesInPreviousBracket) !=\n                0\n            ) {\n                // B. If rewards at this bracket are > 0, calculate, else, report the numberAddresses from previous bracket\n                if (_lotteries[_lotteryId].rewardsBreakdown[j] != 0) {\n                    _lotteries[_lotteryId].tokensPerBracket[j] =\n                        ((_lotteries[_lotteryId].rewardsBreakdown[j] * amountToShareToWinners) /\n                            (_numberTicketsPerLotteryId[_lotteryId][transformedWinningNumber] -\n                                numberAddressesInPreviousBracket)) /\n                        10000;\n\n                    // Update numberAddressesInPreviousBracket\n                    numberAddressesInPreviousBracket = _numberTicketsPerLotteryId[_lotteryId][transformedWinningNumber];\n                }\n                // A. No Tokens to distribute, they are added to the amount to withdraw to treasury address\n            } else {\n                _lotteries[_lotteryId].tokensPerBracket[j] = 0;\n\n                amountToWithdrawToTreasury +=\n                    (_lotteries[_lotteryId].rewardsBreakdown[j] * amountToShareToWinners) /\n                    10000;\n            }\n        }\n\n        // Update internal statuses for lottery\n        _lotteries[_lotteryId].finalNumber = finalNumber;\n        _lotteries[_lotteryId].status = Status.Claimable;\n\n        if (_autoInjection) {\n            pendingInjectionNextLottery = amountToWithdrawToTreasury;\n            amountToWithdrawToTreasury = 0;\n        }\n\n        amountToWithdrawToTreasury += (_lotteries[_lotteryId].amountCollectedInTokens - amountToShareToWinners);\n\n        // Transfer tokens to treasury address\n        if (partnerPercent > 0 && partnerAddress != address(0)) {\n            uint256 partnerAmount = amountToWithdrawToTreasury * partnerPercent / 10000;\n            amountToWithdrawToTreasury -= partnerAmount;\n            token.safeTransfer(treasuryAddress, amountToWithdrawToTreasury);\n            token.safeTransfer(partnerAddress, partnerAmount);\n        } else {\n            token.safeTransfer(treasuryAddress, amountToWithdrawToTreasury);\n        }\n\n        emit LotteryNumberDrawn(currentLotteryId, finalNumber, numberAddressesInPreviousBracket);\n    }\n\n    /**\n     * @notice Change the random generator\n     * @dev The calls to functions are used to verify the new generator implements them properly.\n     * It is necessary to wait for the VRF response before starting a round.\n     * Callable only by the contract owner\n     * @param _randomGeneratorAddress: address of the random generator\n     */\n    function changeRandomGenerator(address _randomGeneratorAddress) external onlyWallet {\n        require(_lotteries[currentLotteryId].status == Status.Claimable, \"Lottery not in claimable\");\n\n        // Request a random number from the generator\n        IRandomNumberGenerator(_randomGeneratorAddress).getRandomNumber();\n\n        // Calculate the finalNumber based on the randomResult generated by ChainLink's fallback\n        IRandomNumberGenerator(_randomGeneratorAddress).viewRandomResult();\n\n        randomGenerator = IRandomNumberGenerator(_randomGeneratorAddress);\n\n        emit NewRandomGenerator(_randomGeneratorAddress);\n    }\n\n    /**\n     * @notice Inject funds\n     * @param _lotteryId: lottery id\n     * @param _amount: amount to inject in tokens\n     * @dev Callable by owner or injector address\n     */\n    function injectFunds(uint256 _lotteryId, uint256 _amount) external override onlyOwnerOrInjector {\n        require(_lotteries[_lotteryId].status == Status.Open, \"Lottery not open\");\n\n        token.safeTransferFrom(address(msg.sender), address(this), _amount);\n        _lotteries[_lotteryId].amountCollectedInTokens += _amount;\n\n        emit LotteryInjection(_lotteryId, _amount);\n    }\n\n    /**\n     * @notice Start the lottery\n     * @dev Callable by operator\n     * @param _endTime: endTime of the lottery\n     * @param _priceTicketInTokens: price of a ticket in Tokens\n     * @param _discountDivisor: the divisor to calculate the discount magnitude for bulks\n     * @param _rewardsBreakdown: breakdown of rewards per bracket (must sum to 10,000)\n     * @param _treasuryFee: treasury fee (10,000 = 100%, 100 = 1%)\n     */\n    function startLottery(\n        uint256 _endTime,\n        uint256 _priceTicketInTokens,\n        uint256 _discountDivisor,\n        uint256[6] calldata _rewardsBreakdown,\n        uint256 _treasuryFee\n    ) external override onlyOperator {\n        require(\n            (currentLotteryId == 0) || (_lotteries[currentLotteryId].status == Status.Claimable),\n            \"Not time to start lottery\"\n        );\n\n        require(\n            ((_endTime - block.timestamp) > MIN_LENGTH_LOTTERY) && ((_endTime - block.timestamp) < MAX_LENGTH_LOTTERY),\n            \"Lottery length outside of range\"\n        );\n\n        require(\n            (_priceTicketInTokens >= minPriceTicketInTokens) && (_priceTicketInTokens <= maxPriceTicketInTokens),\n            \"Outside of limits\"\n        );\n\n        require(_discountDivisor >= MIN_DISCOUNT_DIVISOR, \"Discount divisor too low\");\n        require(_treasuryFee <= MAX_TREASURY_FEE, \"Treasury fee too high\");\n\n        require(\n            (_rewardsBreakdown[0] +\n                _rewardsBreakdown[1] +\n                _rewardsBreakdown[2] +\n                _rewardsBreakdown[3] +\n                _rewardsBreakdown[4] +\n                _rewardsBreakdown[5]) == 10000,\n            \"Rewards must equal 10000\"\n        );\n\n        currentLotteryId++;\n\n        _lotteries[currentLotteryId] = Lottery({\n            status: Status.Open,\n            startTime: block.timestamp,\n            endTime: _endTime,\n            priceTicketInTokens: _priceTicketInTokens,\n            discountDivisor: _discountDivisor,\n            rewardsBreakdown: _rewardsBreakdown,\n            treasuryFee: _treasuryFee,\n            tokensPerBracket: [uint256(0), uint256(0), uint256(0), uint256(0), uint256(0), uint256(0)],\n            countWinnersPerBracket: [uint256(0), uint256(0), uint256(0), uint256(0), uint256(0), uint256(0)],\n            firstTicketId: currentTicketId,\n            firstTicketIdNextLottery: currentTicketId,\n            amountCollectedInTokens: pendingInjectionNextLottery,\n            finalNumber: 0\n        });\n\n        emit LotteryOpen(\n            currentLotteryId,\n            block.timestamp,\n            _endTime,\n            _priceTicketInTokens,\n            currentTicketId,\n            pendingInjectionNextLottery\n        );\n\n        pendingInjectionNextLottery = 0;\n    }\n\n    /**\n     * @notice It allows the admin to recover wrong tokens sent to the contract\n     * @param _tokenAddress: the address of the token to withdraw\n     * @param _tokenAmount: the number of token amount to withdraw\n     * @dev Only callable by owner.\n     */\n    function recoverWrongTokens(address _tokenAddress, uint256 _tokenAmount) external onlyWallet {\n        require(_tokenAddress != address(token), \"Cannot be lottery token\");\n\n        IERC20(_tokenAddress).safeTransfer(address(msg.sender), _tokenAmount);\n\n        emit AdminTokenRecovery(_tokenAddress, _tokenAmount);\n    }\n\n    /**\n     * @notice Set Token price ticket upper/lower limit\n     * @dev Only callable by owner\n     * @param _minPriceTicketInTokens: minimum price of a ticket in Tokens\n     * @param _maxPriceTicketInTokens: maximum price of a ticket in Tokens\n     */\n    function setMinAndMaxTicketPriceInTokens(uint256 _minPriceTicketInTokens, uint256 _maxPriceTicketInTokens)\n        external\n        onlyWallet\n    {\n        require(_minPriceTicketInTokens <= _maxPriceTicketInTokens, \"minPrice must be < maxPrice\");\n\n        minPriceTicketInTokens = _minPriceTicketInTokens;\n        maxPriceTicketInTokens = _maxPriceTicketInTokens;\n    }\n\n    /**\n     * @notice Set max number of tickets\n     * @dev Only callable by owner\n     */\n    function setMaxNumberTicketsPerBuy(uint256 _maxNumberTicketsPerBuy) external onlyWallet {\n        require(_maxNumberTicketsPerBuy != 0, \"Must be > 0\");\n        require(_maxNumberTicketsPerBuy <= 100, \"Must be < 100\");\n        maxNumberTicketsPerBuyOrClaim = _maxNumberTicketsPerBuy;\n    }\n\n    /**\n     * @notice Set operator, treasury, and injector addresses\n     * @dev Only callable by owner\n     * @param _operatorAddress: address of the operator\n     * @param _treasuryAddress: address of the treasury\n     * @param _injectorAddress: address of the injector\n     */\n    function setOperatorAndTreasuryAndInjectorAddresses(\n        address _operatorAddress,\n        address _treasuryAddress,\n        address _injectorAddress\n    ) external onlyWallet {\n        require(_operatorAddress != address(0), \"Cannot be zero address\");\n        require(_treasuryAddress != address(0), \"Cannot be zero address\");\n        require(_injectorAddress != address(0), \"Cannot be zero address\");\n\n        operatorAddress = _operatorAddress;\n        treasuryAddress = _treasuryAddress;\n        injectorAddress = _injectorAddress;\n\n        emit NewOperatorAndTreasuryAndInjectorAddresses(_operatorAddress, _treasuryAddress, _injectorAddress);\n    }\n    \n    /**\n     * @notice Set partner and his percentage of the treasure\n     * @dev Only callable by owner\n     * @param _partnerAddress: address of the partner\n     * @param _partnerPercent: percentage in bp of the treasury\n     */\n    function setPartnerAndFee(address _partnerAddress, uint256 _partnerPercent) external onlyWallet {\n        require(_partnerPercent <= 9000, \"Must be < 90%\");\n        partnerAddress = _partnerAddress;\n        partnerPercent = _partnerPercent;\n    }\n    \n    /**\n     * @notice Set discounter contract\n     * @dev Only callable by owner\n     * @param _discounterAddress: address of the discounter\n     */\n    function setDiscounter(address _discounterAddress) external onlyWallet {\n        discounter = IDiscounter(_discounterAddress);\n    }\n\n    /**\n     * @notice Calculate price of a set of tickets\n     * @param _discountDivisor: divisor for the discount\n     * @param _priceTicket price of a ticket (in Tokens)\n     * @param _numberTickets number of tickets to buy\n     */\n    function calculateTotalPriceForBulkTickets(\n        uint256 _discountDivisor,\n        uint256 _priceTicket,\n        uint256 _numberTickets\n    ) external view returns (uint256) {\n        require(_discountDivisor >= MIN_DISCOUNT_DIVISOR, \"Must be >= MIN_DISCOUNT_DIVISOR\");\n        require(_numberTickets != 0, \"Number of tickets must be > 0\");\n        (uint256 price,) = _calculateTotalPriceForBulkTickets(_discountDivisor, _priceTicket, _numberTickets);\n\n        return price;\n    }\n\n    /**\n     * @notice View current lottery id\n     */\n    function viewCurrentLotteryId() external view override returns (uint256) {\n        return currentLotteryId;\n    }\n\n    /**\n     * @notice View lottery information\n     * @param _lotteryId: lottery id\n     */\n    function viewLottery(uint256 _lotteryId) external view returns (Lottery memory) {\n        return _lotteries[_lotteryId];\n    }\n\n    /**\n     * @notice View ticker statuses and numbers for an array of ticket ids\n     * @param _ticketIds: array of _ticketId\n     */\n    function viewNumbersAndStatusesForTicketIds(uint256[] calldata _ticketIds)\n        external\n        view\n        returns (uint32[] memory, bool[] memory)\n    {\n        uint256 length = _ticketIds.length;\n        uint32[] memory ticketNumbers = new uint32[](length);\n        bool[] memory ticketStatuses = new bool[](length);\n\n        for (uint256 i = 0; i < length; i++) {\n            ticketNumbers[i] = _tickets[_ticketIds[i]].number;\n            if (_tickets[_ticketIds[i]].owner == address(0)) {\n                ticketStatuses[i] = true;\n            } else {\n                ticketStatuses[i] = false;\n            }\n        }\n\n        return (ticketNumbers, ticketStatuses);\n    }\n\n    /**\n     * @notice View rewards for a given ticket, providing a bracket, and lottery id\n     * @dev Computations are mostly offchain. This is used to verify a ticket!\n     * @param _lotteryId: lottery id\n     * @param _ticketId: ticket id\n     * @param _bracket: bracket for the ticketId to verify the claim and calculate rewards\n     */\n    function viewRewardsForTicketId(\n        uint256 _lotteryId,\n        uint256 _ticketId,\n        uint32 _bracket\n    ) external view returns (uint256) {\n        // Check lottery is in claimable status\n        if (_lotteries[_lotteryId].status != Status.Claimable) {\n            return 0;\n        }\n\n        // Check ticketId is within range\n        if (\n            (_lotteries[_lotteryId].firstTicketIdNextLottery <= _ticketId) || //ticket from next lotteries\n            (_lotteries[_lotteryId].firstTicketId > _ticketId) // ticket from previous lotteries\n        ) {\n            return 0;\n        }\n\n        return _calculateRewardsForTicketId(_lotteryId, _ticketId, _bracket);\n    }\n\n    /**\n     * @notice View user ticket ids, numbers, and statuses of user for a given lottery\n     * @param _user: user address\n     * @param _lotteryId: lottery id\n     * @param _cursor: cursor to start where to retrieve the tickets\n     * @param _size: the number of tickets to retrieve\n     */\n    function viewUserInfoForLotteryId(\n        address _user,\n        uint256 _lotteryId,\n        uint256 _cursor,\n        uint256 _size\n    )\n        external\n        view\n        returns (\n            uint256[] memory,\n            uint32[] memory,\n            bool[] memory,\n            uint256\n        )\n    {\n        uint256 length = _size;\n        uint256 numberTicketsBoughtAtLotteryId = _userTicketIdsPerLotteryId[_user][_lotteryId].length;\n\n        if (length > (numberTicketsBoughtAtLotteryId - _cursor)) {\n            length = numberTicketsBoughtAtLotteryId - _cursor;\n        }\n\n        uint256[] memory lotteryTicketIds = new uint256[](length);\n        uint32[] memory ticketNumbers = new uint32[](length);\n        bool[] memory ticketStatuses = new bool[](length);\n\n        for (uint256 i = 0; i < length; i++) {\n            lotteryTicketIds[i] = _userTicketIdsPerLotteryId[_user][_lotteryId][i + _cursor];\n            ticketNumbers[i] = _tickets[lotteryTicketIds[i]].number;\n\n            // True = ticket claimed\n            if (_tickets[lotteryTicketIds[i]].owner == address(0)) {\n                ticketStatuses[i] = true;\n            } else {\n                // ticket not claimed (includes the ones that cannot be claimed)\n                ticketStatuses[i] = false;\n            }\n        }\n\n        return (lotteryTicketIds, ticketNumbers, ticketStatuses, _cursor + length);\n    }\n\n    /**\n     * @notice Calculate rewards for a given ticket\n     * @param _lotteryId: lottery id\n     * @param _ticketId: ticket id\n     * @param _bracket: bracket for the ticketId to verify the claim and calculate rewards\n     */\n    function _calculateRewardsForTicketId(\n        uint256 _lotteryId,\n        uint256 _ticketId,\n        uint32 _bracket\n    ) internal view returns (uint256) {\n        // Retrieve the winning number combination\n        uint32 winningTicketNumber = _lotteries[_lotteryId].finalNumber;\n\n        // Retrieve the user number combination from the ticketId\n        uint32 userNumber = _tickets[_ticketId].number;\n\n        // Apply transformation to verify the claim provided by the user is true\n        uint32 transformedWinningNumber = winningTicketNumber % (uint32(10)**(_bracket + 1));\n\n        uint32 transformedUserNumber = userNumber % (uint32(10)**(_bracket + 1));\n\n        // Confirm that the two transformed numbers are the same, if not throw\n        if (transformedWinningNumber == transformedUserNumber) {\n            return _lotteries[_lotteryId].tokensPerBracket[_bracket];\n        } else {\n            return 0;\n        }\n    }\n\n    /**\n     * @notice Calculate final price for bulk of tickets\n     * @param _discountDivisor: divisor for the discount (the smaller it is, the greater the discount is)\n     * @param _priceTicket: price of a ticket\n     * @param _numberTickets: number of tickets purchased\n     */\n    function _calculateTotalPriceForBulkTickets(\n        uint256 _discountDivisor,\n        uint256 _priceTicket,\n        uint256 _numberTickets\n    ) internal view returns (uint256 price, uint256 numberOfFreeTickets) {\n        if(address(discounter) != address(0)) {\n            numberOfFreeTickets = discounter.getNumberOfFreeTickets(msg.sender, _numberTickets);\n            if (numberOfFreeTickets > 0) {\n                _numberTickets -= numberOfFreeTickets;\n            }\n        }\n        price = (_priceTicket * _numberTickets * (_discountDivisor + 1 - _numberTickets)) / _discountDivisor;\n        return (price, numberOfFreeTickets);\n    }\n\n    /**\n     * @notice Check if an address is a contract\n     */\n    function _isContract(address _addr) internal view returns (bool) {\n        uint256 size;\n        assembly {\n            size := extcodesize(_addr)\n        }\n        return size > 0;\n    }\n}",
  "sourcePath": "/Users/aranjak/Code-BC/lottery-contracts/contracts/TokenLottery.sol",
  "compiler": {
    "name": "solc",
    "version": "0.8.4+commit.c7e474f2.Emscripten.clang"
  },
  "schemaVersion": "3.4.0",
  "updatedAt": "2021-10-08T10:40:35.997Z",
  "networkType": "ethereum",
  "devdoc": {
    "kind": "dev",
    "methods": {
      "buyTickets(uint256,uint32[])": {
        "details": "Callable by users",
        "params": {
          "_lotteryId": ": lotteryId",
          "_ticketNumbers": ": array of ticket numbers between 1,000,000 and 1,999,999"
        }
      },
      "calculateTotalPriceForBulkTickets(uint256,uint256,uint256)": {
        "params": {
          "_discountDivisor": ": divisor for the discount",
          "_numberTickets": "number of tickets to buy",
          "_priceTicket": "price of a ticket (in Tokens)"
        }
      },
      "changeRandomGenerator(address)": {
        "details": "The calls to functions are used to verify the new generator implements them properly. It is necessary to wait for the VRF response before starting a round. Callable only by the contract owner",
        "params": {
          "_randomGeneratorAddress": ": address of the random generator"
        }
      },
      "claimTickets(uint256,uint256[],uint32[])": {
        "details": "Callable by users only, not contract!",
        "params": {
          "_brackets": ": array of brackets for the ticket ids",
          "_lotteryId": ": lottery id",
          "_ticketIds": ": array of ticket ids"
        }
      },
      "closeLottery(uint256)": {
        "details": "Callable by operator",
        "params": {
          "_lotteryId": ": lottery id"
        }
      },
      "constructor": {
        "details": "RandomNumberGenerator must be deployed prior to this contract",
        "params": {
          "_randomGeneratorAddress": ": address of the RandomGenerator contract used to work with ChainLink VRF",
          "_tokenAddress": ": address of the Token"
        }
      },
      "drawFinalNumberAndMakeLotteryClaimable(uint256,bool)": {
        "details": "Callable by operator",
        "params": {
          "_autoInjection": ": reinjects funds into next lottery (vs. withdrawing all)",
          "_lotteryId": ": lottery id"
        }
      },
      "injectFunds(uint256,uint256)": {
        "details": "Callable by owner or injector address",
        "params": {
          "_amount": ": amount to inject in tokens",
          "_lotteryId": ": lottery id"
        }
      },
      "owner()": {
        "details": "Returns the address of the current owner."
      },
      "recoverWrongTokens(address,uint256)": {
        "details": "Only callable by owner.",
        "params": {
          "_tokenAddress": ": the address of the token to withdraw",
          "_tokenAmount": ": the number of token amount to withdraw"
        }
      },
      "renounceOwnership()": {
        "details": "Leaves the contract without owner. It will not be possible to call `onlyOwner` functions anymore. Can only be called by the current owner. NOTE: Renouncing ownership will leave the contract without an owner, thereby removing any functionality that is only available to the owner."
      },
      "setDiscounter(address)": {
        "details": "Only callable by owner",
        "params": {
          "_discounterAddress": ": address of the discounter"
        }
      },
      "setMaxNumberTicketsPerBuy(uint256)": {
        "details": "Only callable by owner"
      },
      "setMinAndMaxTicketPriceInTokens(uint256,uint256)": {
        "details": "Only callable by owner",
        "params": {
          "_maxPriceTicketInTokens": ": maximum price of a ticket in Tokens",
          "_minPriceTicketInTokens": ": minimum price of a ticket in Tokens"
        }
      },
      "setOperatorAndTreasuryAndInjectorAddresses(address,address,address)": {
        "details": "Only callable by owner",
        "params": {
          "_injectorAddress": ": address of the injector",
          "_operatorAddress": ": address of the operator",
          "_treasuryAddress": ": address of the treasury"
        }
      },
      "setPartnerAndFee(address,uint256)": {
        "details": "Only callable by owner",
        "params": {
          "_partnerAddress": ": address of the partner",
          "_partnerPercent": ": percentage in bp of the treasury"
        }
      },
      "startLottery(uint256,uint256,uint256,uint256[6],uint256)": {
        "details": "Callable by operator",
        "params": {
          "_discountDivisor": ": the divisor to calculate the discount magnitude for bulks",
          "_endTime": ": endTime of the lottery",
          "_priceTicketInTokens": ": price of a ticket in Tokens",
          "_rewardsBreakdown": ": breakdown of rewards per bracket (must sum to 10,000)",
          "_treasuryFee": ": treasury fee (10,000 = 100%, 100 = 1%)"
        }
      },
      "transferOwnership(address)": {
        "details": "Transfers ownership of the contract to a new account (`newOwner`). Can only be called by the current owner."
      },
      "viewLottery(uint256)": {
        "params": {
          "_lotteryId": ": lottery id"
        }
      },
      "viewNumbersAndStatusesForTicketIds(uint256[])": {
        "params": {
          "_ticketIds": ": array of _ticketId"
        }
      },
      "viewRewardsForTicketId(uint256,uint256,uint32)": {
        "details": "Computations are mostly offchain. This is used to verify a ticket!",
        "params": {
          "_bracket": ": bracket for the ticketId to verify the claim and calculate rewards",
          "_lotteryId": ": lottery id",
          "_ticketId": ": ticket id"
        }
      },
      "viewUserInfoForLotteryId(address,uint256,uint256,uint256)": {
        "params": {
          "_cursor": ": cursor to start where to retrieve the tickets",
          "_lotteryId": ": lottery id",
          "_size": ": the number of tickets to retrieve",
          "_user": ": user address"
        }
      }
    },
    "title": "TokenLottery.",
    "version": 1
  },
  "userdoc": {
    "kind": "user",
    "methods": {
      "buyTickets(uint256,uint32[])": {
        "notice": "Buy tickets for the current lottery"
      },
      "calculateTotalPriceForBulkTickets(uint256,uint256,uint256)": {
        "notice": "Calculate price of a set of tickets"
      },
      "changeRandomGenerator(address)": {
        "notice": "Change the random generator"
      },
      "claimTickets(uint256,uint256[],uint32[])": {
        "notice": "Claim a set of winning tickets for a lottery"
      },
      "closeLottery(uint256)": {
        "notice": "Close lottery"
      },
      "constructor": {
        "notice": "Constructor"
      },
      "drawFinalNumberAndMakeLotteryClaimable(uint256,bool)": {
        "notice": "Draw the final number, calculate reward in Tokens per group, and make lottery claimable"
      },
      "injectFunds(uint256,uint256)": {
        "notice": "Inject funds"
      },
      "recoverWrongTokens(address,uint256)": {
        "notice": "It allows the admin to recover wrong tokens sent to the contract"
      },
      "setDiscounter(address)": {
        "notice": "Set discounter contract"
      },
      "setMaxNumberTicketsPerBuy(uint256)": {
        "notice": "Set max number of tickets"
      },
      "setMinAndMaxTicketPriceInTokens(uint256,uint256)": {
        "notice": "Set Token price ticket upper/lower limit"
      },
      "setOperatorAndTreasuryAndInjectorAddresses(address,address,address)": {
        "notice": "Set operator, treasury, and injector addresses"
      },
      "setPartnerAndFee(address,uint256)": {
        "notice": "Set partner and his percentage of the treasure"
      },
      "startLottery(uint256,uint256,uint256,uint256[6],uint256)": {
        "notice": "Start the lottery"
      },
      "viewCurrentLotteryId()": {
        "notice": "View current lottery id"
      },
      "viewLottery(uint256)": {
        "notice": "View lottery information"
      },
      "viewNumbersAndStatusesForTicketIds(uint256[])": {
        "notice": "View ticker statuses and numbers for an array of ticket ids"
      },
      "viewRewardsForTicketId(uint256,uint256,uint32)": {
        "notice": "View rewards for a given ticket, providing a bracket, and lottery id"
      },
      "viewUserInfoForLotteryId(address,uint256,uint256,uint256)": {
        "notice": "View user ticket ids, numbers, and statuses of user for a given lottery"
      }
    },
    "notice": "It is a contract for a lottery system using randomness provided externally.",
    "version": 1
  }
}