{
  "contractName": "TokenLottery",
  "abi": [
    {
      "inputs": [
        {
          "internalType": "address",
          "name": "_tokenAddress",
          "type": "address"
        },
        {
          "internalType": "address",
          "name": "_randomGeneratorAddress",
          "type": "address"
        }
      ],
      "stateMutability": "nonpayable",
      "type": "constructor"
    },
    {
      "anonymous": false,
      "inputs": [
        {
          "indexed": false,
          "internalType": "address",
          "name": "token",
          "type": "address"
        },
        {
          "indexed": false,
          "internalType": "uint256",
          "name": "amount",
          "type": "uint256"
        }
      ],
      "name": "AdminTokenRecovery",
      "type": "event"
    },
    {
      "anonymous": false,
      "inputs": [
        {
          "indexed": true,
          "internalType": "uint256",
          "name": "lotteryId",
          "type": "uint256"
        },
        {
          "indexed": false,
          "internalType": "uint256",
          "name": "firstTicketIdNextLottery",
          "type": "uint256"
        }
      ],
      "name": "LotteryClose",
      "type": "event"
    },
    {
      "anonymous": false,
      "inputs": [
        {
          "indexed": true,
          "internalType": "uint256",
          "name": "lotteryId",
          "type": "uint256"
        },
        {
          "indexed": false,
          "internalType": "uint256",
          "name": "injectedAmount",
          "type": "uint256"
        }
      ],
      "name": "LotteryInjection",
      "type": "event"
    },
    {
      "anonymous": false,
      "inputs": [
        {
          "indexed": true,
          "internalType": "uint256",
          "name": "lotteryId",
          "type": "uint256"
        },
        {
          "indexed": false,
          "internalType": "uint256",
          "name": "finalNumber",
          "type": "uint256"
        },
        {
          "indexed": false,
          "internalType": "uint256",
          "name": "countWinningTickets",
          "type": "uint256"
        }
      ],
      "name": "LotteryNumberDrawn",
      "type": "event"
    },
    {
      "anonymous": false,
      "inputs": [
        {
          "indexed": true,
          "internalType": "uint256",
          "name": "lotteryId",
          "type": "uint256"
        },
        {
          "indexed": false,
          "internalType": "uint256",
          "name": "startTime",
          "type": "uint256"
        },
        {
          "indexed": false,
          "internalType": "uint256",
          "name": "endTime",
          "type": "uint256"
        },
        {
          "indexed": false,
          "internalType": "uint256",
          "name": "priceTicketInTokens",
          "type": "uint256"
        },
        {
          "indexed": false,
          "internalType": "uint256",
          "name": "firstTicketId",
          "type": "uint256"
        },
        {
          "indexed": false,
          "internalType": "uint256",
          "name": "injectedAmount",
          "type": "uint256"
        }
      ],
      "name": "LotteryOpen",
      "type": "event"
    },
    {
      "anonymous": false,
      "inputs": [
        {
          "indexed": false,
          "internalType": "address",
          "name": "operator",
          "type": "address"
        },
        {
          "indexed": false,
          "internalType": "address",
          "name": "treasury",
          "type": "address"
        },
        {
          "indexed": false,
          "internalType": "address",
          "name": "injector",
          "type": "address"
        }
      ],
      "name": "NewOperatorAndTreasuryAndInjectorAddresses",
      "type": "event"
    },
    {
      "anonymous": false,
      "inputs": [
        {
          "indexed": true,
          "internalType": "address",
          "name": "randomGenerator",
          "type": "address"
        }
      ],
      "name": "NewRandomGenerator",
      "type": "event"
    },
    {
      "anonymous": false,
      "inputs": [
        {
          "indexed": true,
          "internalType": "address",
          "name": "previousOwner",
          "type": "address"
        },
        {
          "indexed": true,
          "internalType": "address",
          "name": "newOwner",
          "type": "address"
        }
      ],
      "name": "OwnershipTransferred",
      "type": "event"
    },
    {
      "anonymous": false,
      "inputs": [
        {
          "indexed": true,
          "internalType": "address",
          "name": "claimer",
          "type": "address"
        },
        {
          "indexed": false,
          "internalType": "uint256",
          "name": "amount",
          "type": "uint256"
        },
        {
          "indexed": true,
          "internalType": "uint256",
          "name": "lotteryId",
          "type": "uint256"
        },
        {
          "indexed": false,
          "internalType": "uint256",
          "name": "numberTickets",
          "type": "uint256"
        }
      ],
      "name": "TicketsClaim",
      "type": "event"
    },
    {
      "anonymous": false,
      "inputs": [
        {
          "indexed": true,
          "internalType": "address",
          "name": "buyer",
          "type": "address"
        },
        {
          "indexed": true,
          "internalType": "uint256",
          "name": "lotteryId",
          "type": "uint256"
        },
        {
          "indexed": false,
          "internalType": "uint256",
          "name": "numberTickets",
          "type": "uint256"
        }
      ],
      "name": "TicketsPurchase",
      "type": "event"
    },
    {
      "inputs": [],
      "name": "MAX_LENGTH_LOTTERY",
      "outputs": [
        {
          "internalType": "uint256",
          "name": "",
          "type": "uint256"
        }
      ],
      "stateMutability": "view",
      "type": "function"
    },
    {
      "inputs": [],
      "name": "MAX_TREASURY_FEE",
      "outputs": [
        {
          "internalType": "uint256",
          "name": "",
          "type": "uint256"
        }
      ],
      "stateMutability": "view",
      "type": "function"
    },
    {
      "inputs": [],
      "name": "MIN_DISCOUNT_DIVISOR",
      "outputs": [
        {
          "internalType": "uint256",
          "name": "",
          "type": "uint256"
        }
      ],
      "stateMutability": "view",
      "type": "function"
    },
    {
      "inputs": [],
      "name": "MIN_LENGTH_LOTTERY",
      "outputs": [
        {
          "internalType": "uint256",
          "name": "",
          "type": "uint256"
        }
      ],
      "stateMutability": "view",
      "type": "function"
    },
    {
      "inputs": [],
      "name": "currentLotteryId",
      "outputs": [
        {
          "internalType": "uint256",
          "name": "",
          "type": "uint256"
        }
      ],
      "stateMutability": "view",
      "type": "function"
    },
    {
      "inputs": [],
      "name": "currentTicketId",
      "outputs": [
        {
          "internalType": "uint256",
          "name": "",
          "type": "uint256"
        }
      ],
      "stateMutability": "view",
      "type": "function"
    },
    {
      "inputs": [],
      "name": "injectorAddress",
      "outputs": [
        {
          "internalType": "address",
          "name": "",
          "type": "address"
        }
      ],
      "stateMutability": "view",
      "type": "function"
    },
    {
      "inputs": [],
      "name": "maxNumberTicketsPerBuyOrClaim",
      "outputs": [
        {
          "internalType": "uint256",
          "name": "",
          "type": "uint256"
        }
      ],
      "stateMutability": "view",
      "type": "function"
    },
    {
      "inputs": [],
      "name": "maxPriceTicketInTokens",
      "outputs": [
        {
          "internalType": "uint256",
          "name": "",
          "type": "uint256"
        }
      ],
      "stateMutability": "view",
      "type": "function"
    },
    {
      "inputs": [],
      "name": "minPriceTicketInTokens",
      "outputs": [
        {
          "internalType": "uint256",
          "name": "",
          "type": "uint256"
        }
      ],
      "stateMutability": "view",
      "type": "function"
    },
    {
      "inputs": [],
      "name": "operatorAddress",
      "outputs": [
        {
          "internalType": "address",
          "name": "",
          "type": "address"
        }
      ],
      "stateMutability": "view",
      "type": "function"
    },
    {
      "inputs": [],
      "name": "owner",
      "outputs": [
        {
          "internalType": "address",
          "name": "",
          "type": "address"
        }
      ],
      "stateMutability": "view",
      "type": "function"
    },
    {
      "inputs": [],
      "name": "pendingInjectionNextLottery",
      "outputs": [
        {
          "internalType": "uint256",
          "name": "",
          "type": "uint256"
        }
      ],
      "stateMutability": "view",
      "type": "function"
    },
    {
      "inputs": [],
      "name": "randomGenerator",
      "outputs": [
        {
          "internalType": "contract IRandomNumberGenerator",
          "name": "",
          "type": "address"
        }
      ],
      "stateMutability": "view",
      "type": "function"
    },
    {
      "inputs": [],
      "name": "renounceOwnership",
      "outputs": [],
      "stateMutability": "nonpayable",
      "type": "function"
    },
    {
      "inputs": [],
      "name": "token",
      "outputs": [
        {
          "internalType": "contract IERC20",
          "name": "",
          "type": "address"
        }
      ],
      "stateMutability": "view",
      "type": "function"
    },
    {
      "inputs": [
        {
          "internalType": "address",
          "name": "newOwner",
          "type": "address"
        }
      ],
      "name": "transferOwnership",
      "outputs": [],
      "stateMutability": "nonpayable",
      "type": "function"
    },
    {
      "inputs": [],
      "name": "treasuryAddress",
      "outputs": [
        {
          "internalType": "address",
          "name": "",
          "type": "address"
        }
      ],
      "stateMutability": "view",
      "type": "function"
    },
    {
      "inputs": [
        {
          "internalType": "uint256",
          "name": "_lotteryId",
          "type": "uint256"
        },
        {
          "internalType": "uint32[]",
          "name": "_ticketNumbers",
          "type": "uint32[]"
        }
      ],
      "name": "buyTickets",
      "outputs": [],
      "stateMutability": "nonpayable",
      "type": "function"
    },
    {
      "inputs": [
        {
          "internalType": "uint256",
          "name": "_lotteryId",
          "type": "uint256"
        },
        {
          "internalType": "uint256[]",
          "name": "_ticketIds",
          "type": "uint256[]"
        },
        {
          "internalType": "uint32[]",
          "name": "_brackets",
          "type": "uint32[]"
        }
      ],
      "name": "claimTickets",
      "outputs": [],
      "stateMutability": "nonpayable",
      "type": "function"
    },
    {
      "inputs": [
        {
          "internalType": "uint256",
          "name": "_lotteryId",
          "type": "uint256"
        }
      ],
      "name": "closeLottery",
      "outputs": [],
      "stateMutability": "nonpayable",
      "type": "function"
    },
    {
      "inputs": [
        {
          "internalType": "uint256",
          "name": "_lotteryId",
          "type": "uint256"
        },
        {
          "internalType": "bool",
          "name": "_autoInjection",
          "type": "bool"
        }
      ],
      "name": "drawFinalNumberAndMakeLotteryClaimable",
      "outputs": [],
      "stateMutability": "nonpayable",
      "type": "function"
    },
    {
      "inputs": [
        {
          "internalType": "address",
          "name": "_randomGeneratorAddress",
          "type": "address"
        }
      ],
      "name": "changeRandomGenerator",
      "outputs": [],
      "stateMutability": "nonpayable",
      "type": "function"
    },
    {
      "inputs": [
        {
          "internalType": "uint256",
          "name": "_lotteryId",
          "type": "uint256"
        },
        {
          "internalType": "uint256",
          "name": "_amount",
          "type": "uint256"
        }
      ],
      "name": "injectFunds",
      "outputs": [],
      "stateMutability": "nonpayable",
      "type": "function"
    },
    {
      "inputs": [
        {
          "internalType": "uint256",
          "name": "_endTime",
          "type": "uint256"
        },
        {
          "internalType": "uint256",
          "name": "_priceTicketInTokens",
          "type": "uint256"
        },
        {
          "internalType": "uint256",
          "name": "_discountDivisor",
          "type": "uint256"
        },
        {
          "internalType": "uint256[6]",
          "name": "_rewardsBreakdown",
          "type": "uint256[6]"
        },
        {
          "internalType": "uint256",
          "name": "_treasuryFee",
          "type": "uint256"
        }
      ],
      "name": "startLottery",
      "outputs": [],
      "stateMutability": "nonpayable",
      "type": "function"
    },
    {
      "inputs": [
        {
          "internalType": "address",
          "name": "_tokenAddress",
          "type": "address"
        },
        {
          "internalType": "uint256",
          "name": "_tokenAmount",
          "type": "uint256"
        }
      ],
      "name": "recoverWrongTokens",
      "outputs": [],
      "stateMutability": "nonpayable",
      "type": "function"
    },
    {
      "inputs": [
        {
          "internalType": "uint256",
          "name": "_minPriceTicketInTokens",
          "type": "uint256"
        },
        {
          "internalType": "uint256",
          "name": "_maxPriceTicketInTokens",
          "type": "uint256"
        }
      ],
      "name": "setMinAndMaxTicketPriceInTokens",
      "outputs": [],
      "stateMutability": "nonpayable",
      "type": "function"
    },
    {
      "inputs": [
        {
          "internalType": "uint256",
          "name": "_maxNumberTicketsPerBuy",
          "type": "uint256"
        }
      ],
      "name": "setMaxNumberTicketsPerBuy",
      "outputs": [],
      "stateMutability": "nonpayable",
      "type": "function"
    },
    {
      "inputs": [
        {
          "internalType": "address",
          "name": "_operatorAddress",
          "type": "address"
        },
        {
          "internalType": "address",
          "name": "_treasuryAddress",
          "type": "address"
        },
        {
          "internalType": "address",
          "name": "_injectorAddress",
          "type": "address"
        }
      ],
      "name": "setOperatorAndTreasuryAndInjectorAddresses",
      "outputs": [],
      "stateMutability": "nonpayable",
      "type": "function"
    },
    {
      "inputs": [
        {
          "internalType": "uint256",
          "name": "_discountDivisor",
          "type": "uint256"
        },
        {
          "internalType": "uint256",
          "name": "_priceTicket",
          "type": "uint256"
        },
        {
          "internalType": "uint256",
          "name": "_numberTickets",
          "type": "uint256"
        }
      ],
      "name": "calculateTotalPriceForBulkTickets",
      "outputs": [
        {
          "internalType": "uint256",
          "name": "",
          "type": "uint256"
        }
      ],
      "stateMutability": "pure",
      "type": "function"
    },
    {
      "inputs": [],
      "name": "viewCurrentLotteryId",
      "outputs": [
        {
          "internalType": "uint256",
          "name": "",
          "type": "uint256"
        }
      ],
      "stateMutability": "view",
      "type": "function"
    },
    {
      "inputs": [
        {
          "internalType": "uint256",
          "name": "_lotteryId",
          "type": "uint256"
        }
      ],
      "name": "viewLottery",
      "outputs": [
        {
          "components": [
            {
              "internalType": "enum TokenLottery.Status",
              "name": "status",
              "type": "uint8"
            },
            {
              "internalType": "uint256",
              "name": "startTime",
              "type": "uint256"
            },
            {
              "internalType": "uint256",
              "name": "endTime",
              "type": "uint256"
            },
            {
              "internalType": "uint256",
              "name": "priceTicketInTokens",
              "type": "uint256"
            },
            {
              "internalType": "uint256",
              "name": "discountDivisor",
              "type": "uint256"
            },
            {
              "internalType": "uint256[6]",
              "name": "rewardsBreakdown",
              "type": "uint256[6]"
            },
            {
              "internalType": "uint256",
              "name": "treasuryFee",
              "type": "uint256"
            },
            {
              "internalType": "uint256[6]",
              "name": "tokensPerBracket",
              "type": "uint256[6]"
            },
            {
              "internalType": "uint256[6]",
              "name": "countWinnersPerBracket",
              "type": "uint256[6]"
            },
            {
              "internalType": "uint256",
              "name": "firstTicketId",
              "type": "uint256"
            },
            {
              "internalType": "uint256",
              "name": "firstTicketIdNextLottery",
              "type": "uint256"
            },
            {
              "internalType": "uint256",
              "name": "amountCollectedInTokens",
              "type": "uint256"
            },
            {
              "internalType": "uint32",
              "name": "finalNumber",
              "type": "uint32"
            }
          ],
          "internalType": "struct TokenLottery.Lottery",
          "name": "",
          "type": "tuple"
        }
      ],
      "stateMutability": "view",
      "type": "function"
    },
    {
      "inputs": [
        {
          "internalType": "uint256[]",
          "name": "_ticketIds",
          "type": "uint256[]"
        }
      ],
      "name": "viewNumbersAndStatusesForTicketIds",
      "outputs": [
        {
          "internalType": "uint32[]",
          "name": "",
          "type": "uint32[]"
        },
        {
          "internalType": "bool[]",
          "name": "",
          "type": "bool[]"
        }
      ],
      "stateMutability": "view",
      "type": "function"
    },
    {
      "inputs": [
        {
          "internalType": "uint256",
          "name": "_lotteryId",
          "type": "uint256"
        },
        {
          "internalType": "uint256",
          "name": "_ticketId",
          "type": "uint256"
        },
        {
          "internalType": "uint32",
          "name": "_bracket",
          "type": "uint32"
        }
      ],
      "name": "viewRewardsForTicketId",
      "outputs": [
        {
          "internalType": "uint256",
          "name": "",
          "type": "uint256"
        }
      ],
      "stateMutability": "view",
      "type": "function"
    },
    {
      "inputs": [
        {
          "internalType": "address",
          "name": "_user",
          "type": "address"
        },
        {
          "internalType": "uint256",
          "name": "_lotteryId",
          "type": "uint256"
        },
        {
          "internalType": "uint256",
          "name": "_cursor",
          "type": "uint256"
        },
        {
          "internalType": "uint256",
          "name": "_size",
          "type": "uint256"
        }
      ],
      "name": "viewUserInfoForLotteryId",
      "outputs": [
        {
          "internalType": "uint256[]",
          "name": "",
          "type": "uint256[]"
        },
        {
          "internalType": "uint32[]",
          "name": "",
          "type": "uint32[]"
        },
        {
          "internalType": "bool[]",
          "name": "",
          "type": "bool[]"
        },
        {
          "internalType": "uint256",
          "name": "",
          "type": "uint256"
        }
      ],
      "stateMutability": "view",
      "type": "function"
    }
  ],
  "bytecode": "0x608060405260646007556802b5e3af16b18800006008556611c37937e080006009553480156200002e57600080fd5b5060405162003d6e38038062003d6e833981016040819052620000519162000219565b60016000556200006133620001aa565b600b80546001600160a01b039384166001600160a01b0319918216178255600c805493909416921691909117909155600f6020527ff4803e074bd026baaf6ed2e288c9515f68c72fb7216eebdd7cae1718a53ec375805463ffffffff199081166001179091557f169f97de0d9a84d840042b17d3c6b9638b3d6fd9024c9eb0c7a306a17b49f88f805482169092179091557fa74ba3945261e09fde15ba3db55005b205e61eeb4ad811ac0faa2b315bffeead80548216606f1790557f45f76dafbbad695564362934e24d72eedc57f9fc1a65f39bca62176cc8296828805482166104571790557f367ccd2d0ac16bf7110a5dffe0801fdc9452a95a1adb7e1a12fe97dd3e9a4edd80548216612b6717905560056000527f6bda57492eba051cb4a12a1e19df47c9755d78165341d4009b1d09b3f361620480549091166201b20717905562000250565b600180546001600160a01b038381166001600160a01b0319831681179093556040519116919082907f8be0079c531659141344cd1fd0a4f28419497f9722a3daafe3b4186f6b6457e090600090a35050565b80516001600160a01b03811681146200021457600080fd5b919050565b600080604083850312156200022c578182fd5b6200023783620001fc565b91506200024760208401620001fc565b90509250929050565b613b0e80620002606000396000f3fe608060405234801561001057600080fd5b50600436106102115760003560e01c80638da5cb5b11610125578063c914914f116100ad578063e99201811161007c578063e992018114610445578063f2b3c80914610458578063f2fde38b14610461578063f4fe62af14610474578063fc0c546a1461047d57600080fd5b8063c914914f14610402578063da4ca03914610415578063db19da0d14610428578063dcbad90d1461043257600080fd5b80639d8ca531116100f45780639d8ca531146103a3578063b1829b82146103b6578063c38de539146103c9578063c4937ab9146103dc578063c5f956af146103ef57600080fd5b80638da5cb5b1461034b5780638fc3539a1461035c57806398359fa11461037d5780639c3846531461039057600080fd5b8063471aeab4116101a85780636be4097c116101775780636be4097c14610316578063715018a61461031f5780637cb583bd1461032757806380a061601461033057806388303dbd1461033857600080fd5b8063471aeab4146102de57806360f6ff96146102f1578063686465b8146102fa5780636b8737881461030357600080fd5b80631fe86c6b116101e45780631fe86c6b1461028d5780632423807a146102965780632e530cae146102b65780633f138d4b146102c957600080fd5b806305531eeb1461021657806307fb5a9c14610242578063127effb21461025957806312a9769d14610284575b600080fd5b610229610224366004613234565b610490565b60405161023994939291906135c3565b60405180910390f35b61024b61038481565b604051908152602001610239565b60035461026c906001600160a01b031681565b6040516001600160a01b039091168152602001610239565b61024b600a5481565b61024b60075481565b6102a96102a43660046132c8565b610808565b604051610239919061375a565b61024b6102c4366004613481565b610985565b6102dc6102d736600461320b565b610a1a565b005b6102dc6102ec3660046133e8565b610b05565b61024b60085481565b61024b60065481565b6102dc6103113660046132c8565b610c56565b61024b60055481565b6102dc610cc0565b61024b61012c81565b60055461024b565b6102dc61034636600461336f565b610cf6565b6001546001600160a01b031661026c565b61036f61036a36600461326c565b6112d7565b604051610239929190613637565b6102dc61038b3660046131af565b6114f3565b60025461026c906001600160a01b031681565b6102dc6103b13660046132c8565b6116af565b6102dc6103c4366004613434565b611892565b6102dc6103d73660046133b9565b611d98565b61024b6103ea366004613409565b612390565b60045461026c906001600160a01b031681565b6102dc6104103660046132f8565b61243c565b6102dc6104233660046131c9565b6129f9565b61024b6205472c81565b600c5461026c906001600160a01b031681565b6102dc6104533660046133e8565b612b19565b61024b610bb881565b6102dc61046f3660046131af565b612b9e565b61024b60095481565b600b5461026c906001600160a01b031681565b6001600160a01b0384166000908152601160209081526040808320868452909152812054606091829182919085906104c888826139c2565b8211156104dc576104d988826139c2565b91505b60008267ffffffffffffffff81111561050557634e487b7160e01b600052604160045260246000fd5b60405190808252806020026020018201604052801561052e578160200160208202803683370190505b50905060008367ffffffffffffffff81111561055a57634e487b7160e01b600052604160045260246000fd5b604051908082528060200260200182016040528015610583578160200160208202803683370190505b50905060008467ffffffffffffffff8111156105af57634e487b7160e01b600052604160045260246000fd5b6040519080825280602002602001820160405280156105d8578160200160208202803683370190505b50905060005b858110156107e257601160008f6001600160a01b03166001600160a01b0316815260200190815260200160002060008e81526020019081526020016000208c82610628919061381d565b8154811061064657634e487b7160e01b600052603260045260246000fd5b906000526020600020015484828151811061067157634e487b7160e01b600052603260045260246000fd5b602002602001018181525050600e60008583815181106106a157634e487b7160e01b600052603260045260246000fd5b6020026020010151815260200190815260200160002060000160009054906101000a900463ffffffff168382815181106106eb57634e487b7160e01b600052603260045260246000fd5b602002602001019063ffffffff16908163ffffffff168152505060006001600160a01b0316600e600086848151811061073457634e487b7160e01b600052603260045260246000fd5b60209081029190910181015182528101919091526040016000205464010000000090046001600160a01b0316141561079d57600182828151811061078857634e487b7160e01b600052603260045260246000fd5b911515602092830291909101909101526107d0565b60008282815181106107bf57634e487b7160e01b600052603260045260246000fd5b911515602092830291909101909101525b806107da81613a2a565b9150506105de565b508282826107f0888f61381d565b98509850985098505050505050945094509450949050565b61081061305e565b6000828152600d60205260409081902081516101a081019092528054829060ff16600381111561085057634e487b7160e01b600052602160045260246000fd5b600381111561086f57634e487b7160e01b600052602160045260246000fd5b81526001820154602082015260028201546040808301919091526003830154606083015260048301546080830152805160c081019182905260a09092019190600584019060069082845b8154815260200190600101908083116108b9575050509183525050600b82015460208201526040805160c081018252910190600c830160068282826020028201915b8154815260200190600101908083116108fb5750505091835250506040805160c081019182905260209092019190601284019060069082845b8154815260200190600101908083116109345750505091835250506018820154602082015260198201546040820152601a8201546060820152601b9091015463ffffffff1660809091015292915050565b600060036000858152600d602052604090205460ff1660038111156109ba57634e487b7160e01b600052602160045260246000fd5b146109c757506000610a13565b6000848152600d6020526040902060190154831180156109f857506000848152600d60205260409020601801548311155b15610a0557506000610a13565b610a10848484612c39565b90505b9392505050565b6001546001600160a01b03163314610a4d5760405162461bcd60e51b8152600401610a44906136c8565b60405180910390fd5b600b546001600160a01b0383811691161415610aab5760405162461bcd60e51b815260206004820152601760248201527f43616e6e6f74206265206c6f747465727920746f6b656e0000000000000000006044820152606401610a44565b610abf6001600160a01b0383163383612d52565b604080516001600160a01b0384168152602081018390527f74545154aac348a3eac92596bd1971957ca94795f4e954ec5f613b55fab78129910160405180910390a15050565b6001546001600160a01b0316331480610b2857506002546001600160a01b031633145b610b6c5760405162461bcd60e51b81526020600482015260156024820152742737ba1037bbb732b91037b91034b73532b1ba37b960591b6044820152606401610a44565b60016000838152600d602052604090205460ff166003811115610b9f57634e487b7160e01b600052602160045260246000fd5b14610bdf5760405162461bcd60e51b815260206004820152601060248201526f2637ba3a32b93c903737ba1037b832b760811b6044820152606401610a44565b600b54610bf7906001600160a01b0316333084612dba565b6000828152600d60205260408120601a018054839290610c1890849061381d565b909155505060405181815282907f1bbd659dd628a25f7ff2eabb69c74a56939c539728282275c1c9c1a2d3e340499060200160405180910390a25050565b6001546001600160a01b03163314610c805760405162461bcd60e51b8152600401610a44906136c8565b80610cbb5760405162461bcd60e51b815260206004820152600b60248201526a04d757374206265203e20360ac1b6044820152606401610a44565b600755565b6001546001600160a01b03163314610cea5760405162461bcd60e51b8152600401610a44906136c8565b610cf46000612df8565b565b333b15610d3c5760405162461bcd60e51b815260206004820152601460248201527310dbdb9d1c9858dd081b9bdd08185b1b1bddd95960621b6044820152606401610a44565b333214610d8b5760405162461bcd60e51b815260206004820152601a60248201527f50726f787920636f6e7472616374206e6f7420616c6c6f7765640000000000006044820152606401610a44565b60026000541415610dae5760405162461bcd60e51b8152600401610a44906136fd565b600260005580610df65760405162461bcd60e51b8152602060048201526013602482015272139bc81d1a58dad95d081cdc1958da599a5959606a1b6044820152606401610a44565b600754811115610e3b5760405162461bcd60e51b815260206004820152601060248201526f546f6f206d616e79207469636b65747360801b6044820152606401610a44565b60016000848152600d602052604090205460ff166003811115610e6e57634e487b7160e01b600052602160045260246000fd5b14610eb15760405162461bcd60e51b81526020600482015260136024820152722637ba3a32b93c9034b9903737ba1037b832b760691b6044820152606401610a44565b6000838152600d60205260409020600201544210610f035760405162461bcd60e51b815260206004820152600f60248201526e2637ba3a32b93c9034b99037bb32b960891b6044820152606401610a44565b6000838152600d602052604081206004810154600390910154610f27919084612e4a565b600b54909150610f42906001600160a01b0316333084612dba565b6000848152600d60205260408120601a018054839290610f6390849061381d565b90915550600090505b82811015611294576000848483818110610f9657634e487b7160e01b600052603260045260246000fd5b9050602002016020810190610fab91906134b9565b9050620f42408163ffffffff1610158015610fcf5750621e847f8163ffffffff1611155b61100b5760405162461bcd60e51b815260206004820152600d60248201526c4f7574736964652072616e676560981b6044820152606401610a44565b600086815260106020526040812090611025600a84613a69565b611030906001613835565b63ffffffff1681526020810191909152604001600090812080549161105483613a2a565b9091555050600086815260106020526040812090611073606484613a69565b61107e90600b613835565b63ffffffff168152602081019190915260400160009081208054916110a283613a2a565b90915550506000868152601060205260408120906110c26103e884613a69565b6110cd90606f613835565b63ffffffff168152602081019190915260400160009081208054916110f183613a2a565b909155505060008681526010602052604081209061111161271084613a69565b61111d90610457613835565b63ffffffff1681526020810191909152604001600090812080549161114183613a2a565b9091555050600086815260106020526040812090611162620186a084613a69565b61116e90612b67613835565b63ffffffff1681526020810191909152604001600090812080549161119283613a2a565b90915550506000868152601060205260408120906111b3620f424084613a69565b6111c0906201b207613835565b63ffffffff168152602081019190915260400160009081208054916111e483613a2a565b90915550503360008181526011602090815260408083208a84528252808320600680548254600181018455928652848620909201919091558151808301835263ffffffff808816825281850196875282548652600e9094529184209151825495516001600160a01b0316640100000000026001600160c01b0319909616931692909217939093179092558154919061127b83613a2a565b919050555050808061128c90613a2a565b915050610f6c565b50604051828152849033907fd7d247b583de1023852eef87b48f54354dbec771d01bc2cc49e96094efc322b99060200160405180910390a3505060016000555050565b6060808260008167ffffffffffffffff81111561130457634e487b7160e01b600052604160045260246000fd5b60405190808252806020026020018201604052801561132d578160200160208202803683370190505b50905060008267ffffffffffffffff81111561135957634e487b7160e01b600052604160045260246000fd5b604051908082528060200260200182016040528015611382578160200160208202803683370190505b50905060005b838110156114e457600e60008989848181106113b457634e487b7160e01b600052603260045260246000fd5b90506020020135815260200190815260200160002060000160009054906101000a900463ffffffff168382815181106113fd57634e487b7160e01b600052603260045260246000fd5b63ffffffff909216602092830291909101909101526000600e818a8a8581811061143757634e487b7160e01b600052603260045260246000fd5b602090810292909201358352508101919091526040016000205464010000000090046001600160a01b0316141561149f57600182828151811061148a57634e487b7160e01b600052603260045260246000fd5b911515602092830291909101909101526114d2565b60008282815181106114c157634e487b7160e01b600052603260045260246000fd5b911515602092830291909101909101525b806114dc81613a2a565b915050611388565b509093509150505b9250929050565b6001546001600160a01b0316331461151d5760405162461bcd60e51b8152600401610a44906136c8565b60036005546000908152600d602052604090205460ff16600381111561155357634e487b7160e01b600052602160045260246000fd5b146115a05760405162461bcd60e51b815260206004820152601860248201527f4c6f7474657279206e6f7420696e20636c61696d61626c6500000000000000006044820152606401610a44565b806001600160a01b031663dbdff2c16040518163ffffffff1660e01b8152600401600060405180830381600087803b1580156115db57600080fd5b505af11580156115ef573d6000803e3d6000fd5b50505050806001600160a01b031663a1c4f55a6040518163ffffffff1660e01b815260040160206040518083038186803b15801561162c57600080fd5b505afa158015611640573d6000803e3d6000fd5b505050506040513d601f19601f8201168201806040525081019061166491906134d5565b50600c80546001600160a01b0319166001600160a01b0383169081179091556040517f383f8cb39dfa7c3fb901a460dd449ea924868f0a92ff03da64740fffa5f1de6290600090a250565b6003546001600160a01b031633146116d95760405162461bcd60e51b8152600401610a4490613734565b600260005414156116fc5760405162461bcd60e51b8152600401610a44906136fd565b600260005560016000828152600d602052604090205460ff16600381111561173457634e487b7160e01b600052602160045260246000fd5b146117745760405162461bcd60e51b815260206004820152601060248201526f2637ba3a32b93c903737ba1037b832b760811b6044820152606401610a44565b6000818152600d602052604090206002015442116117c75760405162461bcd60e51b815260206004820152601060248201526f2637ba3a32b93c903737ba1037bb32b960811b6044820152606401610a44565b6006546000828152600d602052604080822060190192909255600c54825163dbdff2c160e01b815292516001600160a01b039091169263dbdff2c192600480830193919282900301818387803b15801561182057600080fd5b505af1158015611834573d6000803e3d6000fd5b5050506000828152600d6020908152604091829020805460ff1916600217905560065491519182528392507f3728e75294796694d59d2ffced9c394279baf7b9ebd2702db43f5f04bac67929910160405180910390a2506001600055565b6003546001600160a01b031633146118bc5760405162461bcd60e51b8152600401610a4490613734565b60055415806118fe575060036005546000908152600d602052604090205460ff1660038111156118fc57634e487b7160e01b600052602160045260246000fd5b145b61194a5760405162461bcd60e51b815260206004820152601960248201527f4e6f742074696d6520746f207374617274206c6f7474657279000000000000006044820152606401610a44565b61038461195742876139c2565b11801561196f57506205472c61196d42876139c2565b105b6119bb5760405162461bcd60e51b815260206004820152601f60248201527f4c6f7474657279206c656e677468206f757473696465206f662072616e6765006044820152606401610a44565b60095484101580156119cf57506008548411155b611a0f5760405162461bcd60e51b81526020600482015260116024820152704f757473696465206f66206c696d69747360781b6044820152606401610a44565b61012c831015611a615760405162461bcd60e51b815260206004820152601860248201527f446973636f756e742064697669736f7220746f6f206c6f7700000000000000006044820152606401610a44565b610bb8811115611aab5760405162461bcd60e51b81526020600482015260156024820152740a8e4cac2e6eae4f240cccaca40e8dede40d0d2ced605b1b6044820152606401610a44565b60a0820135608083013560608401356040850135611ace6020870135873561381d565b611ad8919061381d565b611ae2919061381d565b611aec919061381d565b611af6919061381d565b61271014611b465760405162461bcd60e51b815260206004820152601860248201527f52657761726473206d75737420657175616c20313030303000000000000000006044820152606401610a44565b60058054906000611b5683613a2a565b9091555050604080516101a0810190915280600181526020014281526020018681526020018581526020018481526020018360068060200260405190810160405280929190826006602002808284376000920182905250928452505060208083018590526040805160c080820183528482528184018590528183018590526060808301869052608080840187905260a080850188905285890194909452845180840186528781528087018890528086018890528083018890528082018890528085018890529188019190915260065490870181905291860191909152600a549085015260e09093018290526005548252600d90522081518154829060ff19166001836003811115611c7757634e487b7160e01b600052602160045260246000fd5b02179055506020820151600182015560408201516002820155606082015160038201556080820151600482015560a0820151611cb990600583019060066130df565b5060c0820151600b82015560e0820151611cd990600c83019060066130df565b50610100820151611cf090601283019060066130df565b5061012082015160188201556101408201516019820155610160820151601a82015561018090910151601b909101805463ffffffff191663ffffffff909216919091179055600554600654600a5460408051428152602081018a9052908101889052606081019290925260808201527f367e70f8c0e0c0a6504d92172bda155c02022d532fc85b5d66a9c49e31c8bc779060a00160405180910390a250506000600a55505050565b6003546001600160a01b03163314611dc25760405162461bcd60e51b8152600401610a4490613734565b60026000541415611de55760405162461bcd60e51b8152600401610a44906136fd565b60026000818155838152600d602052604090205460ff166003811115611e1b57634e487b7160e01b600052602160045260246000fd5b14611e5c5760405162461bcd60e51b81526020600482015260116024820152704c6f7474657279206e6f7420636c6f736560781b6044820152606401610a44565b600c60009054906101000a90046001600160a01b03166001600160a01b031663fbe5d9176040518163ffffffff1660e01b815260040160206040518083038186803b158015611eaa57600080fd5b505afa158015611ebe573d6000803e3d6000fd5b505050506040513d601f19601f82011682018060405250810190611ee291906132e0565b8214611f245760405162461bcd60e51b8152602060048201526011602482015270273ab6b132b939903737ba10323930bbb760791b6044820152606401610a44565b600c54604080516350e27aad60e11b815290516000926001600160a01b03169163a1c4f55a916004808301926020929190829003018186803b158015611f6957600080fd5b505afa158015611f7d573d6000803e3d6000fd5b505050506040513d601f19601f82011682018060405250810190611fa191906134d5565b6000848152600d60205260408120600b015491925090819061271090611fc790826139c2565b6000878152600d60205260409020601a0154611fe391906139a3565b611fed919061385d565b90506000805b60068163ffffffff1610156122bb57600061200f8260056139d9565b9050600061201e826001613835565b61202990600a6138b8565b6120339088613a69565b63ffffffff8084166000908152600f6020526040902054612055929116613835565b60008a815260106020908152604080832063ffffffff851684529091529020549091506120839087906139c2565b60008a8152600d6020526040902060120163ffffffff8416600681106120b957634e487b7160e01b600052603260045260246000fd5b0155600089815260106020908152604080832063ffffffff851684529091529020546120e69087906139c2565b1561220f576000898152600d6020526040902060050163ffffffff83166006811061212157634e487b7160e01b600052603260045260246000fd5b01541561220a57600089815260106020908152604080832063ffffffff85168452909152902054612710906121579088906139c2565b60008b8152600d60205260409020879060050163ffffffff86166006811061218f57634e487b7160e01b600052603260045260246000fd5b015461219b91906139a3565b6121a5919061385d565b6121af919061385d565b60008a8152600d60205260409020600c0163ffffffff8416600681106121e557634e487b7160e01b600052603260045260246000fd5b0155600089815260106020908152604080832063ffffffff8516845290915290205495505b6122a6565b6000898152600d60205260408120600c0163ffffffff84166006811061224557634e487b7160e01b600052603260045260246000fd5b01556000898152600d6020526040902061271090869060050163ffffffff85166006811061228357634e487b7160e01b600052603260045260246000fd5b015461228f91906139a3565b612299919061385d565b6122a3908561381d565b93505b505080806122b390613a45565b915050611ff3565b506000868152600d60205260409020601b8101805463ffffffff871663ffffffff19909116179055805460ff1916600317905584156122fa57600a5560005b6000868152600d60205260409020601a01546123179083906139c2565b612321908261381d565b600454600b54919250612341916001600160a01b03908116911683612d52565b6005546040805163ffffffff87168152602081018690527f98e31a6607b8b15b4d5b91de54f4c09ffe4c4cf162aa532c70b5213754e2e703910160405180910390a25050600160005550505050565b600061012c8410156123e45760405162461bcd60e51b815260206004820152601f60248201527f4d757374206265203e3d204d494e5f444953434f554e545f44495649534f52006044820152606401610a44565b816124315760405162461bcd60e51b815260206004820152601d60248201527f4e756d626572206f66207469636b657473206d757374206265203e20300000006044820152606401610a44565b610a10848484612e4a565b333b156124825760405162461bcd60e51b815260206004820152601460248201527310dbdb9d1c9858dd081b9bdd08185b1b1bddd95960621b6044820152606401610a44565b3332146124d15760405162461bcd60e51b815260206004820152601a60248201527f50726f787920636f6e7472616374206e6f7420616c6c6f7765640000000000006044820152606401610a44565b600260005414156124f45760405162461bcd60e51b8152600401610a44906136fd565b600260005582811461253a5760405162461bcd60e51b815260206004820152600f60248201526e09cdee840e6c2daca40d8cadccee8d608b1b6044820152606401610a44565b8261257b5760405162461bcd60e51b815260206004820152601160248201527004c656e677468206d757374206265203e3607c1b6044820152606401610a44565b6007548311156125c05760405162461bcd60e51b815260206004820152601060248201526f546f6f206d616e79207469636b65747360801b6044820152606401610a44565b60036000868152600d602052604090205460ff1660038111156125f357634e487b7160e01b600052602160045260246000fd5b146126385760405162461bcd60e51b81526020600482015260156024820152744c6f7474657279206e6f7420636c61696d61626c6560581b6044820152606401610a44565b6000805b8481101561299757600684848381811061266657634e487b7160e01b600052603260045260246000fd5b905060200201602081019061267b91906134b9565b63ffffffff16106126c55760405162461bcd60e51b8152602060048201526014602482015273427261636b6574206f7574206f662072616e676560601b6044820152606401610a44565b60008686838181106126e757634e487b7160e01b600052603260045260246000fd5b90506020020135905080600d60008a815260200190815260200160002060190154116127495760405162461bcd60e51b81526020600482015260116024820152700a8d2c6d6cae892c840e8dede40d0d2ced607b1b6044820152606401610a44565b6000888152600d602052604090206018015481101561279d5760405162461bcd60e51b815260206004820152601060248201526f5469636b6574496420746f6f206c6f7760801b6044820152606401610a44565b6000818152600e602052604090205464010000000090046001600160a01b031633146127fb5760405162461bcd60e51b815260206004820152600d60248201526c2737ba103a34329037bbb732b960991b6044820152606401610a44565b6000818152600e602052604081208054640100000000600160c01b031916905561285a898388888781811061284057634e487b7160e01b600052603260045260246000fd5b905060200201602081019061285591906134b9565b612c39565b9050806128a95760405162461bcd60e51b815260206004820152601960248201527f4e6f207072697a6520666f72207468697320627261636b6574000000000000006044820152606401610a44565b8585848181106128c957634e487b7160e01b600052603260045260246000fd5b90506020020160208101906128de91906134b9565b63ffffffff1660051461297657612930898388888781811061291057634e487b7160e01b600052603260045260246000fd5b905060200201602081019061292591906134b9565b612855906001613835565b156129765760405162461bcd60e51b8152602060048201526016602482015275213930b1b5b2ba1036bab9ba103132903434b3b432b960511b6044820152606401610a44565b612980818561381d565b93505050808061298f90613a2a565b91505061263c565b50600b546129af906001600160a01b03163383612d52565b6040805182815260208101869052879133917f0f5fca62da8fb5d95525b49e5eaa7b20bc6bd9e2f6b64b493442d1c0bd6ef486910160405180910390a35050600160005550505050565b6001546001600160a01b03163314612a235760405162461bcd60e51b8152600401610a44906136c8565b6001600160a01b038316612a495760405162461bcd60e51b8152600401610a4490613698565b6001600160a01b038216612a6f5760405162461bcd60e51b8152600401610a4490613698565b6001600160a01b038116612a955760405162461bcd60e51b8152600401610a4490613698565b600380546001600160a01b038581166001600160a01b0319928316811790935560048054868316908416811790915560028054928616929093168217909255604080519384526020840192909252908201527f3e945b7660001d46cfd5e729545f7f0b6c65bdee54066a91c7acad703f1b731e9060600160405180910390a1505050565b6001546001600160a01b03163314612b435760405162461bcd60e51b8152600401610a44906136c8565b80821115612b935760405162461bcd60e51b815260206004820152601b60248201527f6d696e5072696365206d757374206265203c206d6178507269636500000000006044820152606401610a44565b600991909155600855565b6001546001600160a01b03163314612bc85760405162461bcd60e51b8152600401610a44906136c8565b6001600160a01b038116612c2d5760405162461bcd60e51b815260206004820152602660248201527f4f776e61626c653a206e6577206f776e657220697320746865207a65726f206160448201526564647265737360d01b6064820152608401610a44565b612c3681612df8565b50565b6000838152600d60209081526040808320601b0154858452600e90925282205463ffffffff918216911682612c6f856001613835565b612c7a90600a6138b8565b612c849083613a69565b63ffffffff8087166000908152600f6020526040902054612ca6929116613835565b90506000612cb5866001613835565b612cc090600a6138b8565b612cca9085613a69565b63ffffffff8088166000908152600f6020526040902054612cec929116613835565b90508063ffffffff168263ffffffff161415612d45576000888152600d60205260409020600c0163ffffffff871660068110612d3857634e487b7160e01b600052603260045260246000fd5b0154945050505050610a13565b6000945050505050610a13565b6040516001600160a01b038316602482015260448101829052612db590849063a9059cbb60e01b906064015b60408051601f198184030181529190526020810180516001600160e01b03166001600160e01b031990931692909217909152612e81565b505050565b6040516001600160a01b0380851660248301528316604482015260648101829052612df29085906323b872dd60e01b90608401612d7e565b50505050565b600180546001600160a01b038381166001600160a01b0319831681179093556040519116919082907f8be0079c531659141344cd1fd0a4f28419497f9722a3daafe3b4186f6b6457e090600090a35050565b60008382612e5982600161381d565b612e6391906139c2565b612e6d84866139a3565b612e7791906139a3565b610a10919061385d565b6000612ed6826040518060400160405280602081526020017f5361666545524332303a206c6f772d6c6576656c2063616c6c206661696c6564815250856001600160a01b0316612f539092919063ffffffff16565b805190915015612db55780806020019051810190612ef491906132ac565b612db55760405162461bcd60e51b815260206004820152602a60248201527f5361666545524332303a204552433230206f7065726174696f6e20646964206e6044820152691bdd081cdd58d8d9595960b21b6064820152608401610a44565b6060610a10848460008585843b612fac5760405162461bcd60e51b815260206004820152601d60248201527f416464726573733a2063616c6c20746f206e6f6e2d636f6e74726163740000006044820152606401610a44565b600080866001600160a01b03168587604051612fc891906135a7565b60006040518083038185875af1925050503d8060008114613005576040519150601f19603f3d011682016040523d82523d6000602084013e61300a565b606091505b509150915061301a828286613025565b979650505050505050565b60608315613034575081610a13565b8251156130445782518084602001fd5b8160405162461bcd60e51b8152600401610a449190613665565b604080516101a0810190915280600081526020016000815260200160008152602001600081526020016000815260200161309661311d565b8152602001600081526020016130aa61311d565b81526020016130b761311d565b8152602001600081526020016000815260200160008152602001600063ffffffff1681525090565b826006810192821561310d579160200282015b8281111561310d5782518255916020019190600101906130f2565b5061311992915061313b565b5090565b6040518060c001604052806006906020820280368337509192915050565b5b80821115613119576000815560010161313c565b80356001600160a01b038116811461316757600080fd5b919050565b60008083601f84011261317d578182fd5b50813567ffffffffffffffff811115613194578182fd5b6020830191508360208260051b85010111156114ec57600080fd5b6000602082840312156131c0578081fd5b610a1382613150565b6000806000606084860312156131dd578182fd5b6131e684613150565b92506131f460208501613150565b915061320260408501613150565b90509250925092565b6000806040838503121561321d578182fd5b61322683613150565b946020939093013593505050565b60008060008060808587031215613249578081fd5b61325285613150565b966020860135965060408601359560600135945092505050565b6000806020838503121561327e578182fd5b823567ffffffffffffffff811115613294578283fd5b6132a08582860161316c565b90969095509350505050565b6000602082840312156132bd578081fd5b8151610a1381613ab8565b6000602082840312156132d9578081fd5b5035919050565b6000602082840312156132f1578081fd5b5051919050565b60008060008060006060868803121561330f578081fd5b85359450602086013567ffffffffffffffff8082111561332d578283fd5b61333989838a0161316c565b90965094506040880135915080821115613351578283fd5b5061335e8882890161316c565b969995985093965092949392505050565b600080600060408486031215613383578283fd5b83359250602084013567ffffffffffffffff8111156133a0578283fd5b6133ac8682870161316c565b9497909650939450505050565b600080604083850312156133cb578182fd5b8235915060208301356133dd81613ab8565b809150509250929050565b600080604083850312156133fa578182fd5b50508035926020909101359150565b60008060006060848603121561341d578283fd5b505081359360208301359350604090920135919050565b6000806000806000610140868803121561344c578283fd5b85359450602086013593506040860135925061012086018781111561346f578182fd5b94979396509194606001933592915050565b600080600060608486031215613495578081fd5b833592506020840135915060408401356134ae81613ac6565b809150509250925092565b6000602082840312156134ca578081fd5b8135610a1381613ac6565b6000602082840312156134e6578081fd5b8151610a1381613ac6565b6000815180845260208085019450808401835b83811015613522578151151587529582019590820190600101613504565b509495945050505050565b8060005b6006811015612df2578151845260209384019390910190600101613531565b6000815180845260208085019450808401835b8381101561352257815163ffffffff1687529582019590820190600101613563565b600481106135a357634e487b7160e01b600052602160045260246000fd5b9052565b600082516135b98184602087016139fe565b9190910192915050565b6080808252855190820181905260009060209060a0840190828901845b828110156135fc578151845292840192908401906001016135e0565b505050838103828501526136108188613550565b915050828103604084015261362581866134f1565b91505082606083015295945050505050565b60408152600061364a6040830185613550565b828103602084015261365c81856134f1565b95945050505050565b60208152600082518060208401526136848160408501602087016139fe565b601f01601f19169190910160400192915050565b60208082526016908201527543616e6e6f74206265207a65726f206164647265737360501b604082015260600190565b6020808252818101527f4f776e61626c653a2063616c6c6572206973206e6f7420746865206f776e6572604082015260600190565b6020808252601f908201527f5265656e7472616e637947756172643a207265656e7472616e742063616c6c00604082015260600190565b6020808252600c908201526b2737ba1037b832b930ba37b960a11b604082015260600190565b60006103808201905061376e828451613585565b6020830151602083015260408301516040830152606083015160608301526080830151608083015260a08301516137a860a084018261352d565b5060c0830151610160818185015260e085015191506101806137cc8186018461352d565b61010086015192506137e261024086018461352d565b6101208601516103008601526101408601516103208601529085015161034085015284015163ffffffff811661036085015290505092915050565b6000821982111561383057613830613a8c565b500190565b600063ffffffff80831681851680830382111561385457613854613a8c565b01949350505050565b60008261386c5761386c613aa2565b500490565b60018163ffffffff825b808611156138af5782820483111561389557613895613a8c565b808616156138a257928202925b94851c949180029161387b565b50509250929050565b600063ffffffff6138cd8185168285166138d5565b949350505050565b6000826138e45750600161399d565b816138f15750600061399d565b8160018114613907576002811461391157613942565b600191505061399d565b60ff84111561392257613922613a8c565b6001841b915063ffffffff82111561393c5761393c613a8c565b5061399d565b5060208310610133831016604e8410600b8410161715613979575081810a63ffffffff81111561397457613974613a8c565b61399d565b6139838383613871565b8063ffffffff0482111561399957613999613a8c565b0290505b92915050565b60008160001904831182151516156139bd576139bd613a8c565b500290565b6000828210156139d4576139d4613a8c565b500390565b600063ffffffff838116908316818110156139f6576139f6613a8c565b039392505050565b60005b83811015613a19578181015183820152602001613a01565b83811115612df25750506000910152565b6000600019821415613a3e57613a3e613a8c565b5060010190565b600063ffffffff80831681811415613a5f57613a5f613a8c565b6001019392505050565b600063ffffffff80841680613a8057613a80613aa2565b92169190910692915050565b634e487b7160e01b600052601160045260246000fd5b634e487b7160e01b600052601260045260246000fd5b8015158114612c3657600080fd5b63ffffffff81168114612c3657600080fdfea2646970667358221220a3e2b4455eed072ec12894bd1ce42ae33e56000938f258707199dcf063085fbe64736f6c63430008040033",
  "immutableReferences": {},
  "source": "// SPDX-License-Identifier: MIT\npragma solidity 0.8.4;\npragma abicoder v2;\n\nimport \"@openzeppelin/contracts/access/Ownable.sol\";\nimport \"@openzeppelin/contracts/token/ERC20/utils/SafeERC20.sol\";\nimport \"@openzeppelin/contracts/security/ReentrancyGuard.sol\";\nimport \"./interfaces/IRandomNumberGenerator.sol\";\nimport \"./interfaces/ILottery.sol\";\n\n/** @title TokenLottery.\n * @notice It is a contract for a lottery system using\n * randomness provided externally.\n */\ncontract TokenLottery is ReentrancyGuard, ILottery, Ownable {\n    using SafeERC20 for IERC20;\n\n    address public injectorAddress;\n    address public operatorAddress;\n    address public treasuryAddress;\n\n    uint256 public currentLotteryId;\n    uint256 public currentTicketId;\n\n    uint256 public maxNumberTicketsPerBuyOrClaim = 100;\n\n    uint256 public maxPriceTicketInTokens = 50 ether;\n    uint256 public minPriceTicketInTokens = 0.005 ether;\n\n    uint256 public pendingInjectionNextLottery;\n\n    uint256 public constant MIN_DISCOUNT_DIVISOR = 300;\n    // uint256 public constant MIN_LENGTH_LOTTERY = 4 hours - 5 minutes; // 4 hours\n    uint256 public constant MIN_LENGTH_LOTTERY = 15 minutes;\n    uint256 public constant MAX_LENGTH_LOTTERY = 4 days + 5 minutes; // 4 days\n    uint256 public constant MAX_TREASURY_FEE = 3000; // 30%\n\n    IERC20 public token;\n    IRandomNumberGenerator public randomGenerator;\n\n    enum Status {\n        Pending,\n        Open,\n        Close,\n        Claimable\n    }\n\n    struct Lottery {\n        Status status;\n        uint256 startTime;\n        uint256 endTime;\n        uint256 priceTicketInTokens;\n        uint256 discountDivisor;\n        uint256[6] rewardsBreakdown; // 0: 1 matching number // 5: 6 matching numbers\n        uint256 treasuryFee; // 500: 5% // 200: 2% // 50: 0.5%\n        uint256[6] tokensPerBracket;\n        uint256[6] countWinnersPerBracket;\n        uint256 firstTicketId;\n        uint256 firstTicketIdNextLottery;\n        uint256 amountCollectedInTokens;\n        uint32 finalNumber;\n    }\n\n    struct Ticket {\n        uint32 number;\n        address owner;\n    }\n\n    // Mapping are cheaper than arrays\n    mapping(uint256 => Lottery) private _lotteries;\n    mapping(uint256 => Ticket) private _tickets;\n\n    // Bracket calculator is used for verifying claims for ticket prizes\n    mapping(uint32 => uint32) private _bracketCalculator;\n\n    // Keeps track of number of ticket per unique combination for each lotteryId\n    mapping(uint256 => mapping(uint32 => uint256)) private _numberTicketsPerLotteryId;\n\n    // Keep track of user ticket ids for a given lotteryId\n    mapping(address => mapping(uint256 => uint256[])) private _userTicketIdsPerLotteryId;\n\n    modifier notContract() {\n        require(!_isContract(msg.sender), \"Contract not allowed\");\n        require(msg.sender == tx.origin, \"Proxy contract not allowed\");\n        _;\n    }\n\n    modifier onlyOperator() {\n        require(msg.sender == operatorAddress, \"Not operator\");\n        _;\n    }\n\n    modifier onlyOwnerOrInjector() {\n        require((msg.sender == owner()) || (msg.sender == injectorAddress), \"Not owner or injector\");\n        _;\n    }\n\n    event AdminTokenRecovery(address token, uint256 amount);\n    event LotteryClose(uint256 indexed lotteryId, uint256 firstTicketIdNextLottery);\n    event LotteryInjection(uint256 indexed lotteryId, uint256 injectedAmount);\n    event LotteryOpen(\n        uint256 indexed lotteryId,\n        uint256 startTime,\n        uint256 endTime,\n        uint256 priceTicketInTokens,\n        uint256 firstTicketId,\n        uint256 injectedAmount\n    );\n    event LotteryNumberDrawn(uint256 indexed lotteryId, uint256 finalNumber, uint256 countWinningTickets);\n    event NewOperatorAndTreasuryAndInjectorAddresses(address operator, address treasury, address injector);\n    event NewRandomGenerator(address indexed randomGenerator);\n    event TicketsPurchase(address indexed buyer, uint256 indexed lotteryId, uint256 numberTickets);\n    event TicketsClaim(address indexed claimer, uint256 amount, uint256 indexed lotteryId, uint256 numberTickets);\n\n    /**\n     * @notice Constructor\n     * @dev RandomNumberGenerator must be deployed prior to this contract\n     * @param _tokenAddress: address of the Token\n     * @param _randomGeneratorAddress: address of the RandomGenerator contract used to work with ChainLink VRF\n     */\n    constructor(address _tokenAddress, address _randomGeneratorAddress) {\n        token = IERC20(_tokenAddress);\n        randomGenerator = IRandomNumberGenerator(_randomGeneratorAddress);\n\n        // Initializes a mapping\n        _bracketCalculator[0] = 1;\n        _bracketCalculator[1] = 11;\n        _bracketCalculator[2] = 111;\n        _bracketCalculator[3] = 1111;\n        _bracketCalculator[4] = 11111;\n        _bracketCalculator[5] = 111111;\n    }\n\n    /**\n     * @notice Buy tickets for the current lottery\n     * @param _lotteryId: lotteryId\n     * @param _ticketNumbers: array of ticket numbers between 1,000,000 and 1,999,999\n     * @dev Callable by users\n     */\n    function buyTickets(uint256 _lotteryId, uint32[] calldata _ticketNumbers)\n        external\n        override\n        notContract\n        nonReentrant\n    {\n        require(_ticketNumbers.length != 0, \"No ticket specified\");\n        require(_ticketNumbers.length <= maxNumberTicketsPerBuyOrClaim, \"Too many tickets\");\n\n        require(_lotteries[_lotteryId].status == Status.Open, \"Lottery is not open\");\n        require(block.timestamp < _lotteries[_lotteryId].endTime, \"Lottery is over\");\n\n        // Calculate number of tokens to this contract\n        uint256 amountToTransfer = _calculateTotalPriceForBulkTickets(\n            _lotteries[_lotteryId].discountDivisor,\n            _lotteries[_lotteryId].priceTicketInTokens,\n            _ticketNumbers.length\n        );\n\n        // Transfer tokens to this contract\n        token.safeTransferFrom(address(msg.sender), address(this), amountToTransfer);\n\n        // Increment the total amount collected for the lottery round\n        _lotteries[_lotteryId].amountCollectedInTokens += amountToTransfer;\n\n        for (uint256 i = 0; i < _ticketNumbers.length; i++) {\n            uint32 thisTicketNumber = _ticketNumbers[i];\n\n            require((thisTicketNumber >= 1000000) && (thisTicketNumber <= 1999999), \"Outside range\");\n\n            _numberTicketsPerLotteryId[_lotteryId][1 + (thisTicketNumber % 10)]++;\n            _numberTicketsPerLotteryId[_lotteryId][11 + (thisTicketNumber % 100)]++;\n            _numberTicketsPerLotteryId[_lotteryId][111 + (thisTicketNumber % 1000)]++;\n            _numberTicketsPerLotteryId[_lotteryId][1111 + (thisTicketNumber % 10000)]++;\n            _numberTicketsPerLotteryId[_lotteryId][11111 + (thisTicketNumber % 100000)]++;\n            _numberTicketsPerLotteryId[_lotteryId][111111 + (thisTicketNumber % 1000000)]++;\n\n            _userTicketIdsPerLotteryId[msg.sender][_lotteryId].push(currentTicketId);\n\n            _tickets[currentTicketId] = Ticket({number: thisTicketNumber, owner: msg.sender});\n\n            // Increase lottery ticket number\n            currentTicketId++;\n        }\n\n        emit TicketsPurchase(msg.sender, _lotteryId, _ticketNumbers.length);\n    }\n\n    /**\n     * @notice Claim a set of winning tickets for a lottery\n     * @param _lotteryId: lottery id\n     * @param _ticketIds: array of ticket ids\n     * @param _brackets: array of brackets for the ticket ids\n     * @dev Callable by users only, not contract!\n     */\n    function claimTickets(\n        uint256 _lotteryId,\n        uint256[] calldata _ticketIds,\n        uint32[] calldata _brackets\n    ) external override notContract nonReentrant {\n        require(_ticketIds.length == _brackets.length, \"Not same length\");\n        require(_ticketIds.length != 0, \"Length must be >0\");\n        require(_ticketIds.length <= maxNumberTicketsPerBuyOrClaim, \"Too many tickets\");\n        require(_lotteries[_lotteryId].status == Status.Claimable, \"Lottery not claimable\");\n\n        // Initializes the rewardInTokensToTransfer\n        uint256 rewardInTokensToTransfer;\n\n        for (uint256 i = 0; i < _ticketIds.length; i++) {\n            require(_brackets[i] < 6, \"Bracket out of range\"); // Must be between 0 and 5\n\n            uint256 thisTicketId = _ticketIds[i];\n\n            require(_lotteries[_lotteryId].firstTicketIdNextLottery > thisTicketId, \"TicketId too high\");\n            require(_lotteries[_lotteryId].firstTicketId <= thisTicketId, \"TicketId too low\");\n            require(msg.sender == _tickets[thisTicketId].owner, \"Not the owner\");\n\n            // Update the lottery ticket owner to 0x address\n            _tickets[thisTicketId].owner = address(0);\n\n            uint256 rewardForTicketId = _calculateRewardsForTicketId(_lotteryId, thisTicketId, _brackets[i]);\n\n            // Check user is claiming the correct bracket\n            require(rewardForTicketId != 0, \"No prize for this bracket\");\n\n            if (_brackets[i] != 5) {\n                require(\n                    _calculateRewardsForTicketId(_lotteryId, thisTicketId, _brackets[i] + 1) == 0,\n                    \"Bracket must be higher\"\n                );\n            }\n\n            // Increment the reward to transfer\n            rewardInTokensToTransfer += rewardForTicketId;\n        }\n\n        // Transfer money to msg.sender\n        token.safeTransfer(msg.sender, rewardInTokensToTransfer);\n\n        emit TicketsClaim(msg.sender, rewardInTokensToTransfer, _lotteryId, _ticketIds.length);\n    }\n\n    /**\n     * @notice Close lottery\n     * @param _lotteryId: lottery id\n     * @dev Callable by operator\n     */\n    function closeLottery(uint256 _lotteryId) external override onlyOperator nonReentrant {\n        require(_lotteries[_lotteryId].status == Status.Open, \"Lottery not open\");\n        require(block.timestamp > _lotteries[_lotteryId].endTime, \"Lottery not over\");\n        _lotteries[_lotteryId].firstTicketIdNextLottery = currentTicketId;\n\n        randomGenerator.getRandomNumber();\n\n        _lotteries[_lotteryId].status = Status.Close;\n\n        emit LotteryClose(_lotteryId, currentTicketId);\n    }\n\n    /**\n     * @notice Draw the final number, calculate reward in Tokens per group, and make lottery claimable\n     * @param _lotteryId: lottery id\n     * @param _autoInjection: reinjects funds into next lottery (vs. withdrawing all)\n     * @dev Callable by operator\n     */\n    function drawFinalNumberAndMakeLotteryClaimable(uint256 _lotteryId, bool _autoInjection)\n        external\n        override\n        onlyOperator\n        nonReentrant\n    {\n        require(_lotteries[_lotteryId].status == Status.Close, \"Lottery not close\");\n        require(_lotteryId == randomGenerator.viewLatestLotteryId(), \"Numbers not drawn\");\n\n        // Calculate the finalNumber based on the randomResult generated by ChainLink's fallback\n        uint32 finalNumber = randomGenerator.viewRandomResult();\n\n        // Initialize a number to count addresses in the previous bracket\n        uint256 numberAddressesInPreviousBracket;\n\n        // Calculate the amount to share post-treasury fee\n        uint256 amountToShareToWinners = (\n            ((_lotteries[_lotteryId].amountCollectedInTokens) * (10000 - _lotteries[_lotteryId].treasuryFee))\n        ) / 10000;\n\n        // Initializes the amount to withdraw to treasury\n        uint256 amountToWithdrawToTreasury;\n\n        // Calculate prizes in Tokens for each bracket by starting from the highest one\n        for (uint32 i = 0; i < 6; i++) {\n            uint32 j = 5 - i;\n            uint32 transformedWinningNumber = _bracketCalculator[j] + (finalNumber % (uint32(10)**(j + 1)));\n\n            _lotteries[_lotteryId].countWinnersPerBracket[j] =\n                _numberTicketsPerLotteryId[_lotteryId][transformedWinningNumber] -\n                numberAddressesInPreviousBracket;\n\n            // A. If number of users for this _bracket number is superior to 0\n            if (\n                (_numberTicketsPerLotteryId[_lotteryId][transformedWinningNumber] - numberAddressesInPreviousBracket) !=\n                0\n            ) {\n                // B. If rewards at this bracket are > 0, calculate, else, report the numberAddresses from previous bracket\n                if (_lotteries[_lotteryId].rewardsBreakdown[j] != 0) {\n                    _lotteries[_lotteryId].tokensPerBracket[j] =\n                        ((_lotteries[_lotteryId].rewardsBreakdown[j] * amountToShareToWinners) /\n                            (_numberTicketsPerLotteryId[_lotteryId][transformedWinningNumber] -\n                                numberAddressesInPreviousBracket)) /\n                        10000;\n\n                    // Update numberAddressesInPreviousBracket\n                    numberAddressesInPreviousBracket = _numberTicketsPerLotteryId[_lotteryId][transformedWinningNumber];\n                }\n                // A. No Tokens to distribute, they are added to the amount to withdraw to treasury address\n            } else {\n                _lotteries[_lotteryId].tokensPerBracket[j] = 0;\n\n                amountToWithdrawToTreasury +=\n                    (_lotteries[_lotteryId].rewardsBreakdown[j] * amountToShareToWinners) /\n                    10000;\n            }\n        }\n\n        // Update internal statuses for lottery\n        _lotteries[_lotteryId].finalNumber = finalNumber;\n        _lotteries[_lotteryId].status = Status.Claimable;\n\n        if (_autoInjection) {\n            pendingInjectionNextLottery = amountToWithdrawToTreasury;\n            amountToWithdrawToTreasury = 0;\n        }\n\n        amountToWithdrawToTreasury += (_lotteries[_lotteryId].amountCollectedInTokens - amountToShareToWinners);\n\n        // Transfer tokens to treasury address\n        token.safeTransfer(treasuryAddress, amountToWithdrawToTreasury);\n\n        emit LotteryNumberDrawn(currentLotteryId, finalNumber, numberAddressesInPreviousBracket);\n    }\n\n    /**\n     * @notice Change the random generator\n     * @dev The calls to functions are used to verify the new generator implements them properly.\n     * It is necessary to wait for the VRF response before starting a round.\n     * Callable only by the contract owner\n     * @param _randomGeneratorAddress: address of the random generator\n     */\n    function changeRandomGenerator(address _randomGeneratorAddress) external onlyOwner {\n        require(_lotteries[currentLotteryId].status == Status.Claimable, \"Lottery not in claimable\");\n\n        // Request a random number from the generator based on a seed\n        IRandomNumberGenerator(_randomGeneratorAddress).getRandomNumber();\n\n        // Calculate the finalNumber based on the randomResult generated by ChainLink's fallback\n        IRandomNumberGenerator(_randomGeneratorAddress).viewRandomResult();\n\n        randomGenerator = IRandomNumberGenerator(_randomGeneratorAddress);\n\n        emit NewRandomGenerator(_randomGeneratorAddress);\n    }\n\n    /**\n     * @notice Inject funds\n     * @param _lotteryId: lottery id\n     * @param _amount: amount to inject in tokens\n     * @dev Callable by owner or injector address\n     */\n    function injectFunds(uint256 _lotteryId, uint256 _amount) external override onlyOwnerOrInjector {\n        require(_lotteries[_lotteryId].status == Status.Open, \"Lottery not open\");\n\n        token.safeTransferFrom(address(msg.sender), address(this), _amount);\n        _lotteries[_lotteryId].amountCollectedInTokens += _amount;\n\n        emit LotteryInjection(_lotteryId, _amount);\n    }\n\n    /**\n     * @notice Start the lottery\n     * @dev Callable by operator\n     * @param _endTime: endTime of the lottery\n     * @param _priceTicketInTokens: price of a ticket in Tokens\n     * @param _discountDivisor: the divisor to calculate the discount magnitude for bulks\n     * @param _rewardsBreakdown: breakdown of rewards per bracket (must sum to 10,000)\n     * @param _treasuryFee: treasury fee (10,000 = 100%, 100 = 1%)\n     */\n    function startLottery(\n        uint256 _endTime,\n        uint256 _priceTicketInTokens,\n        uint256 _discountDivisor,\n        uint256[6] calldata _rewardsBreakdown,\n        uint256 _treasuryFee\n    ) external override onlyOperator {\n        require(\n            (currentLotteryId == 0) || (_lotteries[currentLotteryId].status == Status.Claimable),\n            \"Not time to start lottery\"\n        );\n\n        require(\n            ((_endTime - block.timestamp) > MIN_LENGTH_LOTTERY) && ((_endTime - block.timestamp) < MAX_LENGTH_LOTTERY),\n            \"Lottery length outside of range\"\n        );\n\n        require(\n            (_priceTicketInTokens >= minPriceTicketInTokens) && (_priceTicketInTokens <= maxPriceTicketInTokens),\n            \"Outside of limits\"\n        );\n\n        require(_discountDivisor >= MIN_DISCOUNT_DIVISOR, \"Discount divisor too low\");\n        require(_treasuryFee <= MAX_TREASURY_FEE, \"Treasury fee too high\");\n\n        require(\n            (_rewardsBreakdown[0] +\n                _rewardsBreakdown[1] +\n                _rewardsBreakdown[2] +\n                _rewardsBreakdown[3] +\n                _rewardsBreakdown[4] +\n                _rewardsBreakdown[5]) == 10000,\n            \"Rewards must equal 10000\"\n        );\n\n        currentLotteryId++;\n\n        _lotteries[currentLotteryId] = Lottery({\n            status: Status.Open,\n            startTime: block.timestamp,\n            endTime: _endTime,\n            priceTicketInTokens: _priceTicketInTokens,\n            discountDivisor: _discountDivisor,\n            rewardsBreakdown: _rewardsBreakdown,\n            treasuryFee: _treasuryFee,\n            tokensPerBracket: [uint256(0), uint256(0), uint256(0), uint256(0), uint256(0), uint256(0)],\n            countWinnersPerBracket: [uint256(0), uint256(0), uint256(0), uint256(0), uint256(0), uint256(0)],\n            firstTicketId: currentTicketId,\n            firstTicketIdNextLottery: currentTicketId,\n            amountCollectedInTokens: pendingInjectionNextLottery,\n            finalNumber: 0\n        });\n\n        emit LotteryOpen(\n            currentLotteryId,\n            block.timestamp,\n            _endTime,\n            _priceTicketInTokens,\n            currentTicketId,\n            pendingInjectionNextLottery\n        );\n\n        pendingInjectionNextLottery = 0;\n    }\n\n    /**\n     * @notice It allows the admin to recover wrong tokens sent to the contract\n     * @param _tokenAddress: the address of the token to withdraw\n     * @param _tokenAmount: the number of token amount to withdraw\n     * @dev Only callable by owner.\n     */\n    function recoverWrongTokens(address _tokenAddress, uint256 _tokenAmount) external onlyOwner {\n        require(_tokenAddress != address(token), \"Cannot be lottery token\");\n\n        IERC20(_tokenAddress).safeTransfer(address(msg.sender), _tokenAmount);\n\n        emit AdminTokenRecovery(_tokenAddress, _tokenAmount);\n    }\n\n    /**\n     * @notice Set Token price ticket upper/lower limit\n     * @dev Only callable by owner\n     * @param _minPriceTicketInTokens: minimum price of a ticket in Tokens\n     * @param _maxPriceTicketInTokens: maximum price of a ticket in Tokens\n     */\n    function setMinAndMaxTicketPriceInTokens(uint256 _minPriceTicketInTokens, uint256 _maxPriceTicketInTokens)\n        external\n        onlyOwner\n    {\n        require(_minPriceTicketInTokens <= _maxPriceTicketInTokens, \"minPrice must be < maxPrice\");\n\n        minPriceTicketInTokens = _minPriceTicketInTokens;\n        maxPriceTicketInTokens = _maxPriceTicketInTokens;\n    }\n\n    /**\n     * @notice Set max number of tickets\n     * @dev Only callable by owner\n     */\n    function setMaxNumberTicketsPerBuy(uint256 _maxNumberTicketsPerBuy) external onlyOwner {\n        require(_maxNumberTicketsPerBuy != 0, \"Must be > 0\");\n        maxNumberTicketsPerBuyOrClaim = _maxNumberTicketsPerBuy;\n    }\n\n    /**\n     * @notice Set operator, treasury, and injector addresses\n     * @dev Only callable by owner\n     * @param _operatorAddress: address of the operator\n     * @param _treasuryAddress: address of the treasury\n     * @param _injectorAddress: address of the injector\n     */\n    function setOperatorAndTreasuryAndInjectorAddresses(\n        address _operatorAddress,\n        address _treasuryAddress,\n        address _injectorAddress\n    ) external onlyOwner {\n        require(_operatorAddress != address(0), \"Cannot be zero address\");\n        require(_treasuryAddress != address(0), \"Cannot be zero address\");\n        require(_injectorAddress != address(0), \"Cannot be zero address\");\n\n        operatorAddress = _operatorAddress;\n        treasuryAddress = _treasuryAddress;\n        injectorAddress = _injectorAddress;\n\n        emit NewOperatorAndTreasuryAndInjectorAddresses(_operatorAddress, _treasuryAddress, _injectorAddress);\n    }\n\n    /**\n     * @notice Calculate price of a set of tickets\n     * @param _discountDivisor: divisor for the discount\n     * @param _priceTicket price of a ticket (in Tokens)\n     * @param _numberTickets number of tickets to buy\n     */\n    function calculateTotalPriceForBulkTickets(\n        uint256 _discountDivisor,\n        uint256 _priceTicket,\n        uint256 _numberTickets\n    ) external pure returns (uint256) {\n        require(_discountDivisor >= MIN_DISCOUNT_DIVISOR, \"Must be >= MIN_DISCOUNT_DIVISOR\");\n        require(_numberTickets != 0, \"Number of tickets must be > 0\");\n\n        return _calculateTotalPriceForBulkTickets(_discountDivisor, _priceTicket, _numberTickets);\n    }\n\n    /**\n     * @notice View current lottery id\n     */\n    function viewCurrentLotteryId() external view override returns (uint256) {\n        return currentLotteryId;\n    }\n\n    /**\n     * @notice View lottery information\n     * @param _lotteryId: lottery id\n     */\n    function viewLottery(uint256 _lotteryId) external view returns (Lottery memory) {\n        return _lotteries[_lotteryId];\n    }\n\n    /**\n     * @notice View ticker statuses and numbers for an array of ticket ids\n     * @param _ticketIds: array of _ticketId\n     */\n    function viewNumbersAndStatusesForTicketIds(uint256[] calldata _ticketIds)\n        external\n        view\n        returns (uint32[] memory, bool[] memory)\n    {\n        uint256 length = _ticketIds.length;\n        uint32[] memory ticketNumbers = new uint32[](length);\n        bool[] memory ticketStatuses = new bool[](length);\n\n        for (uint256 i = 0; i < length; i++) {\n            ticketNumbers[i] = _tickets[_ticketIds[i]].number;\n            if (_tickets[_ticketIds[i]].owner == address(0)) {\n                ticketStatuses[i] = true;\n            } else {\n                ticketStatuses[i] = false;\n            }\n        }\n\n        return (ticketNumbers, ticketStatuses);\n    }\n\n    /**\n     * @notice View rewards for a given ticket, providing a bracket, and lottery id\n     * @dev Computations are mostly offchain. This is used to verify a ticket!\n     * @param _lotteryId: lottery id\n     * @param _ticketId: ticket id\n     * @param _bracket: bracket for the ticketId to verify the claim and calculate rewards\n     */\n    function viewRewardsForTicketId(\n        uint256 _lotteryId,\n        uint256 _ticketId,\n        uint32 _bracket\n    ) external view returns (uint256) {\n        // Check lottery is in claimable status\n        if (_lotteries[_lotteryId].status != Status.Claimable) {\n            return 0;\n        }\n\n        // Check ticketId is within range\n        if (\n            (_lotteries[_lotteryId].firstTicketIdNextLottery < _ticketId) &&\n            (_lotteries[_lotteryId].firstTicketId >= _ticketId)\n        ) {\n            return 0;\n        }\n\n        return _calculateRewardsForTicketId(_lotteryId, _ticketId, _bracket);\n    }\n\n    /**\n     * @notice View user ticket ids, numbers, and statuses of user for a given lottery\n     * @param _user: user address\n     * @param _lotteryId: lottery id\n     * @param _cursor: cursor to start where to retrieve the tickets\n     * @param _size: the number of tickets to retrieve\n     */\n    function viewUserInfoForLotteryId(\n        address _user,\n        uint256 _lotteryId,\n        uint256 _cursor,\n        uint256 _size\n    )\n        external\n        view\n        returns (\n            uint256[] memory,\n            uint32[] memory,\n            bool[] memory,\n            uint256\n        )\n    {\n        uint256 length = _size;\n        uint256 numberTicketsBoughtAtLotteryId = _userTicketIdsPerLotteryId[_user][_lotteryId].length;\n\n        if (length > (numberTicketsBoughtAtLotteryId - _cursor)) {\n            length = numberTicketsBoughtAtLotteryId - _cursor;\n        }\n\n        uint256[] memory lotteryTicketIds = new uint256[](length);\n        uint32[] memory ticketNumbers = new uint32[](length);\n        bool[] memory ticketStatuses = new bool[](length);\n\n        for (uint256 i = 0; i < length; i++) {\n            lotteryTicketIds[i] = _userTicketIdsPerLotteryId[_user][_lotteryId][i + _cursor];\n            ticketNumbers[i] = _tickets[lotteryTicketIds[i]].number;\n\n            // True = ticket claimed\n            if (_tickets[lotteryTicketIds[i]].owner == address(0)) {\n                ticketStatuses[i] = true;\n            } else {\n                // ticket not claimed (includes the ones that cannot be claimed)\n                ticketStatuses[i] = false;\n            }\n        }\n\n        return (lotteryTicketIds, ticketNumbers, ticketStatuses, _cursor + length);\n    }\n\n    /**\n     * @notice Calculate rewards for a given ticket\n     * @param _lotteryId: lottery id\n     * @param _ticketId: ticket id\n     * @param _bracket: bracket for the ticketId to verify the claim and calculate rewards\n     */\n    function _calculateRewardsForTicketId(\n        uint256 _lotteryId,\n        uint256 _ticketId,\n        uint32 _bracket\n    ) internal view returns (uint256) {\n        // Retrieve the winning number combination\n        uint32 userNumber = _lotteries[_lotteryId].finalNumber;\n\n        // Retrieve the user number combination from the ticketId\n        uint32 winningTicketNumber = _tickets[_ticketId].number;\n\n        // Apply transformation to verify the claim provided by the user is true\n        uint32 transformedWinningNumber = _bracketCalculator[_bracket] +\n            (winningTicketNumber % (uint32(10)**(_bracket + 1)));\n\n        uint32 transformedUserNumber = _bracketCalculator[_bracket] + (userNumber % (uint32(10)**(_bracket + 1)));\n\n        // Confirm that the two transformed numbers are the same, if not throw\n        if (transformedWinningNumber == transformedUserNumber) {\n            return _lotteries[_lotteryId].tokensPerBracket[_bracket];\n        } else {\n            return 0;\n        }\n    }\n\n    /**\n     * @notice Calculate final price for bulk of tickets\n     * @param _discountDivisor: divisor for the discount (the smaller it is, the greater the discount is)\n     * @param _priceTicket: price of a ticket\n     * @param _numberTickets: number of tickets purchased\n     */\n    function _calculateTotalPriceForBulkTickets(\n        uint256 _discountDivisor,\n        uint256 _priceTicket,\n        uint256 _numberTickets\n    ) internal pure returns (uint256) {\n        return (_priceTicket * _numberTickets * (_discountDivisor + 1 - _numberTickets)) / _discountDivisor;\n    }\n\n    /**\n     * @notice Check if an address is a contract\n     */\n    function _isContract(address _addr) internal view returns (bool) {\n        uint256 size;\n        assembly {\n            size := extcodesize(_addr)\n        }\n        return size > 0;\n    }\n}",
  "sourcePath": "/Users/aranjak/Code-BC/lottery-contracts/contracts/TokenLottery.sol",
  "compiler": {
    "name": "solc",
    "version": "0.8.4+commit.c7e474f2.Emscripten.clang"
  },
  "schemaVersion": "3.4.0",
  "updatedAt": "2021-09-22T11:05:30.717Z",
  "networkType": "ethereum",
  "devdoc": {
    "kind": "dev",
    "methods": {
      "buyTickets(uint256,uint32[])": {
        "details": "Callable by users",
        "params": {
          "_lotteryId": ": lotteryId",
          "_ticketNumbers": ": array of ticket numbers between 1,000,000 and 1,999,999"
        }
      },
      "calculateTotalPriceForBulkTickets(uint256,uint256,uint256)": {
        "params": {
          "_discountDivisor": ": divisor for the discount",
          "_numberTickets": "number of tickets to buy",
          "_priceTicket": "price of a ticket (in Tokens)"
        }
      },
      "changeRandomGenerator(address)": {
        "details": "The calls to functions are used to verify the new generator implements them properly. It is necessary to wait for the VRF response before starting a round. Callable only by the contract owner",
        "params": {
          "_randomGeneratorAddress": ": address of the random generator"
        }
      },
      "claimTickets(uint256,uint256[],uint32[])": {
        "details": "Callable by users only, not contract!",
        "params": {
          "_brackets": ": array of brackets for the ticket ids",
          "_lotteryId": ": lottery id",
          "_ticketIds": ": array of ticket ids"
        }
      },
      "closeLottery(uint256)": {
        "details": "Callable by operator",
        "params": {
          "_lotteryId": ": lottery id"
        }
      },
      "constructor": {
        "details": "RandomNumberGenerator must be deployed prior to this contract",
        "params": {
          "_randomGeneratorAddress": ": address of the RandomGenerator contract used to work with ChainLink VRF",
          "_tokenAddress": ": address of the Token"
        }
      },
      "drawFinalNumberAndMakeLotteryClaimable(uint256,bool)": {
        "details": "Callable by operator",
        "params": {
          "_autoInjection": ": reinjects funds into next lottery (vs. withdrawing all)",
          "_lotteryId": ": lottery id"
        }
      },
      "injectFunds(uint256,uint256)": {
        "details": "Callable by owner or injector address",
        "params": {
          "_amount": ": amount to inject in tokens",
          "_lotteryId": ": lottery id"
        }
      },
      "owner()": {
        "details": "Returns the address of the current owner."
      },
      "recoverWrongTokens(address,uint256)": {
        "details": "Only callable by owner.",
        "params": {
          "_tokenAddress": ": the address of the token to withdraw",
          "_tokenAmount": ": the number of token amount to withdraw"
        }
      },
      "renounceOwnership()": {
        "details": "Leaves the contract without owner. It will not be possible to call `onlyOwner` functions anymore. Can only be called by the current owner. NOTE: Renouncing ownership will leave the contract without an owner, thereby removing any functionality that is only available to the owner."
      },
      "setMaxNumberTicketsPerBuy(uint256)": {
        "details": "Only callable by owner"
      },
      "setMinAndMaxTicketPriceInTokens(uint256,uint256)": {
        "details": "Only callable by owner",
        "params": {
          "_maxPriceTicketInTokens": ": maximum price of a ticket in Tokens",
          "_minPriceTicketInTokens": ": minimum price of a ticket in Tokens"
        }
      },
      "setOperatorAndTreasuryAndInjectorAddresses(address,address,address)": {
        "details": "Only callable by owner",
        "params": {
          "_injectorAddress": ": address of the injector",
          "_operatorAddress": ": address of the operator",
          "_treasuryAddress": ": address of the treasury"
        }
      },
      "startLottery(uint256,uint256,uint256,uint256[6],uint256)": {
        "details": "Callable by operator",
        "params": {
          "_discountDivisor": ": the divisor to calculate the discount magnitude for bulks",
          "_endTime": ": endTime of the lottery",
          "_priceTicketInTokens": ": price of a ticket in Tokens",
          "_rewardsBreakdown": ": breakdown of rewards per bracket (must sum to 10,000)",
          "_treasuryFee": ": treasury fee (10,000 = 100%, 100 = 1%)"
        }
      },
      "transferOwnership(address)": {
        "details": "Transfers ownership of the contract to a new account (`newOwner`). Can only be called by the current owner."
      },
      "viewLottery(uint256)": {
        "params": {
          "_lotteryId": ": lottery id"
        }
      },
      "viewNumbersAndStatusesForTicketIds(uint256[])": {
        "params": {
          "_ticketIds": ": array of _ticketId"
        }
      },
      "viewRewardsForTicketId(uint256,uint256,uint32)": {
        "details": "Computations are mostly offchain. This is used to verify a ticket!",
        "params": {
          "_bracket": ": bracket for the ticketId to verify the claim and calculate rewards",
          "_lotteryId": ": lottery id",
          "_ticketId": ": ticket id"
        }
      },
      "viewUserInfoForLotteryId(address,uint256,uint256,uint256)": {
        "params": {
          "_cursor": ": cursor to start where to retrieve the tickets",
          "_lotteryId": ": lottery id",
          "_size": ": the number of tickets to retrieve",
          "_user": ": user address"
        }
      }
    },
    "title": "TokenLottery.",
    "version": 1
  },
  "userdoc": {
    "kind": "user",
    "methods": {
      "buyTickets(uint256,uint32[])": {
        "notice": "Buy tickets for the current lottery"
      },
      "calculateTotalPriceForBulkTickets(uint256,uint256,uint256)": {
        "notice": "Calculate price of a set of tickets"
      },
      "changeRandomGenerator(address)": {
        "notice": "Change the random generator"
      },
      "claimTickets(uint256,uint256[],uint32[])": {
        "notice": "Claim a set of winning tickets for a lottery"
      },
      "closeLottery(uint256)": {
        "notice": "Close lottery"
      },
      "constructor": {
        "notice": "Constructor"
      },
      "drawFinalNumberAndMakeLotteryClaimable(uint256,bool)": {
        "notice": "Draw the final number, calculate reward in Tokens per group, and make lottery claimable"
      },
      "injectFunds(uint256,uint256)": {
        "notice": "Inject funds"
      },
      "recoverWrongTokens(address,uint256)": {
        "notice": "It allows the admin to recover wrong tokens sent to the contract"
      },
      "setMaxNumberTicketsPerBuy(uint256)": {
        "notice": "Set max number of tickets"
      },
      "setMinAndMaxTicketPriceInTokens(uint256,uint256)": {
        "notice": "Set Token price ticket upper/lower limit"
      },
      "setOperatorAndTreasuryAndInjectorAddresses(address,address,address)": {
        "notice": "Set operator, treasury, and injector addresses"
      },
      "startLottery(uint256,uint256,uint256,uint256[6],uint256)": {
        "notice": "Start the lottery"
      },
      "viewCurrentLotteryId()": {
        "notice": "View current lottery id"
      },
      "viewLottery(uint256)": {
        "notice": "View lottery information"
      },
      "viewNumbersAndStatusesForTicketIds(uint256[])": {
        "notice": "View ticker statuses and numbers for an array of ticket ids"
      },
      "viewRewardsForTicketId(uint256,uint256,uint32)": {
        "notice": "View rewards for a given ticket, providing a bracket, and lottery id"
      },
      "viewUserInfoForLotteryId(address,uint256,uint256,uint256)": {
        "notice": "View user ticket ids, numbers, and statuses of user for a given lottery"
      }
    },
    "notice": "It is a contract for a lottery system using randomness provided externally.",
    "version": 1
  }
}